{
  "contractName": "UserRegister",
  "abi": [
    {
      "inputs": [],
      "name": "_c_id",
      "outputs": [
        {
          "internalType": "uint256",
          "name": "",
          "type": "uint256"
        }
      ],
      "stateMutability": "view",
      "type": "function",
      "constant": true
    },
    {
      "inputs": [],
      "name": "_u_id",
      "outputs": [
        {
          "internalType": "uint256",
          "name": "",
          "type": "uint256"
        }
      ],
      "stateMutability": "view",
      "type": "function",
      "constant": true
    },
    {
      "inputs": [
        {
          "internalType": "uint256",
          "name": "_aid",
          "type": "uint256"
        },
        {
          "internalType": "string",
          "name": "_name",
          "type": "string"
        },
        {
          "internalType": "string",
          "name": "_location",
          "type": "string"
        },
        {
          "internalType": "uint256",
          "name": "_age",
          "type": "uint256"
        },
        {
          "internalType": "string",
          "name": "_gender",
          "type": "string"
        },
        {
          "internalType": "uint256",
          "name": "_contact",
          "type": "uint256"
        },
        {
          "internalType": "address",
          "name": "_add",
          "type": "address"
        }
      ],
      "name": "addUser",
      "outputs": [],
      "stateMutability": "nonpayable",
      "type": "function"
    },
    {
      "inputs": [
        {
          "internalType": "address",
          "name": "_add",
          "type": "address"
        }
      ],
      "name": "checkUser",
      "outputs": [
        {
          "internalType": "uint256",
          "name": "",
          "type": "uint256"
        }
      ],
      "stateMutability": "view",
      "type": "function",
      "constant": true
    },
    {
      "inputs": [
        {
          "internalType": "address",
          "name": "_addr",
          "type": "address"
        }
      ],
      "name": "showUser",
      "outputs": [
        {
          "internalType": "uint256",
          "name": "",
          "type": "uint256"
        },
        {
          "internalType": "string",
          "name": "",
          "type": "string"
        },
        {
          "internalType": "string",
          "name": "",
          "type": "string"
        },
        {
          "internalType": "uint256",
          "name": "",
          "type": "uint256"
        },
        {
          "internalType": "string",
          "name": "",
          "type": "string"
        },
        {
          "internalType": "uint256",
          "name": "",
          "type": "uint256"
        },
        {
          "internalType": "uint256",
          "name": "",
          "type": "uint256"
        }
      ],
      "stateMutability": "view",
      "type": "function",
      "constant": true
    },
    {
      "inputs": [
        {
          "internalType": "uint256",
          "name": "_li",
          "type": "uint256"
        },
        {
          "internalType": "string",
          "name": "_cname",
          "type": "string"
        },
        {
          "internalType": "string",
          "name": "_clocation",
          "type": "string"
        },
        {
          "internalType": "address",
          "name": "_cadd",
          "type": "address"
        }
      ],
      "name": "addcom",
      "outputs": [],
      "stateMutability": "nonpayable",
      "type": "function"
    },
    {
      "inputs": [
        {
          "internalType": "address",
          "name": "_add",
          "type": "address"
        }
      ],
      "name": "checkCompany",
      "outputs": [
        {
          "internalType": "uint256",
          "name": "",
          "type": "uint256"
        }
      ],
      "stateMutability": "view",
      "type": "function",
      "constant": true
    },
    {
      "inputs": [
        {
          "internalType": "address",
          "name": "_cadd",
          "type": "address"
        }
      ],
      "name": "showcom",
      "outputs": [
        {
          "internalType": "uint256",
          "name": "",
          "type": "uint256"
        },
        {
          "internalType": "string",
          "name": "",
          "type": "string"
        },
        {
          "internalType": "string",
          "name": "",
          "type": "string"
        },
        {
          "internalType": "uint256",
          "name": "",
          "type": "uint256"
        }
      ],
      "stateMutability": "view",
      "type": "function",
      "constant": true
    },
    {
      "inputs": [
        {
          "internalType": "uint256",
          "name": "_pid",
          "type": "uint256"
        },
        {
          "internalType": "string",
          "name": "_pname",
          "type": "string"
        },
        {
          "internalType": "uint256",
          "name": "_premium",
          "type": "uint256"
        },
        {
          "internalType": "uint256",
          "name": "_myear",
          "type": "uint256"
        },
        {
          "internalType": "uint256",
          "name": "_reimburse",
          "type": "uint256"
        },
        {
          "internalType": "address",
          "name": "_cadd",
          "type": "address"
        }
      ],
      "name": "addPolicy",
      "outputs": [],
      "stateMutability": "nonpayable",
      "type": "function"
    },
    {
      "inputs": [
        {
          "internalType": "uint256",
          "name": "_pid",
          "type": "uint256"
        }
      ],
      "name": "checkPolicy",
      "outputs": [
        {
          "internalType": "uint256",
          "name": "",
          "type": "uint256"
        }
      ],
      "stateMutability": "view",
      "type": "function",
      "constant": true
    }
  ],
  "bytecode": "0x608060405260008055600060015534801561001957600080fd5b50611bdc806100296000396000f3fe608060405234801561001057600080fd5b506004361061009e5760003560e01c80636dd3f5fe116100665780636dd3f5fe1461015f5780636ff96c7c14610192578063736436a1146101b0578063aca6bef7146101cc578063b77553b6146101fc5761009e565b80631e9d48cf146100a3578063517fe4de146100d35780635fe73f3f1461010957806364813458146101275780636787db8914610143575b600080fd5b6100bd60048036038101906100b8919061125a565b61022c565b6040516100ca91906112a0565b60405180910390f35b6100ed60048036038101906100e8919061125a565b61037e565b604051610100979695949392919061134b565b60405180910390f35b610111610719565b60405161011e91906112a0565b60405180910390f35b610141600480360381019061013c9190611530565b61071f565b005b61015d600480360381019061015891906115cf565b6108fd565b005b6101796004803603810190610174919061125a565b610b44565b60405161018994939291906116c5565b60405180910390f35b61019a610d7c565b6040516101a791906112a0565b60405180910390f35b6101ca60048036038101906101c59190611718565b610d82565b005b6101e660048036038101906101e191906117c1565b611031565b6040516101f391906112a0565b60405180910390f35b6102166004803603810190610211919061125a565b611096565b60405161022391906112a0565b60405180910390f35b6000806000905060005b6005805490508110156102d3578373ffffffffffffffffffffffffffffffffffffffff166005828154811061026e5761026d6117ee565b5b906000526020600020906008020160060160009054906101000a900473ffffffffffffffffffffffffffffffffffffffff1673ffffffffffffffffffffffffffffffffffffffff16036102c057600191505b80806102cb9061184c565b915050610236565b5060005b600680549050811015610374578373ffffffffffffffffffffffffffffffffffffffff166006828154811061030f5761030e6117ee565b5b906000526020600020906005020160030160009054906101000a900473ffffffffffffffffffffffffffffffffffffffff1673ffffffffffffffffffffffffffffffffffffffff160361036157600291505b808061036c9061184c565b9150506102d7565b5080915050919050565b600060608060006060600080600360008973ffffffffffffffffffffffffffffffffffffffff1673ffffffffffffffffffffffffffffffffffffffff16815260200190815260200160002060000154600360008a73ffffffffffffffffffffffffffffffffffffffff1673ffffffffffffffffffffffffffffffffffffffff168152602001908152602001600020600101600360008b73ffffffffffffffffffffffffffffffffffffffff1673ffffffffffffffffffffffffffffffffffffffff168152602001908152602001600020600201600360008c73ffffffffffffffffffffffffffffffffffffffff1673ffffffffffffffffffffffffffffffffffffffff16815260200190815260200160002060030154600360008d73ffffffffffffffffffffffffffffffffffffffff1673ffffffffffffffffffffffffffffffffffffffff168152602001908152602001600020600401600360008e73ffffffffffffffffffffffffffffffffffffffff1673ffffffffffffffffffffffffffffffffffffffff16815260200190815260200160002060050154600360008f73ffffffffffffffffffffffffffffffffffffffff1673ffffffffffffffffffffffffffffffffffffffff16815260200190815260200160002060070154858054610568906118c3565b80601f0160208091040260200160405190810160405280929190818152602001828054610594906118c3565b80156105e15780601f106105b6576101008083540402835291602001916105e1565b820191906000526020600020905b8154815290600101906020018083116105c457829003601f168201915b505050505095508480546105f4906118c3565b80601f0160208091040260200160405190810160405280929190818152602001828054610620906118c3565b801561066d5780601f106106425761010080835404028352916020019161066d565b820191906000526020600020905b81548152906001019060200180831161065057829003601f168201915b50505050509450828054610680906118c3565b80601f01602080910402602001604051908101604052809291908181526020018280546106ac906118c3565b80156106f95780601f106106ce576101008083540402835291602001916106f9565b820191906000526020600020905b8154815290600101906020018083116106dc57829003601f168201915b505050505092509650965096509650965096509650919395979092949650565b60015481565b600160005461072e91906118f4565b60008190555060006040518060a001604052808681526020018581526020018481526020018373ffffffffffffffffffffffffffffffffffffffff168152602001600054815250905060068190806001815401808255809150506001900390600052602060002090600502016000909190919091506000820151816000015560208201518160010190816107c29190611ad4565b5060408201518160020190816107d89190611ad4565b5060608201518160030160006101000a81548173ffffffffffffffffffffffffffffffffffffffff021916908373ffffffffffffffffffffffffffffffffffffffff16021790555060808201518160040155505080600260008473ffffffffffffffffffffffffffffffffffffffff1673ffffffffffffffffffffffffffffffffffffffff16815260200190815260200160002060008201518160000155602082015181600101908161088b9190611ad4565b5060408201518160020190816108a19190611ad4565b5060608201518160030160006101000a81548173ffffffffffffffffffffffffffffffffffffffff021916908373ffffffffffffffffffffffffffffffffffffffff160217905550608082015181600401559050505050505050565b6001805461090b91906118f4565b60018190555060006040518061010001604052808981526020018881526020018781526020018681526020018581526020018481526020018373ffffffffffffffffffffffffffffffffffffffff168152602001600154815250905060058190806001815401808255809150506001900390600052602060002090600802016000909190919091506000820151816000015560208201518160010190816109b29190611ad4565b5060408201518160020190816109c89190611ad4565b506060820151816003015560808201518160040190816109e89190611ad4565b5060a0820151816005015560c08201518160060160006101000a81548173ffffffffffffffffffffffffffffffffffffffff021916908373ffffffffffffffffffffffffffffffffffffffff16021790555060e08201518160070155505080600360008473ffffffffffffffffffffffffffffffffffffffff1673ffffffffffffffffffffffffffffffffffffffff168152602001908152602001600020600082015181600001556020820151816001019081610aa59190611ad4565b506040820151816002019081610abb9190611ad4565b50606082015181600301556080820151816004019081610adb9190611ad4565b5060a0820151816005015560c08201518160060160006101000a81548173ffffffffffffffffffffffffffffffffffffffff021916908373ffffffffffffffffffffffffffffffffffffffff16021790555060e082015181600701559050505050505050505050565b60006060806000600260008673ffffffffffffffffffffffffffffffffffffffff1673ffffffffffffffffffffffffffffffffffffffff16815260200190815260200160002060000154600260008773ffffffffffffffffffffffffffffffffffffffff1673ffffffffffffffffffffffffffffffffffffffff168152602001908152602001600020600101600260008873ffffffffffffffffffffffffffffffffffffffff1673ffffffffffffffffffffffffffffffffffffffff168152602001908152602001600020600201600260008973ffffffffffffffffffffffffffffffffffffffff1673ffffffffffffffffffffffffffffffffffffffff16815260200190815260200160002060040154828054610c61906118c3565b80601f0160208091040260200160405190810160405280929190818152602001828054610c8d906118c3565b8015610cda5780601f10610caf57610100808354040283529160200191610cda565b820191906000526020600020905b815481529060010190602001808311610cbd57829003601f168201915b50505050509250818054610ced906118c3565b80601f0160208091040260200160405190810160405280929190818152602001828054610d19906118c3565b8015610d665780601f10610d3b57610100808354040283529160200191610d66565b820191906000526020600020905b815481529060010190602001808311610d4957829003601f168201915b5050505050915093509350935093509193509193565b60005481565b60018054610d9091906118f4565b60018190555060006040518060e00160405280888152602001878152602001868152602001858152602001848152602001600260008573ffffffffffffffffffffffffffffffffffffffff1673ffffffffffffffffffffffffffffffffffffffff1681526020019081526020016000206001018054610e0e906118c3565b80601f0160208091040260200160405190810160405280929190818152602001828054610e3a906118c3565b8015610e875780601f10610e5c57610100808354040283529160200191610e87565b820191906000526020600020905b815481529060010190602001808311610e6a57829003601f168201915b505050505081526020018373ffffffffffffffffffffffffffffffffffffffff1681525090506007819080600181540180825580915050600190039060005260206000209060070201600090919091909150600082015181600001556020820151816001019081610ef89190611ad4565b5060408201518160020155606082015181600301556080820151816004015560a0820151816005019081610f2c9190611ad4565b5060c08201518160060160006101000a81548173ffffffffffffffffffffffffffffffffffffffff021916908373ffffffffffffffffffffffffffffffffffffffff16021790555050508060046000898152602001908152602001600020600082015181600001556020820151816001019081610fa99190611ad4565b5060408201518160020155606082015181600301556080820151816004015560a0820151816005019081610fdd9190611ad4565b5060c08201518160060160006101000a81548173ffffffffffffffffffffffffffffffffffffffff021916908373ffffffffffffffffffffffffffffffffffffffff16021790555090505050505050505050565b6000806000905060005b60078054905081101561108c57836007828154811061105d5761105c6117ee565b5b9060005260206000209060070201600001540361107957600191505b80806110849061184c565b91505061103b565b5080915050919050565b6000806000905060005b60068054905081101561113d578373ffffffffffffffffffffffffffffffffffffffff16600682815481106110d8576110d76117ee565b5b906000526020600020906005020160030160009054906101000a900473ffffffffffffffffffffffffffffffffffffffff1673ffffffffffffffffffffffffffffffffffffffff160361112a57600191505b80806111359061184c565b9150506110a0565b5060005b6005805490508110156111de578373ffffffffffffffffffffffffffffffffffffffff1660058281548110611179576111786117ee565b5b906000526020600020906008020160060160009054906101000a900473ffffffffffffffffffffffffffffffffffffffff1673ffffffffffffffffffffffffffffffffffffffff16036111cb57600291505b80806111d69061184c565b915050611141565b5080915050919050565b6000604051905090565b600080fd5b600080fd5b600073ffffffffffffffffffffffffffffffffffffffff82169050919050565b6000611227826111fc565b9050919050565b6112378161121c565b811461124257600080fd5b50565b6000813590506112548161122e565b92915050565b6000602082840312156112705761126f6111f2565b5b600061127e84828501611245565b91505092915050565b6000819050919050565b61129a81611287565b82525050565b60006020820190506112b56000830184611291565b92915050565b600081519050919050565b600082825260208201905092915050565b60005b838110156112f55780820151818401526020810190506112da565b60008484015250505050565b6000601f19601f8301169050919050565b600061131d826112bb565b61132781856112c6565b93506113378185602086016112d7565b61134081611301565b840191505092915050565b600060e082019050611360600083018a611291565b81810360208301526113728189611312565b905081810360408301526113868188611312565b90506113956060830187611291565b81810360808301526113a78186611312565b90506113b660a0830185611291565b6113c360c0830184611291565b98975050505050505050565b6113d881611287565b81146113e357600080fd5b50565b6000813590506113f5816113cf565b92915050565b600080fd5b600080fd5b7f4e487b7100000000000000000000000000000000000000000000000000000000600052604160045260246000fd5b61143d82611301565b810181811067ffffffffffffffff8211171561145c5761145b611405565b5b80604052505050565b600061146f6111e8565b905061147b8282611434565b919050565b600067ffffffffffffffff82111561149b5761149a611405565b5b6114a482611301565b9050602081019050919050565b82818337600083830152505050565b60006114d36114ce84611480565b611465565b9050828152602081018484840111156114ef576114ee611400565b5b6114fa8482856114b1565b509392505050565b600082601f830112611517576115166113fb565b5b81356115278482602086016114c0565b91505092915050565b6000806000806080858703121561154a576115496111f2565b5b6000611558878288016113e6565b945050602085013567ffffffffffffffff811115611579576115786111f7565b5b61158587828801611502565b935050604085013567ffffffffffffffff8111156115a6576115a56111f7565b5b6115b287828801611502565b92505060606115c387828801611245565b91505092959194509250565b600080600080600080600060e0888a0312156115ee576115ed6111f2565b5b60006115fc8a828b016113e6565b975050602088013567ffffffffffffffff81111561161d5761161c6111f7565b5b6116298a828b01611502565b965050604088013567ffffffffffffffff81111561164a576116496111f7565b5b6116568a828b01611502565b95505060606116678a828b016113e6565b945050608088013567ffffffffffffffff811115611688576116876111f7565b5b6116948a828b01611502565b93505060a06116a58a828b016113e6565b92505060c06116b68a828b01611245565b91505092959891949750929550565b60006080820190506116da6000830187611291565b81810360208301526116ec8186611312565b905081810360408301526117008185611312565b905061170f6060830184611291565b95945050505050565b60008060008060008060c08789031215611735576117346111f2565b5b600061174389828a016113e6565b965050602087013567ffffffffffffffff811115611764576117636111f7565b5b61177089828a01611502565b955050604061178189828a016113e6565b945050606061179289828a016113e6565b93505060806117a389828a016113e6565b92505060a06117b489828a01611245565b9150509295509295509295565b6000602082840312156117d7576117d66111f2565b5b60006117e5848285016113e6565b91505092915050565b7f4e487b7100000000000000000000000000000000000000000000000000000000600052603260045260246000fd5b7f4e487b7100000000000000000000000000000000000000000000000000000000600052601160045260246000fd5b600061185782611287565b91507fffffffffffffffffffffffffffffffffffffffffffffffffffffffffffffffff82036118895761188861181d565b5b600182019050919050565b7f4e487b7100000000000000000000000000000000000000000000000000000000600052602260045260246000fd5b600060028204905060018216806118db57607f821691505b6020821081036118ee576118ed611894565b5b50919050565b60006118ff82611287565b915061190a83611287565b92508282019050808211156119225761192161181d565b5b92915050565b60008190508160005260206000209050919050565b60006020601f8301049050919050565b600082821b905092915050565b60006008830261198a7fffffffffffffffffffffffffffffffffffffffffffffffffffffffffffffffff8261194d565b611994868361194d565b95508019841693508086168417925050509392505050565b6000819050919050565b60006119d16119cc6119c784611287565b6119ac565b611287565b9050919050565b6000819050919050565b6119eb836119b6565b6119ff6119f7826119d8565b84845461195a565b825550505050565b600090565b611a14611a07565b611a1f8184846119e2565b505050565b5b81811015611a4357611a38600082611a0c565b600181019050611a25565b5050565b601f821115611a8857611a5981611928565b611a628461193d565b81016020851015611a71578190505b611a85611a7d8561193d565b830182611a24565b50505b505050565b600082821c905092915050565b6000611aab60001984600802611a8d565b1980831691505092915050565b6000611ac48383611a9a565b9150826002028217905092915050565b611add826112bb565b67ffffffffffffffff811115611af657611af5611405565b5b611b0082546118c3565b611b0b828285611a47565b600060209050601f831160018114611b3e5760008415611b2c578287015190505b611b368582611ab8565b865550611b9e565b601f198416611b4c86611928565b60005b82811015611b7457848901518255600182019150602085019450602081019050611b4f565b86831015611b915784890151611b8d601f891682611a9a565b8355505b6001600288020188555050505b50505050505056fea264697066735822122095ed59d816404d7839eef0367ea4597e9a3bf5794e49bfa9a5518711c04c42c064736f6c63430008100033",
  "immutableReferences": {},
  "source": "// SPDX-License-Identifier: MIT\n\npragma solidity ^0.8;\n\ncontract UserRegister {\n\n\n    uint public _c_id =0;\n    uint public _u_id =0;\n    //uint public _t_id=0;\n\n    // structure for User\n    struct User {\n        uint Addhaarid;\n        string name;\n        string location;\n        uint age;\n        string gender;\n        uint contact;\n        address add;\n        uint id;\n    }\n    struct Company{\n        uint lice;\n        string name;\n        string blocation;\n        address cadd;\n        uint cid;\n    }\n\n    struct Policy {\n        uint policy_id;\n        string policy_name;\n        uint premium_monthly;\n        uint ploy_year;\n        uint reimburse;\n        string company_name;\n        address company;\n    }\n    //mapping(uint=> Company) c1;\n    mapping(address => Company) c1;\n    mapping (address => User) u1;\n    mapping(uint => Policy) p1;\n\n    // Creating array of student structure\n    User[] person;\n    Company[] company;\n    Policy[] policy;\n    //mapping(uint => User) public studs;\n\n    // Function to add User into the User structure\n    function addUser(uint _aid,string memory _name, string memory _location, uint _age, string memory _gender, uint _contact, address _add ) public {\n        _u_id=_u_id+1;\n        UserRegister.User memory x = User(_aid,_name, _location, _age, _gender,_contact, _add,_u_id);\n        person.push(x);\n        u1[_add] = x;\n    }\n\n    // Function to check User who are already registered or not!!!!!\n\n    function checkUser(address _add) view public returns(uint) {\n        uint _find = 0;\n        for (uint _i = 0; _i < person.length; _i++) {\n            if (person[_i].add == _add) {\n                _find = 1;\n            }\n        }\n        for (uint _i = 0; _i < company.length; _i++) {\n            if (company[_i].cadd == _add) {\n                _find = 2;\n            }\n        }\n\n        return (_find);\n    }\n\n     // Function to show User \n\n    function showUser(address _addr) public view returns(uint, string memory,string memory, uint,string memory,uint, uint ){\n        return(u1[_addr].Addhaarid,u1[_addr].name,u1[_addr].location,u1[_addr].age,u1[_addr].gender,u1[_addr].contact,u1[_addr].id);\n    }\n\n    // Function to add company into the company structure\n\n     function addcom(uint _li,string memory _cname, string memory _clocation, address _cadd) public {\n        _c_id=_c_id+1;\n        UserRegister.Company memory c = Company(_li,_cname, _clocation, _cadd,_c_id);\n        company.push(c);\n        c1[_cadd] = c;\n    }\n\n\n    function checkCompany(address _add) view public returns(uint) {\n        uint _find = 0;\n        for (uint _i = 0; _i < company.length; _i++) {\n            if (company[_i].cadd == _add) {\n                _find = 1;\n            }\n        }\n        for (uint _i = 0; _i < person.length; _i++) {\n            if (person[_i].add == _add) {\n                _find = 2;\n            }\n        }\n\n        return (_find);\n    }\n\n\n    // Function to show company\n\n    function showcom(address _cadd) public view returns(uint, string memory,string memory,uint ){\n        return(c1[_cadd].lice,c1[_cadd].name,c1[_cadd].blocation,c1[_cadd].cid);\n    }\n\n\n\n    // function to add policy\n\n    function addPolicy(uint _pid,string memory _pname, uint _premium, uint _myear, uint _reimburse,  address _cadd ) public {\n        _u_id=_u_id+1;\n        UserRegister.Policy memory p = Policy(_pid,_pname, _premium,_myear, _reimburse,c1[_cadd].name, _cadd);\n        policy.push(p);\n        p1[_pid] = p;\n    }\n\n    // Function to check Policys  are already registered or not!!!!!\n\n    function checkPolicy(uint _pid) view public returns(uint) {\n        uint _find = 0;\n        for (uint _i = 0; _i < policy.length; _i++) {\n            if (policy[_i].policy_id == _pid) {\n                _find = 1;\n            }\n        }\n\n        return (_find);\n    }\n}",
  "sourcePath": "/home/sai/Documents/GitHub/Blockchain_Insurance/contracts/UserRegister.sol",
  "compiler": {
    "name": "solc",
    "version": "0.8.16+commit.07a7930e.Emscripten.clang"
  },
  "schemaVersion": "3.4.9",
  "updatedAt": "2022-09-09T11:09:46.574Z",
  "networkType": "ethereum",
  "devdoc": {
    "kind": "dev",
    "methods": {},
    "version": 1
  },
  "userdoc": {
    "kind": "user",
    "methods": {},
    "version": 1
  }
}