{
  "contractName": "UserRegister",
  "abi": [
    {
      "inputs": [
        {
          "internalType": "uint256",
          "name": "_id",
          "type": "uint256"
        },
        {
          "internalType": "string",
          "name": "_name",
          "type": "string"
        },
        {
          "internalType": "string",
          "name": "_location",
          "type": "string"
        },
        {
          "internalType": "uint256",
          "name": "_age",
          "type": "uint256"
        },
        {
          "internalType": "string",
          "name": "_gender",
          "type": "string"
        },
        {
          "internalType": "uint256",
          "name": "_contact",
          "type": "uint256"
        }
      ],
      "name": "addUser",
      "outputs": [],
      "stateMutability": "nonpayable",
      "type": "function"
    },
    {
      "inputs": [
        {
          "internalType": "uint256",
          "name": "_id",
          "type": "uint256"
        }
      ],
      "name": "showUser",
      "outputs": [
        {
          "internalType": "uint256",
          "name": "",
          "type": "uint256"
        },
        {
          "internalType": "string",
          "name": "",
          "type": "string"
        },
        {
          "internalType": "string",
          "name": "",
          "type": "string"
        },
        {
          "internalType": "uint256",
          "name": "",
          "type": "uint256"
        },
        {
          "internalType": "string",
          "name": "",
          "type": "string"
        },
        {
          "internalType": "uint256",
          "name": "",
          "type": "uint256"
        }
      ],
      "stateMutability": "view",
      "type": "function",
      "constant": true
    },
    {
      "inputs": [
        {
          "internalType": "uint256",
          "name": "_cid",
          "type": "uint256"
        },
        {
          "internalType": "string",
          "name": "_cname",
          "type": "string"
        },
        {
          "internalType": "string",
          "name": "_clocation",
          "type": "string"
        }
      ],
      "name": "addcom",
      "outputs": [],
      "stateMutability": "nonpayable",
      "type": "function"
    },
    {
      "inputs": [
        {
          "internalType": "uint256",
          "name": "_id",
          "type": "uint256"
        }
      ],
      "name": "showcom",
      "outputs": [
        {
          "internalType": "uint256",
          "name": "",
          "type": "uint256"
        },
        {
          "internalType": "string",
          "name": "",
          "type": "string"
        },
        {
          "internalType": "string",
          "name": "",
          "type": "string"
        }
      ],
      "stateMutability": "view",
      "type": "function",
      "constant": true
    }
  ],
  "bytecode": "0x608060405234801561001057600080fd5b50610e3f806100206000396000f3fe608060405234801561001057600080fd5b506004361061004c5760003560e01c80638295e27c146100515780638f647aaa1461006d578063c6d2cb881461009f578063c7998dd8146100d4575b600080fd5b61006b60048036038101906100669190610849565b6100f0565b005b610087600480360381019061008291906108d4565b6101c5565b6040516100969392919061098f565b60405180910390f35b6100b960048036038101906100b491906108d4565b61032f565b6040516100cb969594939291906109d4565b60405180910390f35b6100ee60048036038101906100e99190610a4a565b61057a565b005b60006040518060600160405280858152602001848152602001838152509050600381908060018154018082558091505060019003906000526020600020906003020160009091909190915060008201518160000155602082015181600101908161015a9190610d37565b5060408201518160020190816101709190610d37565b505050806000808681526020019081526020016000206000820151816000015560208201518160010190816101a59190610d37565b5060408201518160020190816101bb9190610d37565b5090505050505050565b60006060806000808581526020019081526020016000206000015460008086815260200190815260200160002060010160008087815260200190815260200160002060020181805461021690610b5a565b80601f016020809104026020016040519081016040528092919081815260200182805461024290610b5a565b801561028f5780601f106102645761010080835404028352916020019161028f565b820191906000526020600020905b81548152906001019060200180831161027257829003601f168201915b505050505091508080546102a290610b5a565b80601f01602080910402602001604051908101604052809291908181526020018280546102ce90610b5a565b801561031b5780601f106102f05761010080835404028352916020019161031b565b820191906000526020600020905b8154815290600101906020018083116102fe57829003601f168201915b505050505090509250925092509193909250565b6000606080600060606000600160008881526020019081526020016000206000015460016000898152602001908152602001600020600101600160008a8152602001908152602001600020600201600160008b815260200190815260200160002060030154600160008c8152602001908152602001600020600401600160008d8152602001908152602001600020600501548480546103cd90610b5a565b80601f01602080910402602001604051908101604052809291908181526020018280546103f990610b5a565b80156104465780601f1061041b57610100808354040283529160200191610446565b820191906000526020600020905b81548152906001019060200180831161042957829003601f168201915b5050505050945083805461045990610b5a565b80601f016020809104026020016040519081016040528092919081815260200182805461048590610b5a565b80156104d25780601f106104a7576101008083540402835291602001916104d2565b820191906000526020600020905b8154815290600101906020018083116104b557829003601f168201915b505050505093508180546104e590610b5a565b80601f016020809104026020016040519081016040528092919081815260200182805461051190610b5a565b801561055e5780601f106105335761010080835404028352916020019161055e565b820191906000526020600020905b81548152906001019060200180831161054157829003601f168201915b5050505050915095509550955095509550955091939550919395565b60006040518060c0016040528088815260200187815260200186815260200185815260200184815260200183815250905060028190806001815401808255809150506001900390600052602060002090600602016000909190919091506000820151816000015560208201518160010190816105f69190610d37565b50604082015181600201908161060c9190610d37565b5060608201518160030155608082015181600401908161062c9190610d37565b5060a082015181600501555050806001600089815260200190815260200160002060008201518160000155602082015181600101908161066c9190610d37565b5060408201518160020190816106829190610d37565b506060820151816003015560808201518160040190816106a29190610d37565b5060a0820151816005015590505050505050505050565b6000604051905090565b600080fd5b600080fd5b6000819050919050565b6106e0816106cd565b81146106eb57600080fd5b50565b6000813590506106fd816106d7565b92915050565b600080fd5b600080fd5b6000601f19601f8301169050919050565b7f4e487b7100000000000000000000000000000000000000000000000000000000600052604160045260246000fd5b6107568261070d565b810181811067ffffffffffffffff821117156107755761077461071e565b5b80604052505050565b60006107886106b9565b9050610794828261074d565b919050565b600067ffffffffffffffff8211156107b4576107b361071e565b5b6107bd8261070d565b9050602081019050919050565b82818337600083830152505050565b60006107ec6107e784610799565b61077e565b90508281526020810184848401111561080857610807610708565b5b6108138482856107ca565b509392505050565b600082601f8301126108305761082f610703565b5b81356108408482602086016107d9565b91505092915050565b600080600060608486031215610862576108616106c3565b5b6000610870868287016106ee565b935050602084013567ffffffffffffffff811115610891576108906106c8565b5b61089d8682870161081b565b925050604084013567ffffffffffffffff8111156108be576108bd6106c8565b5b6108ca8682870161081b565b9150509250925092565b6000602082840312156108ea576108e96106c3565b5b60006108f8848285016106ee565b91505092915050565b61090a816106cd565b82525050565b600081519050919050565b600082825260208201905092915050565b60005b8381101561094a57808201518184015260208101905061092f565b60008484015250505050565b600061096182610910565b61096b818561091b565b935061097b81856020860161092c565b6109848161070d565b840191505092915050565b60006060820190506109a46000830186610901565b81810360208301526109b68185610956565b905081810360408301526109ca8184610956565b9050949350505050565b600060c0820190506109e96000830189610901565b81810360208301526109fb8188610956565b90508181036040830152610a0f8187610956565b9050610a1e6060830186610901565b8181036080830152610a308185610956565b9050610a3f60a0830184610901565b979650505050505050565b60008060008060008060c08789031215610a6757610a666106c3565b5b6000610a7589828a016106ee565b965050602087013567ffffffffffffffff811115610a9657610a956106c8565b5b610aa289828a0161081b565b955050604087013567ffffffffffffffff811115610ac357610ac26106c8565b5b610acf89828a0161081b565b9450506060610ae089828a016106ee565b935050608087013567ffffffffffffffff811115610b0157610b006106c8565b5b610b0d89828a0161081b565b92505060a0610b1e89828a016106ee565b9150509295509295509295565b7f4e487b7100000000000000000000000000000000000000000000000000000000600052602260045260246000fd5b60006002820490506001821680610b7257607f821691505b602082108103610b8557610b84610b2b565b5b50919050565b60008190508160005260206000209050919050565b60006020601f8301049050919050565b600082821b905092915050565b600060088302610bed7fffffffffffffffffffffffffffffffffffffffffffffffffffffffffffffffff82610bb0565b610bf78683610bb0565b95508019841693508086168417925050509392505050565b6000819050919050565b6000610c34610c2f610c2a846106cd565b610c0f565b6106cd565b9050919050565b6000819050919050565b610c4e83610c19565b610c62610c5a82610c3b565b848454610bbd565b825550505050565b600090565b610c77610c6a565b610c82818484610c45565b505050565b5b81811015610ca657610c9b600082610c6f565b600181019050610c88565b5050565b601f821115610ceb57610cbc81610b8b565b610cc584610ba0565b81016020851015610cd4578190505b610ce8610ce085610ba0565b830182610c87565b50505b505050565b600082821c905092915050565b6000610d0e60001984600802610cf0565b1980831691505092915050565b6000610d278383610cfd565b9150826002028217905092915050565b610d4082610910565b67ffffffffffffffff811115610d5957610d5861071e565b5b610d638254610b5a565b610d6e828285610caa565b600060209050601f831160018114610da15760008415610d8f578287015190505b610d998582610d1b565b865550610e01565b601f198416610daf86610b8b565b60005b82811015610dd757848901518255600182019150602085019450602081019050610db2565b86831015610df45784890151610df0601f891682610cfd565b8355505b6001600288020188555050505b50505050505056fea2646970667358221220b18d37a59638c124ed0fc960b102d9d69fb2a44624ca5173b8717a0faf9979be64736f6c63430008100033",
  "immutableReferences": {},
  "source": "// SPDX-License-Identifier: MIT\n\npragma solidity ^0.8;\n\ncontract UserRegister {\n    // structure for User\n    struct User {\n        uint id;\n        string name;\n        string location;\n        uint age;\n        string gender;\n        uint contact;\n    }\n    struct Company{\n        uint lice;\n        string name;\n        string blocation;\n    }\n    mapping(uint=> Company) c1;\n    mapping (uint => User) u1;\n    // Creating array of student structure\n    User[] person;\n    Company[] company;\n    //mapping(uint => User) public studs;\n\n    // Function to add students into the student structure\n    function addUser(uint _id,string memory _name, string memory _location, uint _age, string memory _gender, uint _contact) public {\n        UserRegister.User memory x = User(_id,_name, _location, _age, _gender,_contact);\n        person.push(x);\n        u1[_id] = x;\n    }\n    function showUser(uint _id) public view returns(uint, string memory,string memory, uint,string memory,uint ){\n        return(u1[_id].id,u1[_id].name,u1[_id].location,u1[_id].age,u1[_id].gender,u1[_id].contact);\n    }\n    \n     function addcom(uint _cid,string memory _cname, string memory _clocation) public {\n        UserRegister.Company memory c = Company(_cid,_cname, _clocation);\n        company.push(c);\n        c1[_cid] = c;\n    }\n    function showcom(uint _id) public view returns(uint, string memory,string memory ){\n        return(c1[_id].lice,c1[_id].name,c1[_id].blocation);\n    }\n}",
  "sourcePath": "/home/sai/Ethereum_Insurence/Student-Register-web3-Blockchain/contracts/UserRegister.sol",
  "compiler": {
    "name": "solc",
    "version": "0.8.16+commit.07a7930e.Emscripten.clang"
  },
  "schemaVersion": "3.4.9",
  "updatedAt": "2022-09-07T12:21:32.448Z",
  "networkType": "ethereum",
  "devdoc": {
    "kind": "dev",
    "methods": {},
    "version": 1
  },
  "userdoc": {
    "kind": "user",
    "methods": {},
    "version": 1
  }
}