{
  "contractName": "UserRegister",
  "abi": [
    {
      "inputs": [],
      "name": "_c_id",
      "outputs": [
        {
          "internalType": "uint256",
          "name": "",
          "type": "uint256"
        }
      ],
      "stateMutability": "view",
      "type": "function",
      "constant": true
    },
    {
      "inputs": [],
      "name": "_u_id",
      "outputs": [
        {
          "internalType": "uint256",
          "name": "",
          "type": "uint256"
        }
      ],
      "stateMutability": "view",
      "type": "function",
      "constant": true
    },
    {
      "inputs": [],
      "name": "t_id",
      "outputs": [
        {
          "internalType": "uint256",
          "name": "",
          "type": "uint256"
        }
      ],
      "stateMutability": "view",
      "type": "function",
      "constant": true
    },
    {
      "inputs": [
        {
          "internalType": "uint256",
          "name": "_aid",
          "type": "uint256"
        },
        {
          "internalType": "string",
          "name": "_name",
          "type": "string"
        },
        {
          "internalType": "string",
          "name": "_location",
          "type": "string"
        },
        {
          "internalType": "uint256",
          "name": "_age",
          "type": "uint256"
        },
        {
          "internalType": "string",
          "name": "_gender",
          "type": "string"
        },
        {
          "internalType": "uint256",
          "name": "_contact",
          "type": "uint256"
        },
        {
          "internalType": "address",
          "name": "_add",
          "type": "address"
        }
      ],
      "name": "addUser",
      "outputs": [],
      "stateMutability": "nonpayable",
      "type": "function"
    },
    {
      "inputs": [
        {
          "internalType": "address",
          "name": "_add",
          "type": "address"
        }
      ],
      "name": "checkUser",
      "outputs": [
        {
          "internalType": "uint256",
          "name": "",
          "type": "uint256"
        }
      ],
      "stateMutability": "view",
      "type": "function",
      "constant": true
    },
    {
      "inputs": [
        {
          "internalType": "address",
          "name": "_addr",
          "type": "address"
        }
      ],
      "name": "showUser",
      "outputs": [
        {
          "internalType": "uint256",
          "name": "",
          "type": "uint256"
        },
        {
          "internalType": "string",
          "name": "",
          "type": "string"
        },
        {
          "internalType": "string",
          "name": "",
          "type": "string"
        },
        {
          "internalType": "uint256",
          "name": "",
          "type": "uint256"
        },
        {
          "internalType": "string",
          "name": "",
          "type": "string"
        },
        {
          "internalType": "uint256",
          "name": "",
          "type": "uint256"
        },
        {
          "internalType": "uint256",
          "name": "",
          "type": "uint256"
        }
      ],
      "stateMutability": "view",
      "type": "function",
      "constant": true
    },
    {
      "inputs": [
        {
          "internalType": "uint256",
          "name": "_li",
          "type": "uint256"
        },
        {
          "internalType": "string",
          "name": "_cname",
          "type": "string"
        },
        {
          "internalType": "string",
          "name": "_clocation",
          "type": "string"
        },
        {
          "internalType": "address",
          "name": "_cadd",
          "type": "address"
        }
      ],
      "name": "addcom",
      "outputs": [],
      "stateMutability": "nonpayable",
      "type": "function"
    },
    {
      "inputs": [
        {
          "internalType": "address",
          "name": "_add",
          "type": "address"
        }
      ],
      "name": "checkCompany",
      "outputs": [
        {
          "internalType": "uint256",
          "name": "",
          "type": "uint256"
        }
      ],
      "stateMutability": "view",
      "type": "function",
      "constant": true
    },
    {
      "inputs": [
        {
          "internalType": "address",
          "name": "_cadd",
          "type": "address"
        }
      ],
      "name": "showcom",
      "outputs": [
        {
          "internalType": "uint256",
          "name": "",
          "type": "uint256"
        },
        {
          "internalType": "string",
          "name": "",
          "type": "string"
        },
        {
          "internalType": "string",
          "name": "",
          "type": "string"
        },
        {
          "internalType": "uint256",
          "name": "",
          "type": "uint256"
        }
      ],
      "stateMutability": "view",
      "type": "function",
      "constant": true
    },
    {
      "inputs": [
        {
          "internalType": "uint256",
          "name": "_pid",
          "type": "uint256"
        },
        {
          "internalType": "string",
          "name": "_pname",
          "type": "string"
        },
        {
          "internalType": "uint256",
          "name": "_premium",
          "type": "uint256"
        },
        {
          "internalType": "uint256",
          "name": "_myear",
          "type": "uint256"
        },
        {
          "internalType": "uint256",
          "name": "_reimburse",
          "type": "uint256"
        },
        {
          "internalType": "address",
          "name": "_cadd",
          "type": "address"
        }
      ],
      "name": "addPolicy",
      "outputs": [],
      "stateMutability": "nonpayable",
      "type": "function"
    },
    {
      "inputs": [
        {
          "internalType": "uint256",
          "name": "_pid",
          "type": "uint256"
        }
      ],
      "name": "checkPolicy",
      "outputs": [
        {
          "internalType": "uint256",
          "name": "",
          "type": "uint256"
        }
      ],
      "stateMutability": "view",
      "type": "function",
      "constant": true
    },
    {
      "inputs": [
        {
          "internalType": "uint256",
          "name": "_id",
          "type": "uint256"
        }
      ],
      "name": "showIns",
      "outputs": [
        {
          "internalType": "uint256",
          "name": "",
          "type": "uint256"
        },
        {
          "internalType": "string",
          "name": "",
          "type": "string"
        },
        {
          "internalType": "uint256",
          "name": "",
          "type": "uint256"
        },
        {
          "internalType": "uint256",
          "name": "",
          "type": "uint256"
        },
        {
          "internalType": "uint256",
          "name": "",
          "type": "uint256"
        },
        {
          "internalType": "string",
          "name": "",
          "type": "string"
        },
        {
          "internalType": "address",
          "name": "",
          "type": "address"
        },
        {
          "internalType": "uint256",
          "name": "",
          "type": "uint256"
        }
      ],
      "stateMutability": "view",
      "type": "function",
      "constant": true
    },
    {
      "inputs": [],
      "name": "getPolicySize",
      "outputs": [
        {
          "internalType": "uint256",
          "name": "",
          "type": "uint256"
        }
      ],
      "stateMutability": "view",
      "type": "function",
      "constant": true
    },
    {
      "inputs": [
        {
          "internalType": "uint256",
          "name": "_i",
          "type": "uint256"
        }
      ],
      "name": "getPolicyByIndex",
      "outputs": [
        {
          "internalType": "uint256",
          "name": "",
          "type": "uint256"
        },
        {
          "internalType": "string",
          "name": "",
          "type": "string"
        },
        {
          "internalType": "uint256",
          "name": "",
          "type": "uint256"
        },
        {
          "internalType": "uint256",
          "name": "",
          "type": "uint256"
        },
        {
          "internalType": "uint256",
          "name": "",
          "type": "uint256"
        },
        {
          "internalType": "string",
          "name": "",
          "type": "string"
        },
        {
          "internalType": "address",
          "name": "",
          "type": "address"
        }
      ],
      "stateMutability": "view",
      "type": "function",
      "constant": true
    },
    {
      "inputs": [
        {
          "internalType": "uint256",
          "name": "insid",
          "type": "uint256"
        },
        {
          "internalType": "address",
          "name": "uadd",
          "type": "address"
        }
      ],
      "name": "BuyIns",
      "outputs": [],
      "stateMutability": "nonpayable",
      "type": "function"
    }
  ],
  "bytecode": "0x6080604052600080556000600155600060025534801561001e57600080fd5b5061276e8061002e6000396000f3fe608060405234801561001057600080fd5b50600436106100f55760003560e01c80636dd3f5fe11610097578063ade93e9211610066578063ade93e92146102c0578063b77553b6146102dc578063ebb164591461030c578063ecc0f8711461032a576100f5565b80636dd3f5fe146102235780636ff96c7c14610256578063736436a114610274578063aca6bef714610290576100f5565b8063517fe4de116100d3578063517fe4de146101975780635fe73f3f146101cd57806364813458146101eb5780636787db8914610207576100f5565b806312742b81146100fa5780631e9d48cf146101305780632e86797814610160575b600080fd5b610114600480360381019061010f9190611c38565b610348565b6040516101279796959493929190611d45565b60405180910390f35b61014a60048036038101906101459190611dee565b6105ae565b6040516101579190611e1b565b60405180910390f35b61017a60048036038101906101759190611c38565b610700565b60405161018e989796959493929190611e36565b60405180910390f35b6101b160048036038101906101ac9190611dee565b610921565b6040516101c49796959493929190611ec2565b60405180910390f35b6101d5610cbc565b6040516101e29190611e1b565b60405180910390f35b6102056004803603810190610200919061207b565b610cc2565b005b610221600480360381019061021c919061211a565b610ea0565b005b61023d60048036038101906102389190611dee565b6110e7565b60405161024d9493929190612210565b60405180910390f35b61025e61131f565b60405161026b9190611e1b565b60405180910390f35b61028e60048036038101906102899190612263565b611325565b005b6102aa60048036038101906102a59190611c38565b611631565b6040516102b79190611e1b565b60405180910390f35b6102da60048036038101906102d5919061230c565b611696565b005b6102f660048036038101906102f19190611dee565b611a84565b6040516103039190611e1b565b60405180910390f35b610314611bd6565b6040516103219190611e1b565b60405180910390f35b610332611bdc565b60405161033f9190611e1b565b60405180910390f35b60006060600080600060606000600988815481106103695761036861234c565b5b9060005260206000209060080201600001546009898154811061038f5761038e61234c565b5b906000526020600020906008020160010160098a815481106103b4576103b361234c565b5b90600052602060002090600802016002015460098b815481106103da576103d961234c565b5b90600052602060002090600802016003015460098c81548110610400576103ff61234c565b5b90600052602060002090600802016004015460098d815481106104265761042561234c565b5b906000526020600020906008020160050160098e8154811061044b5761044a61234c565b5b906000526020600020906008020160060160009054906101000a900473ffffffffffffffffffffffffffffffffffffffff16858054610489906123aa565b80601f01602080910402602001604051908101604052809291908181526020018280546104b5906123aa565b80156105025780601f106104d757610100808354040283529160200191610502565b820191906000526020600020905b8154815290600101906020018083116104e557829003601f168201915b50505050509550818054610515906123aa565b80601f0160208091040260200160405190810160405280929190818152602001828054610541906123aa565b801561058e5780601f106105635761010080835404028352916020019161058e565b820191906000526020600020905b81548152906001019060200180831161057157829003601f168201915b505050505091509650965096509650965096509650919395979092949650565b6000806000905060005b600780549050811015610655578373ffffffffffffffffffffffffffffffffffffffff16600782815481106105f0576105ef61234c565b5b906000526020600020906008020160060160009054906101000a900473ffffffffffffffffffffffffffffffffffffffff1673ffffffffffffffffffffffffffffffffffffffff160361064257600191505b808061064d9061240a565b9150506105b8565b5060005b6008805490508110156106f6578373ffffffffffffffffffffffffffffffffffffffff16600882815481106106915761069061234c565b5b906000526020600020906005020160030160009054906101000a900473ffffffffffffffffffffffffffffffffffffffff1673ffffffffffffffffffffffffffffffffffffffff16036106e357600291505b80806106ee9061240a565b915050610659565b5080915050919050565b60006060600080600060606000806000600560008b81526020019081526020016000206040518061010001604052908160008201548152602001600182018054610749906123aa565b80601f0160208091040260200160405190810160405280929190818152602001828054610775906123aa565b80156107c25780601f10610797576101008083540402835291602001916107c2565b820191906000526020600020905b8154815290600101906020018083116107a557829003601f168201915b505050505081526020016002820154815260200160038201548152602001600482015481526020016005820180546107f9906123aa565b80601f0160208091040260200160405190810160405280929190818152602001828054610825906123aa565b80156108725780601f1061084757610100808354040283529160200191610872565b820191906000526020600020905b81548152906001019060200180831161085557829003601f168201915b505050505081526020016006820160009054906101000a900473ffffffffffffffffffffffffffffffffffffffff1673ffffffffffffffffffffffffffffffffffffffff1673ffffffffffffffffffffffffffffffffffffffff1681526020016007820154815250509050806000015181602001518260400151836060015184608001518560a001518660c001518760e001519850985098509850985098509850985050919395975091939597565b600060608060006060600080600460008973ffffffffffffffffffffffffffffffffffffffff1673ffffffffffffffffffffffffffffffffffffffff16815260200190815260200160002060000154600460008a73ffffffffffffffffffffffffffffffffffffffff1673ffffffffffffffffffffffffffffffffffffffff168152602001908152602001600020600101600460008b73ffffffffffffffffffffffffffffffffffffffff1673ffffffffffffffffffffffffffffffffffffffff168152602001908152602001600020600201600460008c73ffffffffffffffffffffffffffffffffffffffff1673ffffffffffffffffffffffffffffffffffffffff16815260200190815260200160002060030154600460008d73ffffffffffffffffffffffffffffffffffffffff1673ffffffffffffffffffffffffffffffffffffffff168152602001908152602001600020600401600460008e73ffffffffffffffffffffffffffffffffffffffff1673ffffffffffffffffffffffffffffffffffffffff16815260200190815260200160002060050154600460008f73ffffffffffffffffffffffffffffffffffffffff1673ffffffffffffffffffffffffffffffffffffffff16815260200190815260200160002060070154858054610b0b906123aa565b80601f0160208091040260200160405190810160405280929190818152602001828054610b37906123aa565b8015610b845780601f10610b5957610100808354040283529160200191610b84565b820191906000526020600020905b815481529060010190602001808311610b6757829003601f168201915b50505050509550848054610b97906123aa565b80601f0160208091040260200160405190810160405280929190818152602001828054610bc3906123aa565b8015610c105780601f10610be557610100808354040283529160200191610c10565b820191906000526020600020905b815481529060010190602001808311610bf357829003601f168201915b50505050509450828054610c23906123aa565b80601f0160208091040260200160405190810160405280929190818152602001828054610c4f906123aa565b8015610c9c5780601f10610c7157610100808354040283529160200191610c9c565b820191906000526020600020905b815481529060010190602001808311610c7f57829003601f168201915b505050505092509650965096509650965096509650919395979092949650565b60015481565b6001600054610cd19190612452565b60008190555060006040518060a001604052808681526020018581526020018481526020018373ffffffffffffffffffffffffffffffffffffffff16815260200160005481525090506008819080600181540180825580915050600190039060005260206000209060050201600090919091909150600082015181600001556020820151816001019081610d659190612632565b506040820151816002019081610d7b9190612632565b5060608201518160030160006101000a81548173ffffffffffffffffffffffffffffffffffffffff021916908373ffffffffffffffffffffffffffffffffffffffff16021790555060808201518160040155505080600360008473ffffffffffffffffffffffffffffffffffffffff1673ffffffffffffffffffffffffffffffffffffffff168152602001908152602001600020600082015181600001556020820151816001019081610e2e9190612632565b506040820151816002019081610e449190612632565b5060608201518160030160006101000a81548173ffffffffffffffffffffffffffffffffffffffff021916908373ffffffffffffffffffffffffffffffffffffffff160217905550608082015181600401559050505050505050565b60018054610eae9190612452565b60018190555060006040518061010001604052808981526020018881526020018781526020018681526020018581526020018481526020018373ffffffffffffffffffffffffffffffffffffffff16815260200160015481525090506007819080600181540180825580915050600190039060005260206000209060080201600090919091909150600082015181600001556020820151816001019081610f559190612632565b506040820151816002019081610f6b9190612632565b50606082015181600301556080820151816004019081610f8b9190612632565b5060a0820151816005015560c08201518160060160006101000a81548173ffffffffffffffffffffffffffffffffffffffff021916908373ffffffffffffffffffffffffffffffffffffffff16021790555060e08201518160070155505080600460008473ffffffffffffffffffffffffffffffffffffffff1673ffffffffffffffffffffffffffffffffffffffff1681526020019081526020016000206000820151816000015560208201518160010190816110489190612632565b50604082015181600201908161105e9190612632565b5060608201518160030155608082015181600401908161107e9190612632565b5060a0820151816005015560c08201518160060160006101000a81548173ffffffffffffffffffffffffffffffffffffffff021916908373ffffffffffffffffffffffffffffffffffffffff16021790555060e082015181600701559050505050505050505050565b60006060806000600360008673ffffffffffffffffffffffffffffffffffffffff1673ffffffffffffffffffffffffffffffffffffffff16815260200190815260200160002060000154600360008773ffffffffffffffffffffffffffffffffffffffff1673ffffffffffffffffffffffffffffffffffffffff168152602001908152602001600020600101600360008873ffffffffffffffffffffffffffffffffffffffff1673ffffffffffffffffffffffffffffffffffffffff168152602001908152602001600020600201600360008973ffffffffffffffffffffffffffffffffffffffff1673ffffffffffffffffffffffffffffffffffffffff16815260200190815260200160002060040154828054611204906123aa565b80601f0160208091040260200160405190810160405280929190818152602001828054611230906123aa565b801561127d5780601f106112525761010080835404028352916020019161127d565b820191906000526020600020905b81548152906001019060200180831161126057829003601f168201915b50505050509250818054611290906123aa565b80601f01602080910402602001604051908101604052809291908181526020018280546112bc906123aa565b80156113095780601f106112de57610100808354040283529160200191611309565b820191906000526020600020905b8154815290600101906020018083116112ec57829003601f168201915b5050505050915093509350935093509193509193565b60005481565b600180546113339190612452565b6001819055506000604051806101000160405280888152602001878152602001868152602001858152602001848152602001600360008573ffffffffffffffffffffffffffffffffffffffff1673ffffffffffffffffffffffffffffffffffffffff16815260200190815260200160002060010180546113b2906123aa565b80601f01602080910402602001604051908101604052809291908181526020018280546113de906123aa565b801561142b5780601f106114005761010080835404028352916020019161142b565b820191906000526020600020905b81548152906001019060200180831161140e57829003601f168201915b505050505081526020018373ffffffffffffffffffffffffffffffffffffffff168152602001600360008573ffffffffffffffffffffffffffffffffffffffff1673ffffffffffffffffffffffffffffffffffffffff16815260200190815260200160002060040154815250905060098190806001815401808255809150506001900390600052602060002090600802016000909190919091506000820151816000015560208201518160010190816114e49190612632565b5060408201518160020155606082015181600301556080820151816004015560a08201518160050190816115189190612632565b5060c08201518160060160006101000a81548173ffffffffffffffffffffffffffffffffffffffff021916908373ffffffffffffffffffffffffffffffffffffffff16021790555060e082015181600701555050806005600089815260200190815260200160002060008201518160000155602082015181600101908161159f9190612632565b5060408201518160020155606082015181600301556080820151816004015560a08201518160050190816115d39190612632565b5060c08201518160060160006101000a81548173ffffffffffffffffffffffffffffffffffffffff021916908373ffffffffffffffffffffffffffffffffffffffff16021790555060e0820151816007015590505050505050505050565b6000806000905060005b60098054905081101561168c57836009828154811061165d5761165c61234c565b5b9060005260206000209060080201600001540361167957600191505b80806116849061240a565b91505061163b565b5080915050919050565b60016002546116a59190612452565b600281905550600081905060008173ffffffffffffffffffffffffffffffffffffffff1631905060006005600086815260200190815260200160002060060160009054906101000a900473ffffffffffffffffffffffffffffffffffffffff16905060006005600087815260200190815260200160002060020154905080831061177f5780836117359190612704565b92508173ffffffffffffffffffffffffffffffffffffffff166108fc829081150290604051600060405180830381858888f1935050505015801561177d573d6000803e3d6000fd5b505b60006040518060e00160405280600460008973ffffffffffffffffffffffffffffffffffffffff1673ffffffffffffffffffffffffffffffffffffffff168152602001908152602001600020600001548152602001600460008973ffffffffffffffffffffffffffffffffffffffff1673ffffffffffffffffffffffffffffffffffffffff168152602001908152602001600020600701548152602001888152602001600560008a8152602001908152602001600020600701548152602001600560008a815260200190815260200160002060060160009054906101000a900473ffffffffffffffffffffffffffffffffffffffff1673ffffffffffffffffffffffffffffffffffffffff1681526020018773ffffffffffffffffffffffffffffffffffffffff1681526020016002548152509050600a8190806001815401808255809150506001900390600052602060002090600702016000909190919091506000820151816000015560208201518160010155604082015181600201556060820151816003015560808201518160040160006101000a81548173ffffffffffffffffffffffffffffffffffffffff021916908373ffffffffffffffffffffffffffffffffffffffff16021790555060a08201518160050160006101000a81548173ffffffffffffffffffffffffffffffffffffffff021916908373ffffffffffffffffffffffffffffffffffffffff16021790555060c082015181600601555050806006600060025481526020019081526020016000206000820151816000015560208201518160010155604082015181600201556060820151816003015560808201518160040160006101000a81548173ffffffffffffffffffffffffffffffffffffffff021916908373ffffffffffffffffffffffffffffffffffffffff16021790555060a08201518160050160006101000a81548173ffffffffffffffffffffffffffffffffffffffff021916908373ffffffffffffffffffffffffffffffffffffffff16021790555060c0820151816006015590505050505050505050565b6000806000905060005b600880549050811015611b2b578373ffffffffffffffffffffffffffffffffffffffff1660088281548110611ac657611ac561234c565b5b906000526020600020906005020160030160009054906101000a900473ffffffffffffffffffffffffffffffffffffffff1673ffffffffffffffffffffffffffffffffffffffff1603611b1857600191505b8080611b239061240a565b915050611a8e565b5060005b600780549050811015611bcc578373ffffffffffffffffffffffffffffffffffffffff1660078281548110611b6757611b6661234c565b5b906000526020600020906008020160060160009054906101000a900473ffffffffffffffffffffffffffffffffffffffff1673ffffffffffffffffffffffffffffffffffffffff1603611bb957600291505b8080611bc49061240a565b915050611b2f565b5080915050919050565b60025481565b60008060098054905090508091505090565b6000604051905090565b600080fd5b600080fd5b6000819050919050565b611c1581611c02565b8114611c2057600080fd5b50565b600081359050611c3281611c0c565b92915050565b600060208284031215611c4e57611c4d611bf8565b5b6000611c5c84828501611c23565b91505092915050565b611c6e81611c02565b82525050565b600081519050919050565b600082825260208201905092915050565b60005b83811015611cae578082015181840152602081019050611c93565b60008484015250505050565b6000601f19601f8301169050919050565b6000611cd682611c74565b611ce08185611c7f565b9350611cf0818560208601611c90565b611cf981611cba565b840191505092915050565b600073ffffffffffffffffffffffffffffffffffffffff82169050919050565b6000611d2f82611d04565b9050919050565b611d3f81611d24565b82525050565b600060e082019050611d5a600083018a611c65565b8181036020830152611d6c8189611ccb565b9050611d7b6040830188611c65565b611d886060830187611c65565b611d956080830186611c65565b81810360a0830152611da78185611ccb565b9050611db660c0830184611d36565b98975050505050505050565b611dcb81611d24565b8114611dd657600080fd5b50565b600081359050611de881611dc2565b92915050565b600060208284031215611e0457611e03611bf8565b5b6000611e1284828501611dd9565b91505092915050565b6000602082019050611e306000830184611c65565b92915050565b600061010082019050611e4c600083018b611c65565b8181036020830152611e5e818a611ccb565b9050611e6d6040830189611c65565b611e7a6060830188611c65565b611e876080830187611c65565b81810360a0830152611e998186611ccb565b9050611ea860c0830185611d36565b611eb560e0830184611c65565b9998505050505050505050565b600060e082019050611ed7600083018a611c65565b8181036020830152611ee98189611ccb565b90508181036040830152611efd8188611ccb565b9050611f0c6060830187611c65565b8181036080830152611f1e8186611ccb565b9050611f2d60a0830185611c65565b611f3a60c0830184611c65565b98975050505050505050565b600080fd5b600080fd5b7f4e487b7100000000000000000000000000000000000000000000000000000000600052604160045260246000fd5b611f8882611cba565b810181811067ffffffffffffffff82111715611fa757611fa6611f50565b5b80604052505050565b6000611fba611bee565b9050611fc68282611f7f565b919050565b600067ffffffffffffffff821115611fe657611fe5611f50565b5b611fef82611cba565b9050602081019050919050565b82818337600083830152505050565b600061201e61201984611fcb565b611fb0565b90508281526020810184848401111561203a57612039611f4b565b5b612045848285611ffc565b509392505050565b600082601f83011261206257612061611f46565b5b813561207284826020860161200b565b91505092915050565b6000806000806080858703121561209557612094611bf8565b5b60006120a387828801611c23565b945050602085013567ffffffffffffffff8111156120c4576120c3611bfd565b5b6120d08782880161204d565b935050604085013567ffffffffffffffff8111156120f1576120f0611bfd565b5b6120fd8782880161204d565b925050606061210e87828801611dd9565b91505092959194509250565b600080600080600080600060e0888a03121561213957612138611bf8565b5b60006121478a828b01611c23565b975050602088013567ffffffffffffffff81111561216857612167611bfd565b5b6121748a828b0161204d565b965050604088013567ffffffffffffffff81111561219557612194611bfd565b5b6121a18a828b0161204d565b95505060606121b28a828b01611c23565b945050608088013567ffffffffffffffff8111156121d3576121d2611bfd565b5b6121df8a828b0161204d565b93505060a06121f08a828b01611c23565b92505060c06122018a828b01611dd9565b91505092959891949750929550565b60006080820190506122256000830187611c65565b81810360208301526122378186611ccb565b9050818103604083015261224b8185611ccb565b905061225a6060830184611c65565b95945050505050565b60008060008060008060c087890312156122805761227f611bf8565b5b600061228e89828a01611c23565b965050602087013567ffffffffffffffff8111156122af576122ae611bfd565b5b6122bb89828a0161204d565b95505060406122cc89828a01611c23565b94505060606122dd89828a01611c23565b93505060806122ee89828a01611c23565b92505060a06122ff89828a01611dd9565b9150509295509295509295565b6000806040838503121561232357612322611bf8565b5b600061233185828601611c23565b925050602061234285828601611dd9565b9150509250929050565b7f4e487b7100000000000000000000000000000000000000000000000000000000600052603260045260246000fd5b7f4e487b7100000000000000000000000000000000000000000000000000000000600052602260045260246000fd5b600060028204905060018216806123c257607f821691505b6020821081036123d5576123d461237b565b5b50919050565b7f4e487b7100000000000000000000000000000000000000000000000000000000600052601160045260246000fd5b600061241582611c02565b91507fffffffffffffffffffffffffffffffffffffffffffffffffffffffffffffffff8203612447576124466123db565b5b600182019050919050565b600061245d82611c02565b915061246883611c02565b92508282019050808211156124805761247f6123db565b5b92915050565b60008190508160005260206000209050919050565b60006020601f8301049050919050565b600082821b905092915050565b6000600883026124e87fffffffffffffffffffffffffffffffffffffffffffffffffffffffffffffffff826124ab565b6124f286836124ab565b95508019841693508086168417925050509392505050565b6000819050919050565b600061252f61252a61252584611c02565b61250a565b611c02565b9050919050565b6000819050919050565b61254983612514565b61255d61255582612536565b8484546124b8565b825550505050565b600090565b612572612565565b61257d818484612540565b505050565b5b818110156125a15761259660008261256a565b600181019050612583565b5050565b601f8211156125e6576125b781612486565b6125c08461249b565b810160208510156125cf578190505b6125e36125db8561249b565b830182612582565b50505b505050565b600082821c905092915050565b6000612609600019846008026125eb565b1980831691505092915050565b600061262283836125f8565b9150826002028217905092915050565b61263b82611c74565b67ffffffffffffffff81111561265457612653611f50565b5b61265e82546123aa565b6126698282856125a5565b600060209050601f83116001811461269c576000841561268a578287015190505b6126948582612616565b8655506126fc565b601f1984166126aa86612486565b60005b828110156126d2578489015182556001820191506020850194506020810190506126ad565b868310156126ef57848901516126eb601f8916826125f8565b8355505b6001600288020188555050505b505050505050565b600061270f82611c02565b915061271a83611c02565b9250828203905081811115612732576127316123db565b5b9291505056fea2646970667358221220194986a37e770b8177a12a2087dac3856f9052ec3b966500f21fcc65090a447264736f6c63430008100033",
  "immutableReferences": {},
  "source": "// SPDX-License-Identifier: MIT\n\npragma solidity ^0.8;\n\ncontract UserRegister {\n\n\n    uint public _c_id =0;\n    uint public _u_id =0;\n    uint public t_id=0;\n    //uint public _t_id=0;\n\n    // structure for User\n    struct User {\n        uint Addhaarid;\n        string name;\n        string location;\n        uint age;\n        string gender;\n        uint contact;\n        address add;\n        uint id;\n    }\n    struct Company{\n        uint lice;\n        string name;\n        string blocation;\n        address cadd;\n        uint cid;\n    }\n\n    struct Policy {\n        uint policy_id;\n        string policy_name;\n        uint premium_monthly;\n        uint ploy_year;\n        uint reimburse;\n        string company_name;\n        address company_add;\n        uint i_cid;\n    }\n    struct Track_Insu{\n        uint Adhr_tid;\n        uint usr_id;\n        uint ins_id;\n        uint com_id;\n        address uadd;\n        address cadd;\n        uint tid;\n    }\n\n    //mapping(uint=> Company) c1;\n    mapping(address => Company) c1;\n    mapping (address => User) u1;\n    mapping(uint => Policy) p1;\n    mapping (uint =>Track_Insu) t1;\n    // Creating array of student structure\n    User[] person;\n    Company[] company;\n    Policy[] policy;\n    Track_Insu[] trackins;\n    //mapping(uint => User) public studs;\n\n    // Function to add User into the User structure\n    function addUser(uint _aid,string memory _name, string memory _location, uint _age, string memory _gender, uint _contact, address _add ) public {\n        _u_id=_u_id+1;\n        UserRegister.User memory x = User(_aid,_name, _location, _age, _gender,_contact, _add,_u_id);\n        person.push(x);\n        u1[_add] = x;\n    }\n\n    // Function to check User who are already registered or not!!!!!\n\n    function checkUser(address _add) view public returns(uint) {\n        uint _find = 0;\n        for (uint _i = 0; _i < person.length; _i++) {\n            if (person[_i].add == _add) {\n                _find = 1;\n            }\n        }\n        for (uint _i = 0; _i < company.length; _i++) {\n            if (company[_i].cadd == _add) {\n                _find = 2;\n            }\n        }\n\n        return (_find);\n    }\n\n     // Function to show User \n\n    function showUser(address _addr) public view returns(uint, string memory,string memory, uint,string memory,uint, uint ){\n        return(u1[_addr].Addhaarid,u1[_addr].name,u1[_addr].location,u1[_addr].age,u1[_addr].gender,u1[_addr].contact,u1[_addr].id);\n    }\n\n    // Function to add company into the company structure\n\n     function addcom(uint _li,string memory _cname, string memory _clocation, address _cadd) public {\n        _c_id=_c_id+1;\n        UserRegister.Company memory c = Company(_li,_cname, _clocation, _cadd,_c_id);\n        company.push(c);\n        c1[_cadd] = c;\n    }\n\n\n    function checkCompany(address _add) view public returns(uint) {\n        uint _find = 0;\n        for (uint _i = 0; _i < company.length; _i++) {\n            if (company[_i].cadd == _add) {\n                _find = 1;\n            }\n        }\n        for (uint _i = 0; _i < person.length; _i++) {\n            if (person[_i].add == _add) {\n                _find = 2;\n            }\n        }\n\n        return (_find);\n    }\n\n\n    // Function to show company\n\n    function showcom(address _cadd) public view returns(uint, string memory,string memory,uint ){\n        return(c1[_cadd].lice,c1[_cadd].name,c1[_cadd].blocation,c1[_cadd].cid);\n    }\n\n\n\n    // function to add policy\n\n    function addPolicy(uint _pid,string memory _pname, uint _premium, uint _myear, uint _reimburse,  address _cadd ) public {\n        _u_id=_u_id+1;\n        UserRegister.Policy memory p = Policy(_pid,_pname, _premium,_myear, _reimburse,c1[_cadd].name, _cadd,c1[_cadd].cid);\n        policy.push(p);\n        p1[_pid] = p;\n    }\n\n    // Function to check Policys  are already registered or not!!!!!\n\n    function checkPolicy(uint _pid) view public returns(uint) {\n        uint _find = 0;\n        for (uint _i = 0; _i < policy.length; _i++) {\n            if (policy[_i].policy_id == _pid) {\n                _find = 1;\n            }\n        }\n\n        return (_find);\n    }\n     // Function to show Policys  that are already registered !!!!!\n\n    function showIns(uint _id) public view returns(uint, string memory, uint, uint,uint ,string memory,address,uint){\n        Policy memory pol= p1[_id];\n        return(pol.policy_id, pol.policy_name, pol.premium_monthly, pol.ploy_year, pol.reimburse, pol.company_name, pol.company_add, pol.i_cid);\n        //return(p1[_id].policy_id, p1[_id].policy_name, p1[_id].premium_monthly, p1[_id].ploy_year, p1[_id].reimburse, p1[_id].company_name, p1[_id].company_add, p1[_id].i_cid);\n    }\n\n    function getPolicySize() public view returns(uint) {\n        uint _size;\n        _size = policy.length;\n        return (_size);\n    }\n\n    function getPolicyByIndex(uint _i) public view returns(uint, string memory, uint, uint,uint ,string memory,address) {\n        return(policy[_i].policy_id, policy[_i].policy_name, policy[_i].premium_monthly, policy[_i].ploy_year, policy[_i].reimburse, policy[_i].company_name, policy[_i].company_add);\n    }\n\n    function BuyIns(uint insid,address  uadd)public  {\n        t_id=t_id+1;\n\n        address sender = uadd;\n        uint bal1 = sender.balance;\n        address   payable receiver=payable(p1[insid].company_add );\n    //uint bal2 = receiver.balance;\n\n    //mapping(address => uint) public addressToBalance;\n\n    //function send(address payable _receiver) public payable {\n        //receiver = _receiver;\n        uint value= p1[insid].premium_monthly ;\n        if (bal1>=value){\n            bal1 -= value;\n        //bal2 += msg.value;\n        receiver.transfer(value);\n        //addressToBalance[sender] = bal1;\n        //addressToBalance[receiver] = receiver.balance;\n        }\n\n        UserRegister.Track_Insu memory t = Track_Insu(u1[uadd].Addhaarid ,u1[uadd].id,insid,p1[insid].i_cid, p1[insid].company_add ,uadd,t_id);\n        trackins.push(t);\n        t1[t_id]=t;\n\n    }\n    //function Payment()\n    //function showbuyins(_tid) public views returns()\n  \n}\n",
  "sourcePath": "/home/sai/Documents/GitHub/Blockchain_Insurance_Project/Blockchain_Insurance/contracts/UserRegister.sol",
  "compiler": {
    "name": "solc",
    "version": "0.8.16+commit.07a7930e.Emscripten.clang"
  },
  "schemaVersion": "3.4.9",
  "updatedAt": "2022-09-19T11:05:54.794Z",
  "networkType": "ethereum",
  "devdoc": {
    "kind": "dev",
    "methods": {},
    "version": 1
  },
  "userdoc": {
    "kind": "user",
    "methods": {},
    "version": 1
  }
}