{
  "contractName": "UserRegister",
  "abi": [
    {
      "inputs": [],
      "name": "_c_id",
      "outputs": [
        {
          "internalType": "uint256",
          "name": "",
          "type": "uint256"
        }
      ],
      "stateMutability": "view",
      "type": "function",
      "constant": true
    },
    {
      "inputs": [],
      "name": "_u_id",
      "outputs": [
        {
          "internalType": "uint256",
          "name": "",
          "type": "uint256"
        }
      ],
      "stateMutability": "view",
      "type": "function",
      "constant": true
    },
    {
      "inputs": [
        {
          "internalType": "uint256",
          "name": "_aid",
          "type": "uint256"
        },
        {
          "internalType": "string",
          "name": "_name",
          "type": "string"
        },
        {
          "internalType": "string",
          "name": "_location",
          "type": "string"
        },
        {
          "internalType": "uint256",
          "name": "_age",
          "type": "uint256"
        },
        {
          "internalType": "string",
          "name": "_gender",
          "type": "string"
        },
        {
          "internalType": "uint256",
          "name": "_contact",
          "type": "uint256"
        },
        {
          "internalType": "address",
          "name": "_add",
          "type": "address"
        }
      ],
      "name": "addUser",
      "outputs": [],
      "stateMutability": "nonpayable",
      "type": "function"
    },
    {
      "inputs": [
        {
          "internalType": "address",
          "name": "_add",
          "type": "address"
        }
      ],
      "name": "checkUser",
      "outputs": [
        {
          "internalType": "uint256",
          "name": "",
          "type": "uint256"
        }
      ],
      "stateMutability": "view",
      "type": "function",
      "constant": true
    },
    {
      "inputs": [
        {
          "internalType": "address",
          "name": "_addr",
          "type": "address"
        }
      ],
      "name": "showUser",
      "outputs": [
        {
          "internalType": "uint256",
          "name": "",
          "type": "uint256"
        },
        {
          "internalType": "string",
          "name": "",
          "type": "string"
        },
        {
          "internalType": "string",
          "name": "",
          "type": "string"
        },
        {
          "internalType": "uint256",
          "name": "",
          "type": "uint256"
        },
        {
          "internalType": "string",
          "name": "",
          "type": "string"
        },
        {
          "internalType": "uint256",
          "name": "",
          "type": "uint256"
        },
        {
          "internalType": "uint256",
          "name": "",
          "type": "uint256"
        }
      ],
      "stateMutability": "view",
      "type": "function",
      "constant": true
    },
    {
      "inputs": [
        {
          "internalType": "uint256",
          "name": "_li",
          "type": "uint256"
        },
        {
          "internalType": "string",
          "name": "_cname",
          "type": "string"
        },
        {
          "internalType": "string",
          "name": "_clocation",
          "type": "string"
        },
        {
          "internalType": "address",
          "name": "_cadd",
          "type": "address"
        }
      ],
      "name": "addcom",
      "outputs": [],
      "stateMutability": "nonpayable",
      "type": "function"
    },
    {
      "inputs": [
        {
          "internalType": "address",
          "name": "_add",
          "type": "address"
        }
      ],
      "name": "checkCompany",
      "outputs": [
        {
          "internalType": "uint256",
          "name": "",
          "type": "uint256"
        }
      ],
      "stateMutability": "view",
      "type": "function",
      "constant": true
    },
    {
      "inputs": [
        {
          "internalType": "address",
          "name": "_cadd",
          "type": "address"
        }
      ],
      "name": "showcom",
      "outputs": [
        {
          "internalType": "uint256",
          "name": "",
          "type": "uint256"
        },
        {
          "internalType": "string",
          "name": "",
          "type": "string"
        },
        {
          "internalType": "string",
          "name": "",
          "type": "string"
        },
        {
          "internalType": "uint256",
          "name": "",
          "type": "uint256"
        }
      ],
      "stateMutability": "view",
      "type": "function",
      "constant": true
    },
    {
      "inputs": [
        {
          "internalType": "uint256",
          "name": "_pid",
          "type": "uint256"
        },
        {
          "internalType": "string",
          "name": "_pname",
          "type": "string"
        },
        {
          "internalType": "uint256",
          "name": "_premium",
          "type": "uint256"
        },
        {
          "internalType": "uint256",
          "name": "_myear",
          "type": "uint256"
        },
        {
          "internalType": "uint256",
          "name": "_reimburse",
          "type": "uint256"
        },
        {
          "internalType": "address",
          "name": "_cadd",
          "type": "address"
        }
      ],
      "name": "addPolicy",
      "outputs": [],
      "stateMutability": "nonpayable",
      "type": "function"
    },
    {
      "inputs": [
        {
          "internalType": "uint256",
          "name": "_pid",
          "type": "uint256"
        }
      ],
      "name": "checkPolicy",
      "outputs": [
        {
          "internalType": "uint256",
          "name": "",
          "type": "uint256"
        }
      ],
      "stateMutability": "view",
      "type": "function",
      "constant": true
    },
    {
      "inputs": [
        {
          "internalType": "uint256",
          "name": "_id",
          "type": "uint256"
        }
      ],
      "name": "showIns",
      "outputs": [
        {
          "internalType": "uint256",
          "name": "",
          "type": "uint256"
        },
        {
          "internalType": "string",
          "name": "",
          "type": "string"
        },
        {
          "internalType": "uint256",
          "name": "",
          "type": "uint256"
        },
        {
          "internalType": "uint256",
          "name": "",
          "type": "uint256"
        },
        {
          "internalType": "uint256",
          "name": "",
          "type": "uint256"
        },
        {
          "internalType": "string",
          "name": "",
          "type": "string"
        },
        {
          "internalType": "address",
          "name": "",
          "type": "address"
        }
      ],
      "stateMutability": "view",
      "type": "function",
      "constant": true
    },
    {
      "inputs": [],
      "name": "getPolicySize",
      "outputs": [
        {
          "internalType": "uint256",
          "name": "",
          "type": "uint256"
        }
      ],
      "stateMutability": "view",
      "type": "function",
      "constant": true
    },
    {
      "inputs": [
        {
          "internalType": "uint256",
          "name": "_i",
          "type": "uint256"
        }
      ],
      "name": "getPolicyByIndex",
      "outputs": [
        {
          "internalType": "uint256",
          "name": "",
          "type": "uint256"
        },
        {
          "internalType": "string",
          "name": "",
          "type": "string"
        },
        {
          "internalType": "uint256",
          "name": "",
          "type": "uint256"
        },
        {
          "internalType": "uint256",
          "name": "",
          "type": "uint256"
        },
        {
          "internalType": "uint256",
          "name": "",
          "type": "uint256"
        },
        {
          "internalType": "string",
          "name": "",
          "type": "string"
        },
        {
          "internalType": "address",
          "name": "",
          "type": "address"
        }
      ],
      "stateMutability": "view",
      "type": "function",
      "constant": true
    }
  ],
  "bytecode": "0x608060405260008055600060015534801561001957600080fd5b50612198806100296000396000f3fe608060405234801561001057600080fd5b50600436106100cf5760003560e01c80636787db891161008c578063736436a111610066578063736436a11461024d578063aca6bef714610269578063b77553b614610299578063ecc0f871146102c9576100cf565b80636787db89146101e05780636dd3f5fe146101fc5780636ff96c7c1461022f576100cf565b806312742b81146100d45780631e9d48cf1461010a5780632e8679781461013a578063517fe4de146101705780635fe73f3f146101a657806364813458146101c4575b600080fd5b6100ee60048036038101906100e99190611762565b6102e7565b604051610101979695949392919061186f565b60405180910390f35b610124600480360381019061011f9190611918565b61054d565b6040516101319190611945565b60405180910390f35b610154600480360381019061014f9190611762565b61069f565b604051610167979695949392919061186f565b60405180910390f35b61018a60048036038101906101859190611918565b61089c565b60405161019d9796959493929190611960565b60405180910390f35b6101ae610c37565b6040516101bb9190611945565b60405180910390f35b6101de60048036038101906101d99190611b19565b610c3d565b005b6101fa60048036038101906101f59190611bb8565b610e1b565b005b61021660048036038101906102119190611918565b611062565b6040516102269493929190611cae565b60405180910390f35b61023761129a565b6040516102449190611945565b60405180910390f35b61026760048036038101906102629190611d01565b6112a0565b005b610283600480360381019061027e9190611762565b61154f565b6040516102909190611945565b60405180910390f35b6102b360048036038101906102ae9190611918565b6115b4565b6040516102c09190611945565b60405180910390f35b6102d1611706565b6040516102de9190611945565b60405180910390f35b600060606000806000606060006007888154811061030857610307611daa565b5b9060005260206000209060070201600001546007898154811061032e5761032d611daa565b5b906000526020600020906007020160010160078a8154811061035357610352611daa565b5b90600052602060002090600702016002015460078b8154811061037957610378611daa565b5b90600052602060002090600702016003015460078c8154811061039f5761039e611daa565b5b90600052602060002090600702016004015460078d815481106103c5576103c4611daa565b5b906000526020600020906007020160050160078e815481106103ea576103e9611daa565b5b906000526020600020906007020160060160009054906101000a900473ffffffffffffffffffffffffffffffffffffffff1685805461042890611e08565b80601f016020809104026020016040519081016040528092919081815260200182805461045490611e08565b80156104a15780601f10610476576101008083540402835291602001916104a1565b820191906000526020600020905b81548152906001019060200180831161048457829003601f168201915b505050505095508180546104b490611e08565b80601f01602080910402602001604051908101604052809291908181526020018280546104e090611e08565b801561052d5780601f106105025761010080835404028352916020019161052d565b820191906000526020600020905b81548152906001019060200180831161051057829003601f168201915b505050505091509650965096509650965096509650919395979092949650565b6000806000905060005b6005805490508110156105f4578373ffffffffffffffffffffffffffffffffffffffff166005828154811061058f5761058e611daa565b5b906000526020600020906008020160060160009054906101000a900473ffffffffffffffffffffffffffffffffffffffff1673ffffffffffffffffffffffffffffffffffffffff16036105e157600191505b80806105ec90611e68565b915050610557565b5060005b600680549050811015610695578373ffffffffffffffffffffffffffffffffffffffff16600682815481106106305761062f611daa565b5b906000526020600020906005020160030160009054906101000a900473ffffffffffffffffffffffffffffffffffffffff1673ffffffffffffffffffffffffffffffffffffffff160361068257600291505b808061068d90611e68565b9150506105f8565b5080915050919050565b600060606000806000606060006004600089815260200190815260200160002060000154600460008a8152602001908152602001600020600101600460008b815260200190815260200160002060020154600460008c815260200190815260200160002060030154600460008d815260200190815260200160002060040154600460008e8152602001908152602001600020600501600460008f815260200190815260200160002060060160009054906101000a900473ffffffffffffffffffffffffffffffffffffffff1685805461077790611e08565b80601f01602080910402602001604051908101604052809291908181526020018280546107a390611e08565b80156107f05780601f106107c5576101008083540402835291602001916107f0565b820191906000526020600020905b8154815290600101906020018083116107d357829003601f168201915b5050505050955081805461080390611e08565b80601f016020809104026020016040519081016040528092919081815260200182805461082f90611e08565b801561087c5780601f106108515761010080835404028352916020019161087c565b820191906000526020600020905b81548152906001019060200180831161085f57829003601f168201915b505050505091509650965096509650965096509650919395979092949650565b600060608060006060600080600360008973ffffffffffffffffffffffffffffffffffffffff1673ffffffffffffffffffffffffffffffffffffffff16815260200190815260200160002060000154600360008a73ffffffffffffffffffffffffffffffffffffffff1673ffffffffffffffffffffffffffffffffffffffff168152602001908152602001600020600101600360008b73ffffffffffffffffffffffffffffffffffffffff1673ffffffffffffffffffffffffffffffffffffffff168152602001908152602001600020600201600360008c73ffffffffffffffffffffffffffffffffffffffff1673ffffffffffffffffffffffffffffffffffffffff16815260200190815260200160002060030154600360008d73ffffffffffffffffffffffffffffffffffffffff1673ffffffffffffffffffffffffffffffffffffffff168152602001908152602001600020600401600360008e73ffffffffffffffffffffffffffffffffffffffff1673ffffffffffffffffffffffffffffffffffffffff16815260200190815260200160002060050154600360008f73ffffffffffffffffffffffffffffffffffffffff1673ffffffffffffffffffffffffffffffffffffffff16815260200190815260200160002060070154858054610a8690611e08565b80601f0160208091040260200160405190810160405280929190818152602001828054610ab290611e08565b8015610aff5780601f10610ad457610100808354040283529160200191610aff565b820191906000526020600020905b815481529060010190602001808311610ae257829003601f168201915b50505050509550848054610b1290611e08565b80601f0160208091040260200160405190810160405280929190818152602001828054610b3e90611e08565b8015610b8b5780601f10610b6057610100808354040283529160200191610b8b565b820191906000526020600020905b815481529060010190602001808311610b6e57829003601f168201915b50505050509450828054610b9e90611e08565b80601f0160208091040260200160405190810160405280929190818152602001828054610bca90611e08565b8015610c175780601f10610bec57610100808354040283529160200191610c17565b820191906000526020600020905b815481529060010190602001808311610bfa57829003601f168201915b505050505092509650965096509650965096509650919395979092949650565b60015481565b6001600054610c4c9190611eb0565b60008190555060006040518060a001604052808681526020018581526020018481526020018373ffffffffffffffffffffffffffffffffffffffff16815260200160005481525090506006819080600181540180825580915050600190039060005260206000209060050201600090919091909150600082015181600001556020820151816001019081610ce09190612090565b506040820151816002019081610cf69190612090565b5060608201518160030160006101000a81548173ffffffffffffffffffffffffffffffffffffffff021916908373ffffffffffffffffffffffffffffffffffffffff16021790555060808201518160040155505080600260008473ffffffffffffffffffffffffffffffffffffffff1673ffffffffffffffffffffffffffffffffffffffff168152602001908152602001600020600082015181600001556020820151816001019081610da99190612090565b506040820151816002019081610dbf9190612090565b5060608201518160030160006101000a81548173ffffffffffffffffffffffffffffffffffffffff021916908373ffffffffffffffffffffffffffffffffffffffff160217905550608082015181600401559050505050505050565b60018054610e299190611eb0565b60018190555060006040518061010001604052808981526020018881526020018781526020018681526020018581526020018481526020018373ffffffffffffffffffffffffffffffffffffffff16815260200160015481525090506005819080600181540180825580915050600190039060005260206000209060080201600090919091909150600082015181600001556020820151816001019081610ed09190612090565b506040820151816002019081610ee69190612090565b50606082015181600301556080820151816004019081610f069190612090565b5060a0820151816005015560c08201518160060160006101000a81548173ffffffffffffffffffffffffffffffffffffffff021916908373ffffffffffffffffffffffffffffffffffffffff16021790555060e08201518160070155505080600360008473ffffffffffffffffffffffffffffffffffffffff1673ffffffffffffffffffffffffffffffffffffffff168152602001908152602001600020600082015181600001556020820151816001019081610fc39190612090565b506040820151816002019081610fd99190612090565b50606082015181600301556080820151816004019081610ff99190612090565b5060a0820151816005015560c08201518160060160006101000a81548173ffffffffffffffffffffffffffffffffffffffff021916908373ffffffffffffffffffffffffffffffffffffffff16021790555060e082015181600701559050505050505050505050565b60006060806000600260008673ffffffffffffffffffffffffffffffffffffffff1673ffffffffffffffffffffffffffffffffffffffff16815260200190815260200160002060000154600260008773ffffffffffffffffffffffffffffffffffffffff1673ffffffffffffffffffffffffffffffffffffffff168152602001908152602001600020600101600260008873ffffffffffffffffffffffffffffffffffffffff1673ffffffffffffffffffffffffffffffffffffffff168152602001908152602001600020600201600260008973ffffffffffffffffffffffffffffffffffffffff1673ffffffffffffffffffffffffffffffffffffffff1681526020019081526020016000206004015482805461117f90611e08565b80601f01602080910402602001604051908101604052809291908181526020018280546111ab90611e08565b80156111f85780601f106111cd576101008083540402835291602001916111f8565b820191906000526020600020905b8154815290600101906020018083116111db57829003601f168201915b5050505050925081805461120b90611e08565b80601f016020809104026020016040519081016040528092919081815260200182805461123790611e08565b80156112845780601f1061125957610100808354040283529160200191611284565b820191906000526020600020905b81548152906001019060200180831161126757829003601f168201915b5050505050915093509350935093509193509193565b60005481565b600180546112ae9190611eb0565b60018190555060006040518060e00160405280888152602001878152602001868152602001858152602001848152602001600260008573ffffffffffffffffffffffffffffffffffffffff1673ffffffffffffffffffffffffffffffffffffffff168152602001908152602001600020600101805461132c90611e08565b80601f016020809104026020016040519081016040528092919081815260200182805461135890611e08565b80156113a55780601f1061137a576101008083540402835291602001916113a5565b820191906000526020600020905b81548152906001019060200180831161138857829003601f168201915b505050505081526020018373ffffffffffffffffffffffffffffffffffffffff16815250905060078190806001815401808255809150506001900390600052602060002090600702016000909190919091506000820151816000015560208201518160010190816114169190612090565b5060408201518160020155606082015181600301556080820151816004015560a082015181600501908161144a9190612090565b5060c08201518160060160006101000a81548173ffffffffffffffffffffffffffffffffffffffff021916908373ffffffffffffffffffffffffffffffffffffffff160217905550505080600460008981526020019081526020016000206000820151816000015560208201518160010190816114c79190612090565b5060408201518160020155606082015181600301556080820151816004015560a08201518160050190816114fb9190612090565b5060c08201518160060160006101000a81548173ffffffffffffffffffffffffffffffffffffffff021916908373ffffffffffffffffffffffffffffffffffffffff16021790555090505050505050505050565b6000806000905060005b6007805490508110156115aa57836007828154811061157b5761157a611daa565b5b9060005260206000209060070201600001540361159757600191505b80806115a290611e68565b915050611559565b5080915050919050565b6000806000905060005b60068054905081101561165b578373ffffffffffffffffffffffffffffffffffffffff16600682815481106115f6576115f5611daa565b5b906000526020600020906005020160030160009054906101000a900473ffffffffffffffffffffffffffffffffffffffff1673ffffffffffffffffffffffffffffffffffffffff160361164857600191505b808061165390611e68565b9150506115be565b5060005b6005805490508110156116fc578373ffffffffffffffffffffffffffffffffffffffff166005828154811061169757611696611daa565b5b906000526020600020906008020160060160009054906101000a900473ffffffffffffffffffffffffffffffffffffffff1673ffffffffffffffffffffffffffffffffffffffff16036116e957600291505b80806116f490611e68565b91505061165f565b5080915050919050565b60008060078054905090508091505090565b6000604051905090565b600080fd5b600080fd5b6000819050919050565b61173f8161172c565b811461174a57600080fd5b50565b60008135905061175c81611736565b92915050565b60006020828403121561177857611777611722565b5b60006117868482850161174d565b91505092915050565b6117988161172c565b82525050565b600081519050919050565b600082825260208201905092915050565b60005b838110156117d85780820151818401526020810190506117bd565b60008484015250505050565b6000601f19601f8301169050919050565b60006118008261179e565b61180a81856117a9565b935061181a8185602086016117ba565b611823816117e4565b840191505092915050565b600073ffffffffffffffffffffffffffffffffffffffff82169050919050565b60006118598261182e565b9050919050565b6118698161184e565b82525050565b600060e082019050611884600083018a61178f565b818103602083015261189681896117f5565b90506118a5604083018861178f565b6118b2606083018761178f565b6118bf608083018661178f565b81810360a08301526118d181856117f5565b90506118e060c0830184611860565b98975050505050505050565b6118f58161184e565b811461190057600080fd5b50565b600081359050611912816118ec565b92915050565b60006020828403121561192e5761192d611722565b5b600061193c84828501611903565b91505092915050565b600060208201905061195a600083018461178f565b92915050565b600060e082019050611975600083018a61178f565b818103602083015261198781896117f5565b9050818103604083015261199b81886117f5565b90506119aa606083018761178f565b81810360808301526119bc81866117f5565b90506119cb60a083018561178f565b6119d860c083018461178f565b98975050505050505050565b600080fd5b600080fd5b7f4e487b7100000000000000000000000000000000000000000000000000000000600052604160045260246000fd5b611a26826117e4565b810181811067ffffffffffffffff82111715611a4557611a446119ee565b5b80604052505050565b6000611a58611718565b9050611a648282611a1d565b919050565b600067ffffffffffffffff821115611a8457611a836119ee565b5b611a8d826117e4565b9050602081019050919050565b82818337600083830152505050565b6000611abc611ab784611a69565b611a4e565b905082815260208101848484011115611ad857611ad76119e9565b5b611ae3848285611a9a565b509392505050565b600082601f830112611b0057611aff6119e4565b5b8135611b10848260208601611aa9565b91505092915050565b60008060008060808587031215611b3357611b32611722565b5b6000611b418782880161174d565b945050602085013567ffffffffffffffff811115611b6257611b61611727565b5b611b6e87828801611aeb565b935050604085013567ffffffffffffffff811115611b8f57611b8e611727565b5b611b9b87828801611aeb565b9250506060611bac87828801611903565b91505092959194509250565b600080600080600080600060e0888a031215611bd757611bd6611722565b5b6000611be58a828b0161174d565b975050602088013567ffffffffffffffff811115611c0657611c05611727565b5b611c128a828b01611aeb565b965050604088013567ffffffffffffffff811115611c3357611c32611727565b5b611c3f8a828b01611aeb565b9550506060611c508a828b0161174d565b945050608088013567ffffffffffffffff811115611c7157611c70611727565b5b611c7d8a828b01611aeb565b93505060a0611c8e8a828b0161174d565b92505060c0611c9f8a828b01611903565b91505092959891949750929550565b6000608082019050611cc3600083018761178f565b8181036020830152611cd581866117f5565b90508181036040830152611ce981856117f5565b9050611cf8606083018461178f565b95945050505050565b60008060008060008060c08789031215611d1e57611d1d611722565b5b6000611d2c89828a0161174d565b965050602087013567ffffffffffffffff811115611d4d57611d4c611727565b5b611d5989828a01611aeb565b9550506040611d6a89828a0161174d565b9450506060611d7b89828a0161174d565b9350506080611d8c89828a0161174d565b92505060a0611d9d89828a01611903565b9150509295509295509295565b7f4e487b7100000000000000000000000000000000000000000000000000000000600052603260045260246000fd5b7f4e487b7100000000000000000000000000000000000000000000000000000000600052602260045260246000fd5b60006002820490506001821680611e2057607f821691505b602082108103611e3357611e32611dd9565b5b50919050565b7f4e487b7100000000000000000000000000000000000000000000000000000000600052601160045260246000fd5b6000611e738261172c565b91507fffffffffffffffffffffffffffffffffffffffffffffffffffffffffffffffff8203611ea557611ea4611e39565b5b600182019050919050565b6000611ebb8261172c565b9150611ec68361172c565b9250828201905080821115611ede57611edd611e39565b5b92915050565b60008190508160005260206000209050919050565b60006020601f8301049050919050565b600082821b905092915050565b600060088302611f467fffffffffffffffffffffffffffffffffffffffffffffffffffffffffffffffff82611f09565b611f508683611f09565b95508019841693508086168417925050509392505050565b6000819050919050565b6000611f8d611f88611f838461172c565b611f68565b61172c565b9050919050565b6000819050919050565b611fa783611f72565b611fbb611fb382611f94565b848454611f16565b825550505050565b600090565b611fd0611fc3565b611fdb818484611f9e565b505050565b5b81811015611fff57611ff4600082611fc8565b600181019050611fe1565b5050565b601f8211156120445761201581611ee4565b61201e84611ef9565b8101602085101561202d578190505b61204161203985611ef9565b830182611fe0565b50505b505050565b600082821c905092915050565b600061206760001984600802612049565b1980831691505092915050565b60006120808383612056565b9150826002028217905092915050565b6120998261179e565b67ffffffffffffffff8111156120b2576120b16119ee565b5b6120bc8254611e08565b6120c7828285612003565b600060209050601f8311600181146120fa57600084156120e8578287015190505b6120f28582612074565b86555061215a565b601f19841661210886611ee4565b60005b828110156121305784890151825560018201915060208501945060208101905061210b565b8683101561214d5784890151612149601f891682612056565b8355505b6001600288020188555050505b50505050505056fea2646970667358221220a60f88d22ecf5651370506c1a812b54de28f8f890ef8775bd2f442e3bb3d1bb664736f6c63430008100033",
  "immutableReferences": {},
  "source": "// SPDX-License-Identifier: MIT\n\npragma solidity ^0.8;\n\ncontract UserRegister {\n\n\n    uint public _c_id =0;\n    uint public _u_id =0;\n    //uint public _t_id=0;\n\n    // structure for User\n    struct User {\n        uint Addhaarid;\n        string name;\n        string location;\n        uint age;\n        string gender;\n        uint contact;\n        address add;\n        uint id;\n    }\n    struct Company{\n        uint lice;\n        string name;\n        string blocation;\n        address cadd;\n        uint cid;\n    }\n\n    struct Policy {\n        uint policy_id;\n        string policy_name;\n        uint premium_monthly;\n        uint ploy_year;\n        uint reimburse;\n        string company_name;\n        address company;\n    }\n    //mapping(uint=> Company) c1;\n    mapping(address => Company) c1;\n    mapping (address => User) u1;\n    mapping(uint => Policy) p1;\n\n    // Creating array of student structure\n    User[] person;\n    Company[] company;\n    Policy[] policy;\n    //mapping(uint => User) public studs;\n\n    // Function to add User into the User structure\n    function addUser(uint _aid,string memory _name, string memory _location, uint _age, string memory _gender, uint _contact, address _add ) public {\n        _u_id=_u_id+1;\n        UserRegister.User memory x = User(_aid,_name, _location, _age, _gender,_contact, _add,_u_id);\n        person.push(x);\n        u1[_add] = x;\n    }\n\n    // Function to check User who are already registered or not!!!!!\n\n    function checkUser(address _add) view public returns(uint) {\n        uint _find = 0;\n        for (uint _i = 0; _i < person.length; _i++) {\n            if (person[_i].add == _add) {\n                _find = 1;\n            }\n        }\n        for (uint _i = 0; _i < company.length; _i++) {\n            if (company[_i].cadd == _add) {\n                _find = 2;\n            }\n        }\n\n        return (_find);\n    }\n\n     // Function to show User \n\n    function showUser(address _addr) public view returns(uint, string memory,string memory, uint,string memory,uint, uint ){\n        return(u1[_addr].Addhaarid,u1[_addr].name,u1[_addr].location,u1[_addr].age,u1[_addr].gender,u1[_addr].contact,u1[_addr].id);\n    }\n\n    // Function to add company into the company structure\n\n     function addcom(uint _li,string memory _cname, string memory _clocation, address _cadd) public {\n        _c_id=_c_id+1;\n        UserRegister.Company memory c = Company(_li,_cname, _clocation, _cadd,_c_id);\n        company.push(c);\n        c1[_cadd] = c;\n    }\n\n\n    function checkCompany(address _add) view public returns(uint) {\n        uint _find = 0;\n        for (uint _i = 0; _i < company.length; _i++) {\n            if (company[_i].cadd == _add) {\n                _find = 1;\n            }\n        }\n        for (uint _i = 0; _i < person.length; _i++) {\n            if (person[_i].add == _add) {\n                _find = 2;\n            }\n        }\n\n        return (_find);\n    }\n\n\n    // Function to show company\n\n    function showcom(address _cadd) public view returns(uint, string memory,string memory,uint ){\n        return(c1[_cadd].lice,c1[_cadd].name,c1[_cadd].blocation,c1[_cadd].cid);\n    }\n\n\n\n    // function to add policy\n\n    function addPolicy(uint _pid,string memory _pname, uint _premium, uint _myear, uint _reimburse,  address _cadd ) public {\n        _u_id=_u_id+1;\n        UserRegister.Policy memory p = Policy(_pid,_pname, _premium,_myear, _reimburse,c1[_cadd].name, _cadd);\n        policy.push(p);\n        p1[_pid] = p;\n    }\n\n    // Function to check Policys  are already registered or not!!!!!\n\n    function checkPolicy(uint _pid) view public returns(uint) {\n        uint _find = 0;\n        for (uint _i = 0; _i < policy.length; _i++) {\n            if (policy[_i].policy_id == _pid) {\n                _find = 1;\n            }\n        }\n\n        return (_find);\n    }\n     // Function to show Policys  that are already registered !!!!!\n\n    function showIns(uint _id) public view returns(uint, string memory, uint, uint,uint ,string memory,address){\n        return(p1[_id].policy_id, p1[_id].policy_name, p1[_id].premium_monthly, p1[_id].ploy_year, p1[_id].reimburse, p1[_id].company_name, p1[_id].company);\n    }\n\n    function getPolicySize() public view returns(uint) {\n        uint _size;\n        _size = policy.length;\n        return (_size);\n    }\n\n    function getPolicyByIndex(uint _i) public view returns(uint, string memory, uint, uint,uint ,string memory,address) {\n        return(policy[_i].policy_id, policy[_i].policy_name, policy[_i].premium_monthly, policy[_i].ploy_year, policy[_i].reimburse, policy[_i].company_name, policy[_i].company);\n    }\n  \n}",
  "sourcePath": "/home/sai/Documents/GitHub/Blockchain_Insurance/contracts/UserRegister.sol",
  "compiler": {
    "name": "solc",
    "version": "0.8.16+commit.07a7930e.Emscripten.clang"
  },
  "schemaVersion": "3.4.9",
  "updatedAt": "2022-09-13T08:29:49.086Z",
  "networkType": "ethereum",
  "devdoc": {
    "kind": "dev",
    "methods": {},
    "version": 1
  },
  "userdoc": {
    "kind": "user",
    "methods": {},
    "version": 1
  }
}