{
  "contractName": "UserRegister",
  "abi": [
    {
      "inputs": [],
      "name": "_c_id",
      "outputs": [
        {
          "internalType": "uint256",
          "name": "",
          "type": "uint256"
        }
      ],
      "stateMutability": "view",
      "type": "function",
      "constant": true
    },
    {
      "inputs": [],
      "name": "_u_id",
      "outputs": [
        {
          "internalType": "uint256",
          "name": "",
          "type": "uint256"
        }
      ],
      "stateMutability": "view",
      "type": "function",
      "constant": true
    },
    {
      "inputs": [],
      "name": "t_id",
      "outputs": [
        {
          "internalType": "uint256",
          "name": "",
          "type": "uint256"
        }
      ],
      "stateMutability": "view",
      "type": "function",
      "constant": true
    },
    {
      "inputs": [
        {
          "internalType": "uint256",
          "name": "_aid",
          "type": "uint256"
        },
        {
          "internalType": "string",
          "name": "_name",
          "type": "string"
        },
        {
          "internalType": "string",
          "name": "_location",
          "type": "string"
        },
        {
          "internalType": "uint256",
          "name": "_age",
          "type": "uint256"
        },
        {
          "internalType": "string",
          "name": "_gender",
          "type": "string"
        },
        {
          "internalType": "uint256",
          "name": "_contact",
          "type": "uint256"
        },
        {
          "internalType": "address",
          "name": "_add",
          "type": "address"
        }
      ],
      "name": "addUser",
      "outputs": [],
      "stateMutability": "nonpayable",
      "type": "function"
    },
    {
      "inputs": [
        {
          "internalType": "address",
          "name": "_add",
          "type": "address"
        }
      ],
      "name": "checkUser",
      "outputs": [
        {
          "internalType": "uint256",
          "name": "",
          "type": "uint256"
        }
      ],
      "stateMutability": "view",
      "type": "function",
      "constant": true
    },
    {
      "inputs": [
        {
          "internalType": "address",
          "name": "_addr",
          "type": "address"
        }
      ],
      "name": "showUser",
      "outputs": [
        {
          "internalType": "uint256",
          "name": "",
          "type": "uint256"
        },
        {
          "internalType": "string",
          "name": "",
          "type": "string"
        },
        {
          "internalType": "string",
          "name": "",
          "type": "string"
        },
        {
          "internalType": "uint256",
          "name": "",
          "type": "uint256"
        },
        {
          "internalType": "string",
          "name": "",
          "type": "string"
        },
        {
          "internalType": "uint256",
          "name": "",
          "type": "uint256"
        },
        {
          "internalType": "uint256",
          "name": "",
          "type": "uint256"
        }
      ],
      "stateMutability": "view",
      "type": "function",
      "constant": true
    },
    {
      "inputs": [
        {
          "internalType": "uint256",
          "name": "_li",
          "type": "uint256"
        },
        {
          "internalType": "string",
          "name": "_cname",
          "type": "string"
        },
        {
          "internalType": "string",
          "name": "_clocation",
          "type": "string"
        },
        {
          "internalType": "address",
          "name": "_cadd",
          "type": "address"
        }
      ],
      "name": "addcom",
      "outputs": [],
      "stateMutability": "nonpayable",
      "type": "function"
    },
    {
      "inputs": [
        {
          "internalType": "address",
          "name": "_add",
          "type": "address"
        }
      ],
      "name": "checkCompany",
      "outputs": [
        {
          "internalType": "uint256",
          "name": "",
          "type": "uint256"
        }
      ],
      "stateMutability": "view",
      "type": "function",
      "constant": true
    },
    {
      "inputs": [
        {
          "internalType": "address",
          "name": "_cadd",
          "type": "address"
        }
      ],
      "name": "showcom",
      "outputs": [
        {
          "internalType": "uint256",
          "name": "",
          "type": "uint256"
        },
        {
          "internalType": "string",
          "name": "",
          "type": "string"
        },
        {
          "internalType": "string",
          "name": "",
          "type": "string"
        },
        {
          "internalType": "uint256",
          "name": "",
          "type": "uint256"
        }
      ],
      "stateMutability": "view",
      "type": "function",
      "constant": true
    },
    {
      "inputs": [
        {
          "internalType": "uint256",
          "name": "_pid",
          "type": "uint256"
        },
        {
          "internalType": "string",
          "name": "_pname",
          "type": "string"
        },
        {
          "internalType": "uint256",
          "name": "_premium",
          "type": "uint256"
        },
        {
          "internalType": "uint256",
          "name": "_myear",
          "type": "uint256"
        },
        {
          "internalType": "uint256",
          "name": "_reimburse",
          "type": "uint256"
        },
        {
          "internalType": "address",
          "name": "_cadd",
          "type": "address"
        }
      ],
      "name": "addPolicy",
      "outputs": [],
      "stateMutability": "nonpayable",
      "type": "function"
    },
    {
      "inputs": [
        {
          "internalType": "uint256",
          "name": "_pid",
          "type": "uint256"
        }
      ],
      "name": "checkPolicy",
      "outputs": [
        {
          "internalType": "uint256",
          "name": "",
          "type": "uint256"
        }
      ],
      "stateMutability": "view",
      "type": "function",
      "constant": true
    },
    {
      "inputs": [
        {
          "internalType": "uint256",
          "name": "_id",
          "type": "uint256"
        }
      ],
      "name": "showIns",
      "outputs": [
        {
          "internalType": "uint256",
          "name": "",
          "type": "uint256"
        },
        {
          "internalType": "string",
          "name": "",
          "type": "string"
        },
        {
          "internalType": "uint256",
          "name": "",
          "type": "uint256"
        },
        {
          "internalType": "uint256",
          "name": "",
          "type": "uint256"
        },
        {
          "internalType": "uint256",
          "name": "",
          "type": "uint256"
        },
        {
          "internalType": "string",
          "name": "",
          "type": "string"
        },
        {
          "internalType": "address",
          "name": "",
          "type": "address"
        },
        {
          "internalType": "uint256",
          "name": "",
          "type": "uint256"
        }
      ],
      "stateMutability": "view",
      "type": "function",
      "constant": true
    },
    {
      "inputs": [],
      "name": "getPolicySize",
      "outputs": [
        {
          "internalType": "uint256",
          "name": "",
          "type": "uint256"
        }
      ],
      "stateMutability": "view",
      "type": "function",
      "constant": true
    },
    {
      "inputs": [
        {
          "internalType": "uint256",
          "name": "_i",
          "type": "uint256"
        }
      ],
      "name": "getPolicyByIndex",
      "outputs": [
        {
          "internalType": "uint256",
          "name": "",
          "type": "uint256"
        },
        {
          "internalType": "string",
          "name": "",
          "type": "string"
        },
        {
          "internalType": "uint256",
          "name": "",
          "type": "uint256"
        },
        {
          "internalType": "uint256",
          "name": "",
          "type": "uint256"
        },
        {
          "internalType": "uint256",
          "name": "",
          "type": "uint256"
        },
        {
          "internalType": "string",
          "name": "",
          "type": "string"
        },
        {
          "internalType": "address",
          "name": "",
          "type": "address"
        }
      ],
      "stateMutability": "view",
      "type": "function",
      "constant": true
    },
    {
      "inputs": [
        {
          "internalType": "uint256",
          "name": "insid",
          "type": "uint256"
        },
        {
          "internalType": "address",
          "name": "uadd",
          "type": "address"
        }
      ],
      "name": "BuyIns",
      "outputs": [],
      "stateMutability": "payable",
      "type": "function",
      "payable": true
    }
  ],
  "bytecode": "0x6080604052600080556000600155600060025534801561001e57600080fd5b506128178061002e6000396000f3fe6080604052600436106100e85760003560e01c80636dd3f5fe1161008a578063ade93e9211610059578063ade93e9214610342578063b77553b61461035e578063ebb164591461039b578063ecc0f871146103c6576100e8565b80636dd3f5fe146102715780636ff96c7c146102b1578063736436a1146102dc578063aca6bef714610305576100e8565b8063517fe4de116100c6578063517fe4de146101b15780635fe73f3f146101f4578063648134581461021f5780636787db8914610248576100e8565b806312742b81146100ed5780631e9d48cf146101305780632e8679781461016d575b600080fd5b3480156100f957600080fd5b50610114600480360381019061010f9190611ce1565b6103f1565b6040516101279796959493929190611dee565b60405180910390f35b34801561013c57600080fd5b5061015760048036038101906101529190611e97565b610657565b6040516101649190611ec4565b60405180910390f35b34801561017957600080fd5b50610194600480360381019061018f9190611ce1565b6107a9565b6040516101a8989796959493929190611edf565b60405180910390f35b3480156101bd57600080fd5b506101d860048036038101906101d39190611e97565b6109ca565b6040516101eb9796959493929190611f6b565b60405180910390f35b34801561020057600080fd5b50610209610d65565b6040516102169190611ec4565b60405180910390f35b34801561022b57600080fd5b5061024660048036038101906102419190612124565b610d6b565b005b34801561025457600080fd5b5061026f600480360381019061026a91906121c3565b610f49565b005b34801561027d57600080fd5b5061029860048036038101906102939190611e97565b611190565b6040516102a894939291906122b9565b60405180910390f35b3480156102bd57600080fd5b506102c66113c8565b6040516102d39190611ec4565b60405180910390f35b3480156102e857600080fd5b5061030360048036038101906102fe919061230c565b6113ce565b005b34801561031157600080fd5b5061032c60048036038101906103279190611ce1565b6116da565b6040516103399190611ec4565b60405180910390f35b61035c600480360381019061035791906123b5565b61173f565b005b34801561036a57600080fd5b5061038560048036038101906103809190611e97565b611b2d565b6040516103929190611ec4565b60405180910390f35b3480156103a757600080fd5b506103b0611c7f565b6040516103bd9190611ec4565b60405180910390f35b3480156103d257600080fd5b506103db611c85565b6040516103e89190611ec4565b60405180910390f35b6000606060008060006060600060098881548110610412576104116123f5565b5b90600052602060002090600802016000015460098981548110610438576104376123f5565b5b906000526020600020906008020160010160098a8154811061045d5761045c6123f5565b5b90600052602060002090600802016002015460098b81548110610483576104826123f5565b5b90600052602060002090600802016003015460098c815481106104a9576104a86123f5565b5b90600052602060002090600802016004015460098d815481106104cf576104ce6123f5565b5b906000526020600020906008020160050160098e815481106104f4576104f36123f5565b5b906000526020600020906008020160060160009054906101000a900473ffffffffffffffffffffffffffffffffffffffff1685805461053290612453565b80601f016020809104026020016040519081016040528092919081815260200182805461055e90612453565b80156105ab5780601f10610580576101008083540402835291602001916105ab565b820191906000526020600020905b81548152906001019060200180831161058e57829003601f168201915b505050505095508180546105be90612453565b80601f01602080910402602001604051908101604052809291908181526020018280546105ea90612453565b80156106375780601f1061060c57610100808354040283529160200191610637565b820191906000526020600020905b81548152906001019060200180831161061a57829003601f168201915b505050505091509650965096509650965096509650919395979092949650565b6000806000905060005b6007805490508110156106fe578373ffffffffffffffffffffffffffffffffffffffff1660078281548110610699576106986123f5565b5b906000526020600020906008020160060160009054906101000a900473ffffffffffffffffffffffffffffffffffffffff1673ffffffffffffffffffffffffffffffffffffffff16036106eb57600191505b80806106f6906124b3565b915050610661565b5060005b60088054905081101561079f578373ffffffffffffffffffffffffffffffffffffffff166008828154811061073a576107396123f5565b5b906000526020600020906005020160030160009054906101000a900473ffffffffffffffffffffffffffffffffffffffff1673ffffffffffffffffffffffffffffffffffffffff160361078c57600291505b8080610797906124b3565b915050610702565b5080915050919050565b60006060600080600060606000806000600560008b815260200190815260200160002060405180610100016040529081600082015481526020016001820180546107f290612453565b80601f016020809104026020016040519081016040528092919081815260200182805461081e90612453565b801561086b5780601f106108405761010080835404028352916020019161086b565b820191906000526020600020905b81548152906001019060200180831161084e57829003601f168201915b505050505081526020016002820154815260200160038201548152602001600482015481526020016005820180546108a290612453565b80601f01602080910402602001604051908101604052809291908181526020018280546108ce90612453565b801561091b5780601f106108f05761010080835404028352916020019161091b565b820191906000526020600020905b8154815290600101906020018083116108fe57829003601f168201915b505050505081526020016006820160009054906101000a900473ffffffffffffffffffffffffffffffffffffffff1673ffffffffffffffffffffffffffffffffffffffff1673ffffffffffffffffffffffffffffffffffffffff1681526020016007820154815250509050806000015181602001518260400151836060015184608001518560a001518660c001518760e001519850985098509850985098509850985050919395975091939597565b600060608060006060600080600460008973ffffffffffffffffffffffffffffffffffffffff1673ffffffffffffffffffffffffffffffffffffffff16815260200190815260200160002060000154600460008a73ffffffffffffffffffffffffffffffffffffffff1673ffffffffffffffffffffffffffffffffffffffff168152602001908152602001600020600101600460008b73ffffffffffffffffffffffffffffffffffffffff1673ffffffffffffffffffffffffffffffffffffffff168152602001908152602001600020600201600460008c73ffffffffffffffffffffffffffffffffffffffff1673ffffffffffffffffffffffffffffffffffffffff16815260200190815260200160002060030154600460008d73ffffffffffffffffffffffffffffffffffffffff1673ffffffffffffffffffffffffffffffffffffffff168152602001908152602001600020600401600460008e73ffffffffffffffffffffffffffffffffffffffff1673ffffffffffffffffffffffffffffffffffffffff16815260200190815260200160002060050154600460008f73ffffffffffffffffffffffffffffffffffffffff1673ffffffffffffffffffffffffffffffffffffffff16815260200190815260200160002060070154858054610bb490612453565b80601f0160208091040260200160405190810160405280929190818152602001828054610be090612453565b8015610c2d5780601f10610c0257610100808354040283529160200191610c2d565b820191906000526020600020905b815481529060010190602001808311610c1057829003601f168201915b50505050509550848054610c4090612453565b80601f0160208091040260200160405190810160405280929190818152602001828054610c6c90612453565b8015610cb95780601f10610c8e57610100808354040283529160200191610cb9565b820191906000526020600020905b815481529060010190602001808311610c9c57829003601f168201915b50505050509450828054610ccc90612453565b80601f0160208091040260200160405190810160405280929190818152602001828054610cf890612453565b8015610d455780601f10610d1a57610100808354040283529160200191610d45565b820191906000526020600020905b815481529060010190602001808311610d2857829003601f168201915b505050505092509650965096509650965096509650919395979092949650565b60015481565b6001600054610d7a91906124fb565b60008190555060006040518060a001604052808681526020018581526020018481526020018373ffffffffffffffffffffffffffffffffffffffff16815260200160005481525090506008819080600181540180825580915050600190039060005260206000209060050201600090919091909150600082015181600001556020820151816001019081610e0e91906126db565b506040820151816002019081610e2491906126db565b5060608201518160030160006101000a81548173ffffffffffffffffffffffffffffffffffffffff021916908373ffffffffffffffffffffffffffffffffffffffff16021790555060808201518160040155505080600360008473ffffffffffffffffffffffffffffffffffffffff1673ffffffffffffffffffffffffffffffffffffffff168152602001908152602001600020600082015181600001556020820151816001019081610ed791906126db565b506040820151816002019081610eed91906126db565b5060608201518160030160006101000a81548173ffffffffffffffffffffffffffffffffffffffff021916908373ffffffffffffffffffffffffffffffffffffffff160217905550608082015181600401559050505050505050565b60018054610f5791906124fb565b60018190555060006040518061010001604052808981526020018881526020018781526020018681526020018581526020018481526020018373ffffffffffffffffffffffffffffffffffffffff16815260200160015481525090506007819080600181540180825580915050600190039060005260206000209060080201600090919091909150600082015181600001556020820151816001019081610ffe91906126db565b50604082015181600201908161101491906126db565b5060608201518160030155608082015181600401908161103491906126db565b5060a0820151816005015560c08201518160060160006101000a81548173ffffffffffffffffffffffffffffffffffffffff021916908373ffffffffffffffffffffffffffffffffffffffff16021790555060e08201518160070155505080600460008473ffffffffffffffffffffffffffffffffffffffff1673ffffffffffffffffffffffffffffffffffffffff1681526020019081526020016000206000820151816000015560208201518160010190816110f191906126db565b50604082015181600201908161110791906126db565b5060608201518160030155608082015181600401908161112791906126db565b5060a0820151816005015560c08201518160060160006101000a81548173ffffffffffffffffffffffffffffffffffffffff021916908373ffffffffffffffffffffffffffffffffffffffff16021790555060e082015181600701559050505050505050505050565b60006060806000600360008673ffffffffffffffffffffffffffffffffffffffff1673ffffffffffffffffffffffffffffffffffffffff16815260200190815260200160002060000154600360008773ffffffffffffffffffffffffffffffffffffffff1673ffffffffffffffffffffffffffffffffffffffff168152602001908152602001600020600101600360008873ffffffffffffffffffffffffffffffffffffffff1673ffffffffffffffffffffffffffffffffffffffff168152602001908152602001600020600201600360008973ffffffffffffffffffffffffffffffffffffffff1673ffffffffffffffffffffffffffffffffffffffff168152602001908152602001600020600401548280546112ad90612453565b80601f01602080910402602001604051908101604052809291908181526020018280546112d990612453565b80156113265780601f106112fb57610100808354040283529160200191611326565b820191906000526020600020905b81548152906001019060200180831161130957829003601f168201915b5050505050925081805461133990612453565b80601f016020809104026020016040519081016040528092919081815260200182805461136590612453565b80156113b25780601f10611387576101008083540402835291602001916113b2565b820191906000526020600020905b81548152906001019060200180831161139557829003601f168201915b5050505050915093509350935093509193509193565b60005481565b600180546113dc91906124fb565b6001819055506000604051806101000160405280888152602001878152602001868152602001858152602001848152602001600360008573ffffffffffffffffffffffffffffffffffffffff1673ffffffffffffffffffffffffffffffffffffffff168152602001908152602001600020600101805461145b90612453565b80601f016020809104026020016040519081016040528092919081815260200182805461148790612453565b80156114d45780601f106114a9576101008083540402835291602001916114d4565b820191906000526020600020905b8154815290600101906020018083116114b757829003601f168201915b505050505081526020018373ffffffffffffffffffffffffffffffffffffffff168152602001600360008573ffffffffffffffffffffffffffffffffffffffff1673ffffffffffffffffffffffffffffffffffffffff168152602001908152602001600020600401548152509050600981908060018154018082558091505060019003906000526020600020906008020160009091909190915060008201518160000155602082015181600101908161158d91906126db565b5060408201518160020155606082015181600301556080820151816004015560a08201518160050190816115c191906126db565b5060c08201518160060160006101000a81548173ffffffffffffffffffffffffffffffffffffffff021916908373ffffffffffffffffffffffffffffffffffffffff16021790555060e082015181600701555050806005600089815260200190815260200160002060008201518160000155602082015181600101908161164891906126db565b5060408201518160020155606082015181600301556080820151816004015560a082015181600501908161167c91906126db565b5060c08201518160060160006101000a81548173ffffffffffffffffffffffffffffffffffffffff021916908373ffffffffffffffffffffffffffffffffffffffff16021790555060e0820151816007015590505050505050505050565b6000806000905060005b600980549050811015611735578360098281548110611706576117056123f5565b5b9060005260206000209060080201600001540361172257600191505b808061172d906124b3565b9150506116e4565b5080915050919050565b600160025461174e91906124fb565b600281905550600081905060008173ffffffffffffffffffffffffffffffffffffffff1631905060006005600086815260200190815260200160002060060160009054906101000a900473ffffffffffffffffffffffffffffffffffffffff1690506000600560008781526020019081526020016000206002015490508083106118285780836117de91906127ad565b92508173ffffffffffffffffffffffffffffffffffffffff166108fc829081150290604051600060405180830381858888f19350505050158015611826573d6000803e3d6000fd5b505b60006040518060e00160405280600460008973ffffffffffffffffffffffffffffffffffffffff1673ffffffffffffffffffffffffffffffffffffffff168152602001908152602001600020600001548152602001600460008973ffffffffffffffffffffffffffffffffffffffff1673ffffffffffffffffffffffffffffffffffffffff168152602001908152602001600020600701548152602001888152602001600560008a8152602001908152602001600020600701548152602001600560008a815260200190815260200160002060060160009054906101000a900473ffffffffffffffffffffffffffffffffffffffff1673ffffffffffffffffffffffffffffffffffffffff1681526020018773ffffffffffffffffffffffffffffffffffffffff1681526020016002548152509050600a8190806001815401808255809150506001900390600052602060002090600702016000909190919091506000820151816000015560208201518160010155604082015181600201556060820151816003015560808201518160040160006101000a81548173ffffffffffffffffffffffffffffffffffffffff021916908373ffffffffffffffffffffffffffffffffffffffff16021790555060a08201518160050160006101000a81548173ffffffffffffffffffffffffffffffffffffffff021916908373ffffffffffffffffffffffffffffffffffffffff16021790555060c082015181600601555050806006600060025481526020019081526020016000206000820151816000015560208201518160010155604082015181600201556060820151816003015560808201518160040160006101000a81548173ffffffffffffffffffffffffffffffffffffffff021916908373ffffffffffffffffffffffffffffffffffffffff16021790555060a08201518160050160006101000a81548173ffffffffffffffffffffffffffffffffffffffff021916908373ffffffffffffffffffffffffffffffffffffffff16021790555060c0820151816006015590505050505050505050565b6000806000905060005b600880549050811015611bd4578373ffffffffffffffffffffffffffffffffffffffff1660088281548110611b6f57611b6e6123f5565b5b906000526020600020906005020160030160009054906101000a900473ffffffffffffffffffffffffffffffffffffffff1673ffffffffffffffffffffffffffffffffffffffff1603611bc157600191505b8080611bcc906124b3565b915050611b37565b5060005b600780549050811015611c75578373ffffffffffffffffffffffffffffffffffffffff1660078281548110611c1057611c0f6123f5565b5b906000526020600020906008020160060160009054906101000a900473ffffffffffffffffffffffffffffffffffffffff1673ffffffffffffffffffffffffffffffffffffffff1603611c6257600291505b8080611c6d906124b3565b915050611bd8565b5080915050919050565b60025481565b60008060098054905090508091505090565b6000604051905090565b600080fd5b600080fd5b6000819050919050565b611cbe81611cab565b8114611cc957600080fd5b50565b600081359050611cdb81611cb5565b92915050565b600060208284031215611cf757611cf6611ca1565b5b6000611d0584828501611ccc565b91505092915050565b611d1781611cab565b82525050565b600081519050919050565b600082825260208201905092915050565b60005b83811015611d57578082015181840152602081019050611d3c565b60008484015250505050565b6000601f19601f8301169050919050565b6000611d7f82611d1d565b611d898185611d28565b9350611d99818560208601611d39565b611da281611d63565b840191505092915050565b600073ffffffffffffffffffffffffffffffffffffffff82169050919050565b6000611dd882611dad565b9050919050565b611de881611dcd565b82525050565b600060e082019050611e03600083018a611d0e565b8181036020830152611e158189611d74565b9050611e246040830188611d0e565b611e316060830187611d0e565b611e3e6080830186611d0e565b81810360a0830152611e508185611d74565b9050611e5f60c0830184611ddf565b98975050505050505050565b611e7481611dcd565b8114611e7f57600080fd5b50565b600081359050611e9181611e6b565b92915050565b600060208284031215611ead57611eac611ca1565b5b6000611ebb84828501611e82565b91505092915050565b6000602082019050611ed96000830184611d0e565b92915050565b600061010082019050611ef5600083018b611d0e565b8181036020830152611f07818a611d74565b9050611f166040830189611d0e565b611f236060830188611d0e565b611f306080830187611d0e565b81810360a0830152611f428186611d74565b9050611f5160c0830185611ddf565b611f5e60e0830184611d0e565b9998505050505050505050565b600060e082019050611f80600083018a611d0e565b8181036020830152611f928189611d74565b90508181036040830152611fa68188611d74565b9050611fb56060830187611d0e565b8181036080830152611fc78186611d74565b9050611fd660a0830185611d0e565b611fe360c0830184611d0e565b98975050505050505050565b600080fd5b600080fd5b7f4e487b7100000000000000000000000000000000000000000000000000000000600052604160045260246000fd5b61203182611d63565b810181811067ffffffffffffffff821117156120505761204f611ff9565b5b80604052505050565b6000612063611c97565b905061206f8282612028565b919050565b600067ffffffffffffffff82111561208f5761208e611ff9565b5b61209882611d63565b9050602081019050919050565b82818337600083830152505050565b60006120c76120c284612074565b612059565b9050828152602081018484840111156120e3576120e2611ff4565b5b6120ee8482856120a5565b509392505050565b600082601f83011261210b5761210a611fef565b5b813561211b8482602086016120b4565b91505092915050565b6000806000806080858703121561213e5761213d611ca1565b5b600061214c87828801611ccc565b945050602085013567ffffffffffffffff81111561216d5761216c611ca6565b5b612179878288016120f6565b935050604085013567ffffffffffffffff81111561219a57612199611ca6565b5b6121a6878288016120f6565b92505060606121b787828801611e82565b91505092959194509250565b600080600080600080600060e0888a0312156121e2576121e1611ca1565b5b60006121f08a828b01611ccc565b975050602088013567ffffffffffffffff81111561221157612210611ca6565b5b61221d8a828b016120f6565b965050604088013567ffffffffffffffff81111561223e5761223d611ca6565b5b61224a8a828b016120f6565b955050606061225b8a828b01611ccc565b945050608088013567ffffffffffffffff81111561227c5761227b611ca6565b5b6122888a828b016120f6565b93505060a06122998a828b01611ccc565b92505060c06122aa8a828b01611e82565b91505092959891949750929550565b60006080820190506122ce6000830187611d0e565b81810360208301526122e08186611d74565b905081810360408301526122f48185611d74565b90506123036060830184611d0e565b95945050505050565b60008060008060008060c0878903121561232957612328611ca1565b5b600061233789828a01611ccc565b965050602087013567ffffffffffffffff81111561235857612357611ca6565b5b61236489828a016120f6565b955050604061237589828a01611ccc565b945050606061238689828a01611ccc565b935050608061239789828a01611ccc565b92505060a06123a889828a01611e82565b9150509295509295509295565b600080604083850312156123cc576123cb611ca1565b5b60006123da85828601611ccc565b92505060206123eb85828601611e82565b9150509250929050565b7f4e487b7100000000000000000000000000000000000000000000000000000000600052603260045260246000fd5b7f4e487b7100000000000000000000000000000000000000000000000000000000600052602260045260246000fd5b6000600282049050600182168061246b57607f821691505b60208210810361247e5761247d612424565b5b50919050565b7f4e487b7100000000000000000000000000000000000000000000000000000000600052601160045260246000fd5b60006124be82611cab565b91507fffffffffffffffffffffffffffffffffffffffffffffffffffffffffffffffff82036124f0576124ef612484565b5b600182019050919050565b600061250682611cab565b915061251183611cab565b925082820190508082111561252957612528612484565b5b92915050565b60008190508160005260206000209050919050565b60006020601f8301049050919050565b600082821b905092915050565b6000600883026125917fffffffffffffffffffffffffffffffffffffffffffffffffffffffffffffffff82612554565b61259b8683612554565b95508019841693508086168417925050509392505050565b6000819050919050565b60006125d86125d36125ce84611cab565b6125b3565b611cab565b9050919050565b6000819050919050565b6125f2836125bd565b6126066125fe826125df565b848454612561565b825550505050565b600090565b61261b61260e565b6126268184846125e9565b505050565b5b8181101561264a5761263f600082612613565b60018101905061262c565b5050565b601f82111561268f576126608161252f565b61266984612544565b81016020851015612678578190505b61268c61268485612544565b83018261262b565b50505b505050565b600082821c905092915050565b60006126b260001984600802612694565b1980831691505092915050565b60006126cb83836126a1565b9150826002028217905092915050565b6126e482611d1d565b67ffffffffffffffff8111156126fd576126fc611ff9565b5b6127078254612453565b61271282828561264e565b600060209050601f8311600181146127455760008415612733578287015190505b61273d85826126bf565b8655506127a5565b601f1984166127538661252f565b60005b8281101561277b57848901518255600182019150602085019450602081019050612756565b868310156127985784890151612794601f8916826126a1565b8355505b6001600288020188555050505b505050505050565b60006127b882611cab565b91506127c383611cab565b92508282039050818111156127db576127da612484565b5b9291505056fea26469706673582212206a0bc9d084c634e0b8097deaa195c7c746c57db3654e093d08a55ececb37383864736f6c63430008100033",
  "immutableReferences": {},
  "source": "// SPDX-License-Identifier: MIT\n\npragma solidity ^0.8;\n\ncontract UserRegister {\n\n\n    uint public _c_id =0;\n    uint public _u_id =0;\n    uint public t_id=0;\n    //uint public _t_id=0;\n\n    // structure for User\n    struct User {\n        uint Addhaarid;\n        string name;\n        string location;\n        uint age;\n        string gender;\n        uint contact;\n        address add;\n        uint id;\n    }\n    struct Company{\n        uint lice;\n        string name;\n        string blocation;\n        address cadd;\n        uint cid;\n    }\n\n    struct Policy {\n        uint policy_id;\n        string policy_name;\n        uint premium_monthly;\n        uint ploy_year;\n        uint reimburse;\n        string company_name;\n        address company_add;\n        uint i_cid;\n    }\n    struct Track_Insu{\n        uint Adhr_tid;\n        uint usr_id;\n        uint ins_id;\n        uint com_id;\n        address uadd;\n        address cadd;\n        uint tid;\n    }\n\n    //mapping(uint=> Company) c1;\n    mapping(address => Company) c1;\n    mapping (address => User) u1;\n    mapping(uint => Policy) p1;\n    mapping (uint =>Track_Insu) t1;\n    // Creating array of student structure\n    User[] person;\n    Company[] company;\n    Policy[] policy;\n    Track_Insu[] trackins;\n    //mapping(uint => User) public studs;\n\n    // Function to add User into the User structure\n    function addUser(uint _aid,string memory _name, string memory _location, uint _age, string memory _gender, uint _contact, address _add ) public {\n        _u_id=_u_id+1;\n        UserRegister.User memory x = User(_aid,_name, _location, _age, _gender,_contact, _add,_u_id);\n        person.push(x);\n        u1[_add] = x;\n    }\n\n    // Function to check User who are already registered or not!!!!!\n\n    function checkUser(address _add) view public returns(uint) {\n        uint _find = 0;\n        for (uint _i = 0; _i < person.length; _i++) {\n            if (person[_i].add == _add) {\n                _find = 1;\n            }\n        }\n        for (uint _i = 0; _i < company.length; _i++) {\n            if (company[_i].cadd == _add) {\n                _find = 2;\n            }\n        }\n\n        return (_find);\n    }\n\n     // Function to show User \n\n    function showUser(address _addr) public view returns(uint, string memory,string memory, uint,string memory,uint, uint ){\n        return(u1[_addr].Addhaarid,u1[_addr].name,u1[_addr].location,u1[_addr].age,u1[_addr].gender,u1[_addr].contact,u1[_addr].id);\n    }\n\n    // Function to add company into the company structure\n\n     function addcom(uint _li,string memory _cname, string memory _clocation, address _cadd) public {\n        _c_id=_c_id+1;\n        UserRegister.Company memory c = Company(_li,_cname, _clocation, _cadd,_c_id);\n        company.push(c);\n        c1[_cadd] = c;\n    }\n\n\n    function checkCompany(address _add) view public returns(uint) {\n        uint _find = 0;\n        for (uint _i = 0; _i < company.length; _i++) {\n            if (company[_i].cadd == _add) {\n                _find = 1;\n            }\n        }\n        for (uint _i = 0; _i < person.length; _i++) {\n            if (person[_i].add == _add) {\n                _find = 2;\n            }\n        }\n\n        return (_find);\n    }\n\n\n    // Function to show company\n\n    function showcom(address _cadd) public view returns(uint, string memory,string memory,uint ){\n        return(c1[_cadd].lice,c1[_cadd].name,c1[_cadd].blocation,c1[_cadd].cid);\n    }\n\n\n\n    // function to add policy\n\n    function addPolicy(uint _pid,string memory _pname, uint _premium, uint _myear, uint _reimburse,  address _cadd ) public {\n        _u_id=_u_id+1;\n        UserRegister.Policy memory p = Policy(_pid,_pname, _premium,_myear, _reimburse,c1[_cadd].name, _cadd,c1[_cadd].cid);\n        policy.push(p);\n        p1[_pid] = p;\n    }\n\n    // Function to check Policys  are already registered or not!!!!!\n\n    function checkPolicy(uint _pid) view public returns(uint) {\n        uint _find = 0;\n        for (uint _i = 0; _i < policy.length; _i++) {\n            if (policy[_i].policy_id == _pid) {\n                _find = 1;\n            }\n        }\n\n        return (_find);\n    }\n     // Function to show Policys  that are already registered !!!!!\n\n    function showIns(uint _id) public view returns(uint, string memory, uint, uint,uint ,string memory,address,uint){\n        Policy memory pol= p1[_id];\n        return(pol.policy_id, pol.policy_name, pol.premium_monthly, pol.ploy_year, pol.reimburse, pol.company_name, pol.company_add, pol.i_cid);\n        //return(p1[_id].policy_id, p1[_id].policy_name, p1[_id].premium_monthly, p1[_id].ploy_year, p1[_id].reimburse, p1[_id].company_name, p1[_id].company_add, p1[_id].i_cid);\n    }\n\n    function getPolicySize() public view returns(uint) {\n        uint _size;\n        _size = policy.length;\n        return (_size);\n    }\n\n    function getPolicyByIndex(uint _i) public view returns(uint, string memory, uint, uint,uint ,string memory,address) {\n        return(policy[_i].policy_id, policy[_i].policy_name, policy[_i].premium_monthly, policy[_i].ploy_year, policy[_i].reimburse, policy[_i].company_name, policy[_i].company_add);\n    }\n\n    function BuyIns(uint insid,address  uadd)public payable {\n        t_id=t_id+1;\n\n        address sender = uadd;\n        uint bal1 = sender.balance;\n        address   payable receiver=payable(p1[insid].company_add );\n    //uint bal2 = receiver.balance;\n\n    //mapping(address => uint) public addressToBalance;\n\n    //function send(address payable _receiver) public payable {\n        //receiver = _receiver;\n        uint value= p1[insid].premium_monthly ;\n        if (bal1>=value){\n            bal1 -= value;\n        //bal2 += msg.value;\n        receiver.transfer(value);\n        //addressToBalance[sender] = bal1;\n        //addressToBalance[receiver] = receiver.balance;\n        }\n        UserRegister.Track_Insu memory t = Track_Insu(u1[uadd].Addhaarid ,u1[uadd].id,insid,p1[insid].i_cid, p1[insid].company_add ,uadd,t_id);\n        trackins.push(t);\n        t1[t_id]=t;\n\n    }\n    //function Payment()\n    //function showbuyins(_tid) public views returns()\n  \n}\n",
  "sourcePath": "/home/sai/Documents/GitHub/Blockchain_Insurance_Project/Blockchain_Insurance/contracts/UserRegister.sol",
  "compiler": {
    "name": "solc",
    "version": "0.8.16+commit.07a7930e.Emscripten.clang"
  },
  "schemaVersion": "3.4.9",
  "updatedAt": "2022-09-18T14:22:11.525Z",
  "networkType": "ethereum",
  "devdoc": {
    "kind": "dev",
    "methods": {},
    "version": 1
  },
  "userdoc": {
    "kind": "user",
    "methods": {},
    "version": 1
  }
}