{
  "contractName": "UserRegister",
  "abi": [
    {
      "inputs": [],
      "name": "_c_id",
      "outputs": [
        {
          "internalType": "uint256",
          "name": "",
          "type": "uint256"
        }
      ],
      "stateMutability": "view",
      "type": "function",
      "constant": true
    },
    {
      "inputs": [],
      "name": "_u_id",
      "outputs": [
        {
          "internalType": "uint256",
          "name": "",
          "type": "uint256"
        }
      ],
      "stateMutability": "view",
      "type": "function",
      "constant": true
    },
    {
      "inputs": [],
      "name": "t_id",
      "outputs": [
        {
          "internalType": "uint256",
          "name": "",
          "type": "uint256"
        }
      ],
      "stateMutability": "view",
      "type": "function",
      "constant": true
    },
    {
      "inputs": [
        {
          "internalType": "uint256",
          "name": "_aid",
          "type": "uint256"
        },
        {
          "internalType": "string",
          "name": "_name",
          "type": "string"
        },
        {
          "internalType": "string",
          "name": "_location",
          "type": "string"
        },
        {
          "internalType": "uint256",
          "name": "_age",
          "type": "uint256"
        },
        {
          "internalType": "string",
          "name": "_gender",
          "type": "string"
        },
        {
          "internalType": "uint256",
          "name": "_contact",
          "type": "uint256"
        },
        {
          "internalType": "address",
          "name": "_add",
          "type": "address"
        }
      ],
      "name": "addUser",
      "outputs": [],
      "stateMutability": "nonpayable",
      "type": "function"
    },
    {
      "inputs": [
        {
          "internalType": "address",
          "name": "_add",
          "type": "address"
        }
      ],
      "name": "checkUser",
      "outputs": [
        {
          "internalType": "uint256",
          "name": "",
          "type": "uint256"
        }
      ],
      "stateMutability": "view",
      "type": "function",
      "constant": true
    },
    {
      "inputs": [
        {
          "internalType": "address",
          "name": "_addr",
          "type": "address"
        }
      ],
      "name": "showUser",
      "outputs": [
        {
          "internalType": "uint256",
          "name": "",
          "type": "uint256"
        },
        {
          "internalType": "string",
          "name": "",
          "type": "string"
        },
        {
          "internalType": "string",
          "name": "",
          "type": "string"
        },
        {
          "internalType": "uint256",
          "name": "",
          "type": "uint256"
        },
        {
          "internalType": "string",
          "name": "",
          "type": "string"
        },
        {
          "internalType": "uint256",
          "name": "",
          "type": "uint256"
        },
        {
          "internalType": "uint256",
          "name": "",
          "type": "uint256"
        }
      ],
      "stateMutability": "view",
      "type": "function",
      "constant": true
    },
    {
      "inputs": [
        {
          "internalType": "uint256",
          "name": "_li",
          "type": "uint256"
        },
        {
          "internalType": "string",
          "name": "_cname",
          "type": "string"
        },
        {
          "internalType": "string",
          "name": "_clocation",
          "type": "string"
        },
        {
          "internalType": "address",
          "name": "_cadd",
          "type": "address"
        }
      ],
      "name": "addcom",
      "outputs": [],
      "stateMutability": "nonpayable",
      "type": "function"
    },
    {
      "inputs": [
        {
          "internalType": "address",
          "name": "_add",
          "type": "address"
        }
      ],
      "name": "checkCompany",
      "outputs": [
        {
          "internalType": "uint256",
          "name": "",
          "type": "uint256"
        }
      ],
      "stateMutability": "view",
      "type": "function",
      "constant": true
    },
    {
      "inputs": [
        {
          "internalType": "address",
          "name": "_cadd",
          "type": "address"
        }
      ],
      "name": "showcom",
      "outputs": [
        {
          "internalType": "uint256",
          "name": "",
          "type": "uint256"
        },
        {
          "internalType": "string",
          "name": "",
          "type": "string"
        },
        {
          "internalType": "string",
          "name": "",
          "type": "string"
        },
        {
          "internalType": "uint256",
          "name": "",
          "type": "uint256"
        }
      ],
      "stateMutability": "view",
      "type": "function",
      "constant": true
    },
    {
      "inputs": [
        {
          "internalType": "uint256",
          "name": "_pid",
          "type": "uint256"
        },
        {
          "internalType": "string",
          "name": "_pname",
          "type": "string"
        },
        {
          "internalType": "uint256",
          "name": "_premium",
          "type": "uint256"
        },
        {
          "internalType": "uint256",
          "name": "_myear",
          "type": "uint256"
        },
        {
          "internalType": "uint256",
          "name": "_reimburse",
          "type": "uint256"
        },
        {
          "internalType": "address",
          "name": "_cadd",
          "type": "address"
        }
      ],
      "name": "addPolicy",
      "outputs": [],
      "stateMutability": "nonpayable",
      "type": "function"
    },
    {
      "inputs": [
        {
          "internalType": "uint256",
          "name": "_pid",
          "type": "uint256"
        }
      ],
      "name": "checkPolicy",
      "outputs": [
        {
          "internalType": "uint256",
          "name": "",
          "type": "uint256"
        }
      ],
      "stateMutability": "view",
      "type": "function",
      "constant": true
    },
    {
      "inputs": [
        {
          "internalType": "uint256",
          "name": "_id",
          "type": "uint256"
        }
      ],
      "name": "showIns",
      "outputs": [
        {
          "internalType": "uint256",
          "name": "",
          "type": "uint256"
        },
        {
          "internalType": "string",
          "name": "",
          "type": "string"
        },
        {
          "internalType": "uint256",
          "name": "",
          "type": "uint256"
        },
        {
          "internalType": "uint256",
          "name": "",
          "type": "uint256"
        },
        {
          "internalType": "uint256",
          "name": "",
          "type": "uint256"
        },
        {
          "internalType": "string",
          "name": "",
          "type": "string"
        },
        {
          "internalType": "address",
          "name": "",
          "type": "address"
        },
        {
          "internalType": "uint256",
          "name": "",
          "type": "uint256"
        }
      ],
      "stateMutability": "view",
      "type": "function",
      "constant": true
    },
    {
      "inputs": [],
      "name": "getPolicySize",
      "outputs": [
        {
          "internalType": "uint256",
          "name": "",
          "type": "uint256"
        }
      ],
      "stateMutability": "view",
      "type": "function",
      "constant": true
    },
    {
      "inputs": [
        {
          "internalType": "uint256",
          "name": "_i",
          "type": "uint256"
        }
      ],
      "name": "getPolicyByIndex",
      "outputs": [
        {
          "internalType": "uint256",
          "name": "",
          "type": "uint256"
        },
        {
          "internalType": "string",
          "name": "",
          "type": "string"
        },
        {
          "internalType": "uint256",
          "name": "",
          "type": "uint256"
        },
        {
          "internalType": "uint256",
          "name": "",
          "type": "uint256"
        },
        {
          "internalType": "uint256",
          "name": "",
          "type": "uint256"
        },
        {
          "internalType": "string",
          "name": "",
          "type": "string"
        },
        {
          "internalType": "address",
          "name": "",
          "type": "address"
        }
      ],
      "stateMutability": "view",
      "type": "function",
      "constant": true
    },
    {
      "inputs": [
        {
          "internalType": "uint256",
          "name": "insid",
          "type": "uint256"
        },
        {
          "internalType": "address",
          "name": "uadd",
          "type": "address"
        }
      ],
      "name": "BuyIns",
      "outputs": [
        {
          "internalType": "uint256",
          "name": "",
          "type": "uint256"
        }
      ],
      "stateMutability": "nonpayable",
      "type": "function"
    },
    {
      "inputs": [
        {
          "internalType": "address payable",
          "name": "_receiver",
          "type": "address"
        },
        {
          "internalType": "uint256",
          "name": "_amount",
          "type": "uint256"
        }
      ],
      "name": "Payment",
      "outputs": [],
      "stateMutability": "payable",
      "type": "function",
      "payable": true
    }
  ],
  "bytecode": "0x6080604052600080556000600155600060025534801561001e57600080fd5b506128b88061002e6000396000f3fe6080604052600436106100f35760003560e01c80636ff96c7c1161008a578063b77553b611610059578063b77553b61461038a578063d4f43975146103c7578063ebb16459146103e3578063ecc0f8711461040e576100f3565b80636ff96c7c146102bc578063736436a1146102e7578063aca6bef714610310578063ade93e921461034d576100f3565b80635fe73f3f116100c65780635fe73f3f146101ff578063648134581461022a5780636787db89146102535780636dd3f5fe1461027c576100f3565b806312742b81146100f85780631e9d48cf1461013b5780632e86797814610178578063517fe4de146101bc575b600080fd5b34801561010457600080fd5b5061011f600480360381019061011a9190611d38565b610439565b6040516101329796959493929190611e45565b60405180910390f35b34801561014757600080fd5b50610162600480360381019061015d9190611eee565b61069f565b60405161016f9190611f1b565b60405180910390f35b34801561018457600080fd5b5061019f600480360381019061019a9190611d38565b6107f1565b6040516101b3989796959493929190611f36565b60405180910390f35b3480156101c857600080fd5b506101e360048036038101906101de9190611eee565b610a12565b6040516101f69796959493929190611fc2565b60405180910390f35b34801561020b57600080fd5b50610214610dad565b6040516102219190611f1b565b60405180910390f35b34801561023657600080fd5b50610251600480360381019061024c919061217b565b610db3565b005b34801561025f57600080fd5b5061027a6004803603810190610275919061221a565b610f91565b005b34801561028857600080fd5b506102a3600480360381019061029e9190611eee565b6111d8565b6040516102b39493929190612310565b60405180910390f35b3480156102c857600080fd5b506102d1611410565b6040516102de9190611f1b565b60405180910390f35b3480156102f357600080fd5b5061030e60048036038101906103099190612363565b611416565b005b34801561031c57600080fd5b5061033760048036038101906103329190611d38565b611722565b6040516103449190611f1b565b60405180910390f35b34801561035957600080fd5b50610374600480360381019061036f919061240c565b611787565b6040516103819190611f1b565b60405180910390f35b34801561039657600080fd5b506103b160048036038101906103ac9190611eee565b611b39565b6040516103be9190611f1b565b60405180910390f35b6103e160048036038101906103dc919061248a565b611c8b565b005b3480156103ef57600080fd5b506103f8611cd6565b6040516104059190611f1b565b60405180910390f35b34801561041a57600080fd5b50610423611cdc565b6040516104309190611f1b565b60405180910390f35b600060606000806000606060006009888154811061045a576104596124ca565b5b906000526020600020906008020160000154600989815481106104805761047f6124ca565b5b906000526020600020906008020160010160098a815481106104a5576104a46124ca565b5b90600052602060002090600802016002015460098b815481106104cb576104ca6124ca565b5b90600052602060002090600802016003015460098c815481106104f1576104f06124ca565b5b90600052602060002090600802016004015460098d81548110610517576105166124ca565b5b906000526020600020906008020160050160098e8154811061053c5761053b6124ca565b5b906000526020600020906008020160060160009054906101000a900473ffffffffffffffffffffffffffffffffffffffff1685805461057a90612528565b80601f01602080910402602001604051908101604052809291908181526020018280546105a690612528565b80156105f35780601f106105c8576101008083540402835291602001916105f3565b820191906000526020600020905b8154815290600101906020018083116105d657829003601f168201915b5050505050955081805461060690612528565b80601f016020809104026020016040519081016040528092919081815260200182805461063290612528565b801561067f5780601f106106545761010080835404028352916020019161067f565b820191906000526020600020905b81548152906001019060200180831161066257829003601f168201915b505050505091509650965096509650965096509650919395979092949650565b6000806000905060005b600780549050811015610746578373ffffffffffffffffffffffffffffffffffffffff16600782815481106106e1576106e06124ca565b5b906000526020600020906008020160060160009054906101000a900473ffffffffffffffffffffffffffffffffffffffff1673ffffffffffffffffffffffffffffffffffffffff160361073357600191505b808061073e90612588565b9150506106a9565b5060005b6008805490508110156107e7578373ffffffffffffffffffffffffffffffffffffffff1660088281548110610782576107816124ca565b5b906000526020600020906005020160030160009054906101000a900473ffffffffffffffffffffffffffffffffffffffff1673ffffffffffffffffffffffffffffffffffffffff16036107d457600291505b80806107df90612588565b91505061074a565b5080915050919050565b60006060600080600060606000806000600560008b8152602001908152602001600020604051806101000160405290816000820154815260200160018201805461083a90612528565b80601f016020809104026020016040519081016040528092919081815260200182805461086690612528565b80156108b35780601f10610888576101008083540402835291602001916108b3565b820191906000526020600020905b81548152906001019060200180831161089657829003601f168201915b505050505081526020016002820154815260200160038201548152602001600482015481526020016005820180546108ea90612528565b80601f016020809104026020016040519081016040528092919081815260200182805461091690612528565b80156109635780601f1061093857610100808354040283529160200191610963565b820191906000526020600020905b81548152906001019060200180831161094657829003601f168201915b505050505081526020016006820160009054906101000a900473ffffffffffffffffffffffffffffffffffffffff1673ffffffffffffffffffffffffffffffffffffffff1673ffffffffffffffffffffffffffffffffffffffff1681526020016007820154815250509050806000015181602001518260400151836060015184608001518560a001518660c001518760e001519850985098509850985098509850985050919395975091939597565b600060608060006060600080600460008973ffffffffffffffffffffffffffffffffffffffff1673ffffffffffffffffffffffffffffffffffffffff16815260200190815260200160002060000154600460008a73ffffffffffffffffffffffffffffffffffffffff1673ffffffffffffffffffffffffffffffffffffffff168152602001908152602001600020600101600460008b73ffffffffffffffffffffffffffffffffffffffff1673ffffffffffffffffffffffffffffffffffffffff168152602001908152602001600020600201600460008c73ffffffffffffffffffffffffffffffffffffffff1673ffffffffffffffffffffffffffffffffffffffff16815260200190815260200160002060030154600460008d73ffffffffffffffffffffffffffffffffffffffff1673ffffffffffffffffffffffffffffffffffffffff168152602001908152602001600020600401600460008e73ffffffffffffffffffffffffffffffffffffffff1673ffffffffffffffffffffffffffffffffffffffff16815260200190815260200160002060050154600460008f73ffffffffffffffffffffffffffffffffffffffff1673ffffffffffffffffffffffffffffffffffffffff16815260200190815260200160002060070154858054610bfc90612528565b80601f0160208091040260200160405190810160405280929190818152602001828054610c2890612528565b8015610c755780601f10610c4a57610100808354040283529160200191610c75565b820191906000526020600020905b815481529060010190602001808311610c5857829003601f168201915b50505050509550848054610c8890612528565b80601f0160208091040260200160405190810160405280929190818152602001828054610cb490612528565b8015610d015780601f10610cd657610100808354040283529160200191610d01565b820191906000526020600020905b815481529060010190602001808311610ce457829003601f168201915b50505050509450828054610d1490612528565b80601f0160208091040260200160405190810160405280929190818152602001828054610d4090612528565b8015610d8d5780601f10610d6257610100808354040283529160200191610d8d565b820191906000526020600020905b815481529060010190602001808311610d7057829003601f168201915b505050505092509650965096509650965096509650919395979092949650565b60015481565b6001600054610dc291906125d0565b60008190555060006040518060a001604052808681526020018581526020018481526020018373ffffffffffffffffffffffffffffffffffffffff16815260200160005481525090506008819080600181540180825580915050600190039060005260206000209060050201600090919091909150600082015181600001556020820151816001019081610e5691906127b0565b506040820151816002019081610e6c91906127b0565b5060608201518160030160006101000a81548173ffffffffffffffffffffffffffffffffffffffff021916908373ffffffffffffffffffffffffffffffffffffffff16021790555060808201518160040155505080600360008473ffffffffffffffffffffffffffffffffffffffff1673ffffffffffffffffffffffffffffffffffffffff168152602001908152602001600020600082015181600001556020820151816001019081610f1f91906127b0565b506040820151816002019081610f3591906127b0565b5060608201518160030160006101000a81548173ffffffffffffffffffffffffffffffffffffffff021916908373ffffffffffffffffffffffffffffffffffffffff160217905550608082015181600401559050505050505050565b60018054610f9f91906125d0565b60018190555060006040518061010001604052808981526020018881526020018781526020018681526020018581526020018481526020018373ffffffffffffffffffffffffffffffffffffffff1681526020016001548152509050600781908060018154018082558091505060019003906000526020600020906008020160009091909190915060008201518160000155602082015181600101908161104691906127b0565b50604082015181600201908161105c91906127b0565b5060608201518160030155608082015181600401908161107c91906127b0565b5060a0820151816005015560c08201518160060160006101000a81548173ffffffffffffffffffffffffffffffffffffffff021916908373ffffffffffffffffffffffffffffffffffffffff16021790555060e08201518160070155505080600460008473ffffffffffffffffffffffffffffffffffffffff1673ffffffffffffffffffffffffffffffffffffffff16815260200190815260200160002060008201518160000155602082015181600101908161113991906127b0565b50604082015181600201908161114f91906127b0565b5060608201518160030155608082015181600401908161116f91906127b0565b5060a0820151816005015560c08201518160060160006101000a81548173ffffffffffffffffffffffffffffffffffffffff021916908373ffffffffffffffffffffffffffffffffffffffff16021790555060e082015181600701559050505050505050505050565b60006060806000600360008673ffffffffffffffffffffffffffffffffffffffff1673ffffffffffffffffffffffffffffffffffffffff16815260200190815260200160002060000154600360008773ffffffffffffffffffffffffffffffffffffffff1673ffffffffffffffffffffffffffffffffffffffff168152602001908152602001600020600101600360008873ffffffffffffffffffffffffffffffffffffffff1673ffffffffffffffffffffffffffffffffffffffff168152602001908152602001600020600201600360008973ffffffffffffffffffffffffffffffffffffffff1673ffffffffffffffffffffffffffffffffffffffff168152602001908152602001600020600401548280546112f590612528565b80601f016020809104026020016040519081016040528092919081815260200182805461132190612528565b801561136e5780601f106113435761010080835404028352916020019161136e565b820191906000526020600020905b81548152906001019060200180831161135157829003601f168201915b5050505050925081805461138190612528565b80601f01602080910402602001604051908101604052809291908181526020018280546113ad90612528565b80156113fa5780601f106113cf576101008083540402835291602001916113fa565b820191906000526020600020905b8154815290600101906020018083116113dd57829003601f168201915b5050505050915093509350935093509193509193565b60005481565b6001805461142491906125d0565b6001819055506000604051806101000160405280888152602001878152602001868152602001858152602001848152602001600360008573ffffffffffffffffffffffffffffffffffffffff1673ffffffffffffffffffffffffffffffffffffffff16815260200190815260200160002060010180546114a390612528565b80601f01602080910402602001604051908101604052809291908181526020018280546114cf90612528565b801561151c5780601f106114f15761010080835404028352916020019161151c565b820191906000526020600020905b8154815290600101906020018083116114ff57829003601f168201915b505050505081526020018373ffffffffffffffffffffffffffffffffffffffff168152602001600360008573ffffffffffffffffffffffffffffffffffffffff1673ffffffffffffffffffffffffffffffffffffffff16815260200190815260200160002060040154815250905060098190806001815401808255809150506001900390600052602060002090600802016000909190919091506000820151816000015560208201518160010190816115d591906127b0565b5060408201518160020155606082015181600301556080820151816004015560a082015181600501908161160991906127b0565b5060c08201518160060160006101000a81548173ffffffffffffffffffffffffffffffffffffffff021916908373ffffffffffffffffffffffffffffffffffffffff16021790555060e082015181600701555050806005600089815260200190815260200160002060008201518160000155602082015181600101908161169091906127b0565b5060408201518160020155606082015181600301556080820151816004015560a08201518160050190816116c491906127b0565b5060c08201518160060160006101000a81548173ffffffffffffffffffffffffffffffffffffffff021916908373ffffffffffffffffffffffffffffffffffffffff16021790555060e0820151816007015590505050505050505050565b6000806000905060005b60098054905081101561177d57836009828154811061174e5761174d6124ca565b5b9060005260206000209060080201600001540361176a57600191505b808061177590612588565b91505061172c565b5080915050919050565b6000600160025461179891906125d0565b6002819055506000806005600086815260200190815260200160002060060160009054906101000a900473ffffffffffffffffffffffffffffffffffffffff169050600060056000878152602001908152602001600020600201549050808573ffffffffffffffffffffffffffffffffffffffff163111156118235761181e8282611c8b565b600192505b60018303611b2d5760006040518060e00160405280600460008973ffffffffffffffffffffffffffffffffffffffff1673ffffffffffffffffffffffffffffffffffffffff168152602001908152602001600020600001548152602001600460008973ffffffffffffffffffffffffffffffffffffffff1673ffffffffffffffffffffffffffffffffffffffff168152602001908152602001600020600701548152602001888152602001600560008a8152602001908152602001600020600701548152602001600560008a815260200190815260200160002060060160009054906101000a900473ffffffffffffffffffffffffffffffffffffffff1673ffffffffffffffffffffffffffffffffffffffff1681526020018773ffffffffffffffffffffffffffffffffffffffff1681526020016002548152509050600a8190806001815401808255809150506001900390600052602060002090600702016000909190919091506000820151816000015560208201518160010155604082015181600201556060820151816003015560808201518160040160006101000a81548173ffffffffffffffffffffffffffffffffffffffff021916908373ffffffffffffffffffffffffffffffffffffffff16021790555060a08201518160050160006101000a81548173ffffffffffffffffffffffffffffffffffffffff021916908373ffffffffffffffffffffffffffffffffffffffff16021790555060c082015181600601555050806006600060025481526020019081526020016000206000820151816000015560208201518160010155604082015181600201556060820151816003015560808201518160040160006101000a81548173ffffffffffffffffffffffffffffffffffffffff021916908373ffffffffffffffffffffffffffffffffffffffff16021790555060a08201518160050160006101000a81548173ffffffffffffffffffffffffffffffffffffffff021916908373ffffffffffffffffffffffffffffffffffffffff16021790555060c0820151816006015590505060029350505b82935050505092915050565b6000806000905060005b600880549050811015611be0578373ffffffffffffffffffffffffffffffffffffffff1660088281548110611b7b57611b7a6124ca565b5b906000526020600020906005020160030160009054906101000a900473ffffffffffffffffffffffffffffffffffffffff1673ffffffffffffffffffffffffffffffffffffffff1603611bcd57600191505b8080611bd890612588565b915050611b43565b5060005b600780549050811015611c81578373ffffffffffffffffffffffffffffffffffffffff1660078281548110611c1c57611c1b6124ca565b5b906000526020600020906008020160060160009054906101000a900473ffffffffffffffffffffffffffffffffffffffff1673ffffffffffffffffffffffffffffffffffffffff1603611c6e57600291505b8080611c7990612588565b915050611be4565b5080915050919050565b8173ffffffffffffffffffffffffffffffffffffffff166108fc829081150290604051600060405180830381858888f19350505050158015611cd1573d6000803e3d6000fd5b505050565b60025481565b60008060098054905090508091505090565b6000604051905090565b600080fd5b600080fd5b6000819050919050565b611d1581611d02565b8114611d2057600080fd5b50565b600081359050611d3281611d0c565b92915050565b600060208284031215611d4e57611d4d611cf8565b5b6000611d5c84828501611d23565b91505092915050565b611d6e81611d02565b82525050565b600081519050919050565b600082825260208201905092915050565b60005b83811015611dae578082015181840152602081019050611d93565b60008484015250505050565b6000601f19601f8301169050919050565b6000611dd682611d74565b611de08185611d7f565b9350611df0818560208601611d90565b611df981611dba565b840191505092915050565b600073ffffffffffffffffffffffffffffffffffffffff82169050919050565b6000611e2f82611e04565b9050919050565b611e3f81611e24565b82525050565b600060e082019050611e5a600083018a611d65565b8181036020830152611e6c8189611dcb565b9050611e7b6040830188611d65565b611e886060830187611d65565b611e956080830186611d65565b81810360a0830152611ea78185611dcb565b9050611eb660c0830184611e36565b98975050505050505050565b611ecb81611e24565b8114611ed657600080fd5b50565b600081359050611ee881611ec2565b92915050565b600060208284031215611f0457611f03611cf8565b5b6000611f1284828501611ed9565b91505092915050565b6000602082019050611f306000830184611d65565b92915050565b600061010082019050611f4c600083018b611d65565b8181036020830152611f5e818a611dcb565b9050611f6d6040830189611d65565b611f7a6060830188611d65565b611f876080830187611d65565b81810360a0830152611f998186611dcb565b9050611fa860c0830185611e36565b611fb560e0830184611d65565b9998505050505050505050565b600060e082019050611fd7600083018a611d65565b8181036020830152611fe98189611dcb565b90508181036040830152611ffd8188611dcb565b905061200c6060830187611d65565b818103608083015261201e8186611dcb565b905061202d60a0830185611d65565b61203a60c0830184611d65565b98975050505050505050565b600080fd5b600080fd5b7f4e487b7100000000000000000000000000000000000000000000000000000000600052604160045260246000fd5b61208882611dba565b810181811067ffffffffffffffff821117156120a7576120a6612050565b5b80604052505050565b60006120ba611cee565b90506120c6828261207f565b919050565b600067ffffffffffffffff8211156120e6576120e5612050565b5b6120ef82611dba565b9050602081019050919050565b82818337600083830152505050565b600061211e612119846120cb565b6120b0565b90508281526020810184848401111561213a5761213961204b565b5b6121458482856120fc565b509392505050565b600082601f83011261216257612161612046565b5b813561217284826020860161210b565b91505092915050565b6000806000806080858703121561219557612194611cf8565b5b60006121a387828801611d23565b945050602085013567ffffffffffffffff8111156121c4576121c3611cfd565b5b6121d08782880161214d565b935050604085013567ffffffffffffffff8111156121f1576121f0611cfd565b5b6121fd8782880161214d565b925050606061220e87828801611ed9565b91505092959194509250565b600080600080600080600060e0888a03121561223957612238611cf8565b5b60006122478a828b01611d23565b975050602088013567ffffffffffffffff81111561226857612267611cfd565b5b6122748a828b0161214d565b965050604088013567ffffffffffffffff81111561229557612294611cfd565b5b6122a18a828b0161214d565b95505060606122b28a828b01611d23565b945050608088013567ffffffffffffffff8111156122d3576122d2611cfd565b5b6122df8a828b0161214d565b93505060a06122f08a828b01611d23565b92505060c06123018a828b01611ed9565b91505092959891949750929550565b60006080820190506123256000830187611d65565b81810360208301526123378186611dcb565b9050818103604083015261234b8185611dcb565b905061235a6060830184611d65565b95945050505050565b60008060008060008060c087890312156123805761237f611cf8565b5b600061238e89828a01611d23565b965050602087013567ffffffffffffffff8111156123af576123ae611cfd565b5b6123bb89828a0161214d565b95505060406123cc89828a01611d23565b94505060606123dd89828a01611d23565b93505060806123ee89828a01611d23565b92505060a06123ff89828a01611ed9565b9150509295509295509295565b6000806040838503121561242357612422611cf8565b5b600061243185828601611d23565b925050602061244285828601611ed9565b9150509250929050565b600061245782611e04565b9050919050565b6124678161244c565b811461247257600080fd5b50565b6000813590506124848161245e565b92915050565b600080604083850312156124a1576124a0611cf8565b5b60006124af85828601612475565b92505060206124c085828601611d23565b9150509250929050565b7f4e487b7100000000000000000000000000000000000000000000000000000000600052603260045260246000fd5b7f4e487b7100000000000000000000000000000000000000000000000000000000600052602260045260246000fd5b6000600282049050600182168061254057607f821691505b602082108103612553576125526124f9565b5b50919050565b7f4e487b7100000000000000000000000000000000000000000000000000000000600052601160045260246000fd5b600061259382611d02565b91507fffffffffffffffffffffffffffffffffffffffffffffffffffffffffffffffff82036125c5576125c4612559565b5b600182019050919050565b60006125db82611d02565b91506125e683611d02565b92508282019050808211156125fe576125fd612559565b5b92915050565b60008190508160005260206000209050919050565b60006020601f8301049050919050565b600082821b905092915050565b6000600883026126667fffffffffffffffffffffffffffffffffffffffffffffffffffffffffffffffff82612629565b6126708683612629565b95508019841693508086168417925050509392505050565b6000819050919050565b60006126ad6126a86126a384611d02565b612688565b611d02565b9050919050565b6000819050919050565b6126c783612692565b6126db6126d3826126b4565b848454612636565b825550505050565b600090565b6126f06126e3565b6126fb8184846126be565b505050565b5b8181101561271f576127146000826126e8565b600181019050612701565b5050565b601f8211156127645761273581612604565b61273e84612619565b8101602085101561274d578190505b61276161275985612619565b830182612700565b50505b505050565b600082821c905092915050565b600061278760001984600802612769565b1980831691505092915050565b60006127a08383612776565b9150826002028217905092915050565b6127b982611d74565b67ffffffffffffffff8111156127d2576127d1612050565b5b6127dc8254612528565b6127e7828285612723565b600060209050601f83116001811461281a5760008415612808578287015190505b6128128582612794565b86555061287a565b601f19841661282886612604565b60005b828110156128505784890151825560018201915060208501945060208101905061282b565b8683101561286d5784890151612869601f891682612776565b8355505b6001600288020188555050505b50505050505056fea26469706673582212207b125ecb8b47e15bc85e8425320fba4ba53c5273c026ca1e48d77e34e7f75ffb64736f6c63430008100033",
  "immutableReferences": {},
  "source": "// SPDX-License-Identifier: MIT\n\npragma solidity ^0.8;\n\ncontract UserRegister {\n\n\n    uint public _c_id =0;\n    uint public _u_id =0;\n    uint public t_id=0;\n    //uint public _t_id=0;\n\n    // structure for User\n    struct User {\n        uint Addhaarid;\n        string name;\n        string location;\n        uint age;\n        string gender;\n        uint contact;\n        address add;\n        uint id;\n    }\n    struct Company{\n        uint lice;\n        string name;\n        string blocation;\n        address cadd;\n        uint cid;\n    }\n\n    struct Policy {\n        uint policy_id;\n        string policy_name;\n        uint premium_monthly;\n        uint ploy_year;\n        uint reimburse;\n        string company_name;\n        address company_add;\n        uint i_cid;\n    }\n    struct Track_Insu{\n        uint Adhr_tid;\n        uint usr_id;\n        uint ins_id;\n        uint com_id;\n        address uadd;\n        address cadd;\n        uint tid;\n    }\n\n    //mapping(uint=> Company) c1;\n    mapping(address => Company) c1;\n    mapping (address => User) u1;\n    mapping(uint => Policy) p1;\n    mapping (uint =>Track_Insu) t1;\n    // Creating array of student structure\n    User[] person;\n    Company[] company;\n    Policy[] policy;\n    Track_Insu[] trackins;\n    //mapping(uint => User) public studs;\n\n    // Function to add User into the User structure\n    function addUser(uint _aid,string memory _name, string memory _location, uint _age, string memory _gender, uint _contact, address _add ) public {\n        _u_id=_u_id+1;\n        UserRegister.User memory x = User(_aid,_name, _location, _age, _gender,_contact, _add,_u_id);\n        person.push(x);\n        u1[_add] = x;\n    }\n\n    // Function to check User who are already registered or not!!!!!\n\n    function checkUser(address _add) view public returns(uint) {\n        uint _find = 0;\n        for (uint _i = 0; _i < person.length; _i++) {\n            if (person[_i].add == _add) {\n                _find = 1;\n            }\n        }\n        for (uint _i = 0; _i < company.length; _i++) {\n            if (company[_i].cadd == _add) {\n                _find = 2;\n            }\n        }\n\n        return (_find);\n    }\n\n     // Function to show User \n\n    function showUser(address _addr) public view returns(uint, string memory,string memory, uint,string memory,uint, uint ){\n        return(u1[_addr].Addhaarid,u1[_addr].name,u1[_addr].location,u1[_addr].age,u1[_addr].gender,u1[_addr].contact,u1[_addr].id);\n    }\n\n    // Function to add company into the company structure\n\n     function addcom(uint _li,string memory _cname, string memory _clocation, address _cadd) public {\n        _c_id=_c_id+1;\n        UserRegister.Company memory c = Company(_li,_cname, _clocation, _cadd,_c_id);\n        company.push(c);\n        c1[_cadd] = c;\n    }\n\n\n    function checkCompany(address _add) view public returns(uint) {\n        uint _find = 0;\n        for (uint _i = 0; _i < company.length; _i++) {\n            if (company[_i].cadd == _add) {\n                _find = 1;\n            }\n        }\n        for (uint _i = 0; _i < person.length; _i++) {\n            if (person[_i].add == _add) {\n                _find = 2;\n            }\n        }\n\n        return (_find);\n    }\n\n\n    // Function to show company\n\n    function showcom(address _cadd) public view returns(uint, string memory,string memory,uint ){\n        return(c1[_cadd].lice,c1[_cadd].name,c1[_cadd].blocation,c1[_cadd].cid);\n    }\n\n\n\n    // function to add policy\n\n    function addPolicy(uint _pid,string memory _pname, uint _premium, uint _myear, uint _reimburse,  address _cadd ) public {\n        _u_id=_u_id+1;\n        UserRegister.Policy memory p = Policy(_pid,_pname, _premium,_myear, _reimburse,c1[_cadd].name, _cadd,c1[_cadd].cid);\n        policy.push(p);\n        p1[_pid] = p;\n    }\n\n    // Function to check Policys  are already registered or not!!!!!\n\n    function checkPolicy(uint _pid) view public returns(uint) {\n        uint _find = 0;\n        for (uint _i = 0; _i < policy.length; _i++) {\n            if (policy[_i].policy_id == _pid) {\n                _find = 1;\n            }\n        }\n\n        return (_find);\n    }\n     // Function to show Policys  that are already registered !!!!!\n\n    function showIns(uint _id) public view returns(uint, string memory, uint, uint,uint ,string memory,address,uint){\n        Policy memory pol= p1[_id];\n        return(pol.policy_id, pol.policy_name, pol.premium_monthly, pol.ploy_year, pol.reimburse, pol.company_name, pol.company_add, pol.i_cid);\n        //return(p1[_id].policy_id, p1[_id].policy_name, p1[_id].premium_monthly, p1[_id].ploy_year, p1[_id].reimburse, p1[_id].company_name, p1[_id].company_add, p1[_id].i_cid);\n    }\n\n    function getPolicySize() public view returns(uint) {\n        uint _size;\n        _size = policy.length;\n        return (_size);\n    }\n\n    function getPolicyByIndex(uint _i) public view returns(uint, string memory, uint, uint,uint ,string memory,address) {\n        return(policy[_i].policy_id, policy[_i].policy_name, policy[_i].premium_monthly, policy[_i].ploy_year, policy[_i].reimburse, policy[_i].company_name, policy[_i].company_add);\n    }\n\n    // buy insurance by the user\n    function BuyIns(uint insid, address  uadd) public returns(uint)  {\n        t_id=t_id+1;\n        uint flag = 0;\n\n        address _receiver = p1[insid].company_add;\n        uint _amount = p1[insid].premium_monthly;\n        if (uadd.balance > _amount) {\n            Payment(payable(_receiver), _amount);\n            flag = 1;\n        }\n\n        if(flag == 1) {\n            UserRegister.Track_Insu memory t = Track_Insu(u1[uadd].Addhaarid ,u1[uadd].id,insid,p1[insid].i_cid, p1[insid].company_add ,uadd,t_id);\n            trackins.push(t);\n            t1[t_id]=t;\n            flag = 2;\n        }\n        return (flag);\n\n    }\n    \n    // Transfer ether from one account to another\n    function Payment(address payable _receiver, uint _amount) public payable {\n        //_amount = _amount * 1000000000000000000;\n        _receiver.transfer(_amount);\n    }\n\n    //function showbuyins(_tid) public views returns()\n  \n}\n",
  "sourcePath": "/home/kids/Documents/GitHub/Blockchain_Insurance/contracts/UserRegister.sol",
  "compiler": {
    "name": "solc",
    "version": "0.8.16+commit.07a7930e.Emscripten.clang"
  },
  "schemaVersion": "3.4.9",
  "updatedAt": "2022-09-20T06:03:10.408Z",
  "networkType": "ethereum",
  "devdoc": {
    "kind": "dev",
    "methods": {},
    "version": 1
  },
  "userdoc": {
    "kind": "user",
    "methods": {},
    "version": 1
  }
}