{
  "contractName": "UserRegister",
  "abi": [
    {
      "inputs": [],
      "name": "_c_id",
      "outputs": [
        {
          "internalType": "uint256",
          "name": "",
          "type": "uint256"
        }
      ],
      "stateMutability": "view",
      "type": "function",
      "constant": true
    },
    {
      "inputs": [],
      "name": "_u_id",
      "outputs": [
        {
          "internalType": "uint256",
          "name": "",
          "type": "uint256"
        }
      ],
      "stateMutability": "view",
      "type": "function",
      "constant": true
    },
    {
      "inputs": [
        {
          "internalType": "uint256",
          "name": "_aid",
          "type": "uint256"
        },
        {
          "internalType": "string",
          "name": "_name",
          "type": "string"
        },
        {
          "internalType": "string",
          "name": "_location",
          "type": "string"
        },
        {
          "internalType": "uint256",
          "name": "_age",
          "type": "uint256"
        },
        {
          "internalType": "string",
          "name": "_gender",
          "type": "string"
        },
        {
          "internalType": "uint256",
          "name": "_contact",
          "type": "uint256"
        },
        {
          "internalType": "address",
          "name": "_add",
          "type": "address"
        }
      ],
      "name": "addUser",
      "outputs": [],
      "stateMutability": "nonpayable",
      "type": "function"
    },
    {
      "inputs": [
        {
          "internalType": "address",
          "name": "_add",
          "type": "address"
        }
      ],
      "name": "checkUser",
      "outputs": [
        {
          "internalType": "uint256",
          "name": "",
          "type": "uint256"
        }
      ],
      "stateMutability": "view",
      "type": "function",
      "constant": true
    },
    {
      "inputs": [
        {
          "internalType": "address",
          "name": "_addr",
          "type": "address"
        }
      ],
      "name": "showUser",
      "outputs": [
        {
          "internalType": "uint256",
          "name": "",
          "type": "uint256"
        },
        {
          "internalType": "string",
          "name": "",
          "type": "string"
        },
        {
          "internalType": "string",
          "name": "",
          "type": "string"
        },
        {
          "internalType": "uint256",
          "name": "",
          "type": "uint256"
        },
        {
          "internalType": "string",
          "name": "",
          "type": "string"
        },
        {
          "internalType": "uint256",
          "name": "",
          "type": "uint256"
        },
        {
          "internalType": "uint256",
          "name": "",
          "type": "uint256"
        }
      ],
      "stateMutability": "view",
      "type": "function",
      "constant": true
    },
    {
      "inputs": [
        {
          "internalType": "uint256",
          "name": "_li",
          "type": "uint256"
        },
        {
          "internalType": "string",
          "name": "_cname",
          "type": "string"
        },
        {
          "internalType": "string",
          "name": "_clocation",
          "type": "string"
        },
        {
          "internalType": "address",
          "name": "_cadd",
          "type": "address"
        }
      ],
      "name": "addcom",
      "outputs": [],
      "stateMutability": "nonpayable",
      "type": "function"
    },
    {
      "inputs": [
        {
          "internalType": "address",
          "name": "_add",
          "type": "address"
        }
      ],
      "name": "checkCompany",
      "outputs": [
        {
          "internalType": "uint256",
          "name": "",
          "type": "uint256"
        }
      ],
      "stateMutability": "view",
      "type": "function",
      "constant": true
    },
    {
      "inputs": [
        {
          "internalType": "address",
          "name": "_cadd",
          "type": "address"
        }
      ],
      "name": "showcom",
      "outputs": [
        {
          "internalType": "uint256",
          "name": "",
          "type": "uint256"
        },
        {
          "internalType": "string",
          "name": "",
          "type": "string"
        },
        {
          "internalType": "string",
          "name": "",
          "type": "string"
        },
        {
          "internalType": "uint256",
          "name": "",
          "type": "uint256"
        }
      ],
      "stateMutability": "view",
      "type": "function",
      "constant": true
    },
    {
      "inputs": [
        {
          "internalType": "uint256",
          "name": "_pid",
          "type": "uint256"
        },
        {
          "internalType": "string",
          "name": "_pname",
          "type": "string"
        },
        {
          "internalType": "uint256",
          "name": "_premium",
          "type": "uint256"
        },
        {
          "internalType": "uint256",
          "name": "_myear",
          "type": "uint256"
        },
        {
          "internalType": "uint256",
          "name": "_reimburse",
          "type": "uint256"
        },
        {
          "internalType": "address",
          "name": "_cadd",
          "type": "address"
        }
      ],
      "name": "addPolicy",
      "outputs": [],
      "stateMutability": "nonpayable",
      "type": "function"
    },
    {
      "inputs": [
        {
          "internalType": "uint256",
          "name": "_pid",
          "type": "uint256"
        }
      ],
      "name": "checkPolicy",
      "outputs": [
        {
          "internalType": "uint256",
          "name": "",
          "type": "uint256"
        }
      ],
      "stateMutability": "view",
      "type": "function",
      "constant": true
    },
    {
      "inputs": [
        {
          "internalType": "uint256",
          "name": "_id",
          "type": "uint256"
        }
      ],
      "name": "showIns",
      "outputs": [
        {
          "internalType": "uint256",
          "name": "",
          "type": "uint256"
        },
        {
          "internalType": "string",
          "name": "",
          "type": "string"
        },
        {
          "internalType": "uint256",
          "name": "",
          "type": "uint256"
        },
        {
          "internalType": "uint256",
          "name": "",
          "type": "uint256"
        },
        {
          "internalType": "uint256",
          "name": "",
          "type": "uint256"
        },
        {
          "internalType": "string",
          "name": "",
          "type": "string"
        },
        {
          "internalType": "address",
          "name": "",
          "type": "address"
        }
      ],
      "stateMutability": "view",
      "type": "function",
      "constant": true
    }
  ],
  "bytecode": "0x608060405260008055600060015534801561001957600080fd5b50611ea6806100296000396000f3fe608060405234801561001057600080fd5b50600436106100a95760003560e01c80636787db89116100715780636787db89146101845780636dd3f5fe146101a05780636ff96c7c146101d3578063736436a1146101f1578063aca6bef71461020d578063b77553b61461023d576100a9565b80631e9d48cf146100ae5780632e867978146100de578063517fe4de146101145780635fe73f3f1461014a5780636481345814610168575b600080fd5b6100c860048036038101906100c39190611498565b61026d565b6040516100d591906114de565b60405180910390f35b6100f860048036038101906100f39190611525565b6103bf565b60405161010b97969594939291906115f1565b60405180910390f35b61012e60048036038101906101299190611498565b6105bc565b604051610141979695949392919061166e565b60405180910390f35b610152610957565b60405161015f91906114de565b60405180910390f35b610182600480360381019061017d9190611827565b61095d565b005b61019e600480360381019061019991906118c6565b610b3b565b005b6101ba60048036038101906101b59190611498565b610d82565b6040516101ca94939291906119bc565b60405180910390f35b6101db610fba565b6040516101e891906114de565b60405180910390f35b61020b60048036038101906102069190611a0f565b610fc0565b005b61022760048036038101906102229190611525565b61126f565b60405161023491906114de565b60405180910390f35b61025760048036038101906102529190611498565b6112d4565b60405161026491906114de565b60405180910390f35b6000806000905060005b600580549050811015610314578373ffffffffffffffffffffffffffffffffffffffff16600582815481106102af576102ae611ab8565b5b906000526020600020906008020160060160009054906101000a900473ffffffffffffffffffffffffffffffffffffffff1673ffffffffffffffffffffffffffffffffffffffff160361030157600191505b808061030c90611b16565b915050610277565b5060005b6006805490508110156103b5578373ffffffffffffffffffffffffffffffffffffffff16600682815481106103505761034f611ab8565b5b906000526020600020906005020160030160009054906101000a900473ffffffffffffffffffffffffffffffffffffffff1673ffffffffffffffffffffffffffffffffffffffff16036103a257600291505b80806103ad90611b16565b915050610318565b5080915050919050565b600060606000806000606060006004600089815260200190815260200160002060000154600460008a8152602001908152602001600020600101600460008b815260200190815260200160002060020154600460008c815260200190815260200160002060030154600460008d815260200190815260200160002060040154600460008e8152602001908152602001600020600501600460008f815260200190815260200160002060060160009054906101000a900473ffffffffffffffffffffffffffffffffffffffff1685805461049790611b8d565b80601f01602080910402602001604051908101604052809291908181526020018280546104c390611b8d565b80156105105780601f106104e557610100808354040283529160200191610510565b820191906000526020600020905b8154815290600101906020018083116104f357829003601f168201915b5050505050955081805461052390611b8d565b80601f016020809104026020016040519081016040528092919081815260200182805461054f90611b8d565b801561059c5780601f106105715761010080835404028352916020019161059c565b820191906000526020600020905b81548152906001019060200180831161057f57829003601f168201915b505050505091509650965096509650965096509650919395979092949650565b600060608060006060600080600360008973ffffffffffffffffffffffffffffffffffffffff1673ffffffffffffffffffffffffffffffffffffffff16815260200190815260200160002060000154600360008a73ffffffffffffffffffffffffffffffffffffffff1673ffffffffffffffffffffffffffffffffffffffff168152602001908152602001600020600101600360008b73ffffffffffffffffffffffffffffffffffffffff1673ffffffffffffffffffffffffffffffffffffffff168152602001908152602001600020600201600360008c73ffffffffffffffffffffffffffffffffffffffff1673ffffffffffffffffffffffffffffffffffffffff16815260200190815260200160002060030154600360008d73ffffffffffffffffffffffffffffffffffffffff1673ffffffffffffffffffffffffffffffffffffffff168152602001908152602001600020600401600360008e73ffffffffffffffffffffffffffffffffffffffff1673ffffffffffffffffffffffffffffffffffffffff16815260200190815260200160002060050154600360008f73ffffffffffffffffffffffffffffffffffffffff1673ffffffffffffffffffffffffffffffffffffffff168152602001908152602001600020600701548580546107a690611b8d565b80601f01602080910402602001604051908101604052809291908181526020018280546107d290611b8d565b801561081f5780601f106107f45761010080835404028352916020019161081f565b820191906000526020600020905b81548152906001019060200180831161080257829003601f168201915b5050505050955084805461083290611b8d565b80601f016020809104026020016040519081016040528092919081815260200182805461085e90611b8d565b80156108ab5780601f10610880576101008083540402835291602001916108ab565b820191906000526020600020905b81548152906001019060200180831161088e57829003601f168201915b505050505094508280546108be90611b8d565b80601f01602080910402602001604051908101604052809291908181526020018280546108ea90611b8d565b80156109375780601f1061090c57610100808354040283529160200191610937565b820191906000526020600020905b81548152906001019060200180831161091a57829003601f168201915b505050505092509650965096509650965096509650919395979092949650565b60015481565b600160005461096c9190611bbe565b60008190555060006040518060a001604052808681526020018581526020018481526020018373ffffffffffffffffffffffffffffffffffffffff16815260200160005481525090506006819080600181540180825580915050600190039060005260206000209060050201600090919091909150600082015181600001556020820151816001019081610a009190611d9e565b506040820151816002019081610a169190611d9e565b5060608201518160030160006101000a81548173ffffffffffffffffffffffffffffffffffffffff021916908373ffffffffffffffffffffffffffffffffffffffff16021790555060808201518160040155505080600260008473ffffffffffffffffffffffffffffffffffffffff1673ffffffffffffffffffffffffffffffffffffffff168152602001908152602001600020600082015181600001556020820151816001019081610ac99190611d9e565b506040820151816002019081610adf9190611d9e565b5060608201518160030160006101000a81548173ffffffffffffffffffffffffffffffffffffffff021916908373ffffffffffffffffffffffffffffffffffffffff160217905550608082015181600401559050505050505050565b60018054610b499190611bbe565b60018190555060006040518061010001604052808981526020018881526020018781526020018681526020018581526020018481526020018373ffffffffffffffffffffffffffffffffffffffff16815260200160015481525090506005819080600181540180825580915050600190039060005260206000209060080201600090919091909150600082015181600001556020820151816001019081610bf09190611d9e565b506040820151816002019081610c069190611d9e565b50606082015181600301556080820151816004019081610c269190611d9e565b5060a0820151816005015560c08201518160060160006101000a81548173ffffffffffffffffffffffffffffffffffffffff021916908373ffffffffffffffffffffffffffffffffffffffff16021790555060e08201518160070155505080600360008473ffffffffffffffffffffffffffffffffffffffff1673ffffffffffffffffffffffffffffffffffffffff168152602001908152602001600020600082015181600001556020820151816001019081610ce39190611d9e565b506040820151816002019081610cf99190611d9e565b50606082015181600301556080820151816004019081610d199190611d9e565b5060a0820151816005015560c08201518160060160006101000a81548173ffffffffffffffffffffffffffffffffffffffff021916908373ffffffffffffffffffffffffffffffffffffffff16021790555060e082015181600701559050505050505050505050565b60006060806000600260008673ffffffffffffffffffffffffffffffffffffffff1673ffffffffffffffffffffffffffffffffffffffff16815260200190815260200160002060000154600260008773ffffffffffffffffffffffffffffffffffffffff1673ffffffffffffffffffffffffffffffffffffffff168152602001908152602001600020600101600260008873ffffffffffffffffffffffffffffffffffffffff1673ffffffffffffffffffffffffffffffffffffffff168152602001908152602001600020600201600260008973ffffffffffffffffffffffffffffffffffffffff1673ffffffffffffffffffffffffffffffffffffffff16815260200190815260200160002060040154828054610e9f90611b8d565b80601f0160208091040260200160405190810160405280929190818152602001828054610ecb90611b8d565b8015610f185780601f10610eed57610100808354040283529160200191610f18565b820191906000526020600020905b815481529060010190602001808311610efb57829003601f168201915b50505050509250818054610f2b90611b8d565b80601f0160208091040260200160405190810160405280929190818152602001828054610f5790611b8d565b8015610fa45780601f10610f7957610100808354040283529160200191610fa4565b820191906000526020600020905b815481529060010190602001808311610f8757829003601f168201915b5050505050915093509350935093509193509193565b60005481565b60018054610fce9190611bbe565b60018190555060006040518060e00160405280888152602001878152602001868152602001858152602001848152602001600260008573ffffffffffffffffffffffffffffffffffffffff1673ffffffffffffffffffffffffffffffffffffffff168152602001908152602001600020600101805461104c90611b8d565b80601f016020809104026020016040519081016040528092919081815260200182805461107890611b8d565b80156110c55780601f1061109a576101008083540402835291602001916110c5565b820191906000526020600020905b8154815290600101906020018083116110a857829003601f168201915b505050505081526020018373ffffffffffffffffffffffffffffffffffffffff16815250905060078190806001815401808255809150506001900390600052602060002090600702016000909190919091506000820151816000015560208201518160010190816111369190611d9e565b5060408201518160020155606082015181600301556080820151816004015560a082015181600501908161116a9190611d9e565b5060c08201518160060160006101000a81548173ffffffffffffffffffffffffffffffffffffffff021916908373ffffffffffffffffffffffffffffffffffffffff160217905550505080600460008981526020019081526020016000206000820151816000015560208201518160010190816111e79190611d9e565b5060408201518160020155606082015181600301556080820151816004015560a082015181600501908161121b9190611d9e565b5060c08201518160060160006101000a81548173ffffffffffffffffffffffffffffffffffffffff021916908373ffffffffffffffffffffffffffffffffffffffff16021790555090505050505050505050565b6000806000905060005b6007805490508110156112ca57836007828154811061129b5761129a611ab8565b5b906000526020600020906007020160000154036112b757600191505b80806112c290611b16565b915050611279565b5080915050919050565b6000806000905060005b60068054905081101561137b578373ffffffffffffffffffffffffffffffffffffffff166006828154811061131657611315611ab8565b5b906000526020600020906005020160030160009054906101000a900473ffffffffffffffffffffffffffffffffffffffff1673ffffffffffffffffffffffffffffffffffffffff160361136857600191505b808061137390611b16565b9150506112de565b5060005b60058054905081101561141c578373ffffffffffffffffffffffffffffffffffffffff16600582815481106113b7576113b6611ab8565b5b906000526020600020906008020160060160009054906101000a900473ffffffffffffffffffffffffffffffffffffffff1673ffffffffffffffffffffffffffffffffffffffff160361140957600291505b808061141490611b16565b91505061137f565b5080915050919050565b6000604051905090565b600080fd5b600080fd5b600073ffffffffffffffffffffffffffffffffffffffff82169050919050565b60006114658261143a565b9050919050565b6114758161145a565b811461148057600080fd5b50565b6000813590506114928161146c565b92915050565b6000602082840312156114ae576114ad611430565b5b60006114bc84828501611483565b91505092915050565b6000819050919050565b6114d8816114c5565b82525050565b60006020820190506114f360008301846114cf565b92915050565b611502816114c5565b811461150d57600080fd5b50565b60008135905061151f816114f9565b92915050565b60006020828403121561153b5761153a611430565b5b600061154984828501611510565b91505092915050565b600081519050919050565b600082825260208201905092915050565b60005b8381101561158c578082015181840152602081019050611571565b60008484015250505050565b6000601f19601f8301169050919050565b60006115b482611552565b6115be818561155d565b93506115ce81856020860161156e565b6115d781611598565b840191505092915050565b6115eb8161145a565b82525050565b600060e082019050611606600083018a6114cf565b818103602083015261161881896115a9565b905061162760408301886114cf565b61163460608301876114cf565b61164160808301866114cf565b81810360a083015261165381856115a9565b905061166260c08301846115e2565b98975050505050505050565b600060e082019050611683600083018a6114cf565b818103602083015261169581896115a9565b905081810360408301526116a981886115a9565b90506116b860608301876114cf565b81810360808301526116ca81866115a9565b90506116d960a08301856114cf565b6116e660c08301846114cf565b98975050505050505050565b600080fd5b600080fd5b7f4e487b7100000000000000000000000000000000000000000000000000000000600052604160045260246000fd5b61173482611598565b810181811067ffffffffffffffff82111715611753576117526116fc565b5b80604052505050565b6000611766611426565b9050611772828261172b565b919050565b600067ffffffffffffffff821115611792576117916116fc565b5b61179b82611598565b9050602081019050919050565b82818337600083830152505050565b60006117ca6117c584611777565b61175c565b9050828152602081018484840111156117e6576117e56116f7565b5b6117f18482856117a8565b509392505050565b600082601f83011261180e5761180d6116f2565b5b813561181e8482602086016117b7565b91505092915050565b6000806000806080858703121561184157611840611430565b5b600061184f87828801611510565b945050602085013567ffffffffffffffff8111156118705761186f611435565b5b61187c878288016117f9565b935050604085013567ffffffffffffffff81111561189d5761189c611435565b5b6118a9878288016117f9565b92505060606118ba87828801611483565b91505092959194509250565b600080600080600080600060e0888a0312156118e5576118e4611430565b5b60006118f38a828b01611510565b975050602088013567ffffffffffffffff81111561191457611913611435565b5b6119208a828b016117f9565b965050604088013567ffffffffffffffff81111561194157611940611435565b5b61194d8a828b016117f9565b955050606061195e8a828b01611510565b945050608088013567ffffffffffffffff81111561197f5761197e611435565b5b61198b8a828b016117f9565b93505060a061199c8a828b01611510565b92505060c06119ad8a828b01611483565b91505092959891949750929550565b60006080820190506119d160008301876114cf565b81810360208301526119e381866115a9565b905081810360408301526119f781856115a9565b9050611a0660608301846114cf565b95945050505050565b60008060008060008060c08789031215611a2c57611a2b611430565b5b6000611a3a89828a01611510565b965050602087013567ffffffffffffffff811115611a5b57611a5a611435565b5b611a6789828a016117f9565b9550506040611a7889828a01611510565b9450506060611a8989828a01611510565b9350506080611a9a89828a01611510565b92505060a0611aab89828a01611483565b9150509295509295509295565b7f4e487b7100000000000000000000000000000000000000000000000000000000600052603260045260246000fd5b7f4e487b7100000000000000000000000000000000000000000000000000000000600052601160045260246000fd5b6000611b21826114c5565b91507fffffffffffffffffffffffffffffffffffffffffffffffffffffffffffffffff8203611b5357611b52611ae7565b5b600182019050919050565b7f4e487b7100000000000000000000000000000000000000000000000000000000600052602260045260246000fd5b60006002820490506001821680611ba557607f821691505b602082108103611bb857611bb7611b5e565b5b50919050565b6000611bc9826114c5565b9150611bd4836114c5565b9250828201905080821115611bec57611beb611ae7565b5b92915050565b60008190508160005260206000209050919050565b60006020601f8301049050919050565b600082821b905092915050565b600060088302611c547fffffffffffffffffffffffffffffffffffffffffffffffffffffffffffffffff82611c17565b611c5e8683611c17565b95508019841693508086168417925050509392505050565b6000819050919050565b6000611c9b611c96611c91846114c5565b611c76565b6114c5565b9050919050565b6000819050919050565b611cb583611c80565b611cc9611cc182611ca2565b848454611c24565b825550505050565b600090565b611cde611cd1565b611ce9818484611cac565b505050565b5b81811015611d0d57611d02600082611cd6565b600181019050611cef565b5050565b601f821115611d5257611d2381611bf2565b611d2c84611c07565b81016020851015611d3b578190505b611d4f611d4785611c07565b830182611cee565b50505b505050565b600082821c905092915050565b6000611d7560001984600802611d57565b1980831691505092915050565b6000611d8e8383611d64565b9150826002028217905092915050565b611da782611552565b67ffffffffffffffff811115611dc057611dbf6116fc565b5b611dca8254611b8d565b611dd5828285611d11565b600060209050601f831160018114611e085760008415611df6578287015190505b611e008582611d82565b865550611e68565b601f198416611e1686611bf2565b60005b82811015611e3e57848901518255600182019150602085019450602081019050611e19565b86831015611e5b5784890151611e57601f891682611d64565b8355505b6001600288020188555050505b50505050505056fea26469706673582212204f61d920c7e7734653ed3960d62c35b276cc876173ba272f2b8f475fde24695864736f6c63430008100033",
  "immutableReferences": {},
  "source": "// SPDX-License-Identifier: MIT\n\npragma solidity ^0.8;\n\ncontract UserRegister {\n\n\n    uint public _c_id =0;\n    uint public _u_id =0;\n    //uint public _t_id=0;\n\n    // structure for User\n    struct User {\n        uint Addhaarid;\n        string name;\n        string location;\n        uint age;\n        string gender;\n        uint contact;\n        address add;\n        uint id;\n    }\n    struct Company{\n        uint lice;\n        string name;\n        string blocation;\n        address cadd;\n        uint cid;\n    }\n\n    struct Policy {\n        uint policy_id;\n        string policy_name;\n        uint premium_monthly;\n        uint ploy_year;\n        uint reimburse;\n        string company_name;\n        address company;\n    }\n    //mapping(uint=> Company) c1;\n    mapping(address => Company) c1;\n    mapping (address => User) u1;\n    mapping(uint => Policy) p1;\n\n    // Creating array of student structure\n    User[] person;\n    Company[] company;\n    Policy[] policy;\n    //mapping(uint => User) public studs;\n\n    // Function to add User into the User structure\n    function addUser(uint _aid,string memory _name, string memory _location, uint _age, string memory _gender, uint _contact, address _add ) public {\n        _u_id=_u_id+1;\n        UserRegister.User memory x = User(_aid,_name, _location, _age, _gender,_contact, _add,_u_id);\n        person.push(x);\n        u1[_add] = x;\n    }\n\n    // Function to check User who are already registered or not!!!!!\n\n    function checkUser(address _add) view public returns(uint) {\n        uint _find = 0;\n        for (uint _i = 0; _i < person.length; _i++) {\n            if (person[_i].add == _add) {\n                _find = 1;\n            }\n        }\n        for (uint _i = 0; _i < company.length; _i++) {\n            if (company[_i].cadd == _add) {\n                _find = 2;\n            }\n        }\n\n        return (_find);\n    }\n\n     // Function to show User \n\n    function showUser(address _addr) public view returns(uint, string memory,string memory, uint,string memory,uint, uint ){\n        return(u1[_addr].Addhaarid,u1[_addr].name,u1[_addr].location,u1[_addr].age,u1[_addr].gender,u1[_addr].contact,u1[_addr].id);\n    }\n\n    // Function to add company into the company structure\n\n     function addcom(uint _li,string memory _cname, string memory _clocation, address _cadd) public {\n        _c_id=_c_id+1;\n        UserRegister.Company memory c = Company(_li,_cname, _clocation, _cadd,_c_id);\n        company.push(c);\n        c1[_cadd] = c;\n    }\n\n\n    function checkCompany(address _add) view public returns(uint) {\n        uint _find = 0;\n        for (uint _i = 0; _i < company.length; _i++) {\n            if (company[_i].cadd == _add) {\n                _find = 1;\n            }\n        }\n        for (uint _i = 0; _i < person.length; _i++) {\n            if (person[_i].add == _add) {\n                _find = 2;\n            }\n        }\n\n        return (_find);\n    }\n\n\n    // Function to show company\n\n    function showcom(address _cadd) public view returns(uint, string memory,string memory,uint ){\n        return(c1[_cadd].lice,c1[_cadd].name,c1[_cadd].blocation,c1[_cadd].cid);\n    }\n\n\n\n    // function to add policy\n\n    function addPolicy(uint _pid,string memory _pname, uint _premium, uint _myear, uint _reimburse,  address _cadd ) public {\n        _u_id=_u_id+1;\n        UserRegister.Policy memory p = Policy(_pid,_pname, _premium,_myear, _reimburse,c1[_cadd].name, _cadd);\n        policy.push(p);\n        p1[_pid] = p;\n    }\n\n    // Function to check Policys  are already registered or not!!!!!\n\n    function checkPolicy(uint _pid) view public returns(uint) {\n        uint _find = 0;\n        for (uint _i = 0; _i < policy.length; _i++) {\n            if (policy[_i].policy_id == _pid) {\n                _find = 1;\n            }\n        }\n\n        return (_find);\n    }\n     // Function to show Policys  that are already registered !!!!!\n\n    function showIns(uint _id) public view returns(uint, string memory, uint, uint,uint ,string memory,address){\n        return(p1[_id].policy_id,p1[_id].policy_name,p1[_id].premium_monthly,p1[_id].ploy_year,p1[_id].reimburse,p1[_id].company_name,p1[_id].company);\n    }\n  \n}",
  "sourcePath": "/home/kids/Documents/GitHub/Blockchain_Insurance/contracts/UserRegister.sol",
  "compiler": {
    "name": "solc",
    "version": "0.8.16+commit.07a7930e.Emscripten.clang"
  },
  "schemaVersion": "3.4.9",
  "updatedAt": "2022-09-09T20:39:29.921Z",
  "networkType": "ethereum",
  "devdoc": {
    "kind": "dev",
    "methods": {},
    "version": 1
  },
  "userdoc": {
    "kind": "user",
    "methods": {},
    "version": 1
  }
}