{
  "contractName": "UserRegister",
  "abi": [
    {
      "inputs": [],
      "name": "_c_id",
      "outputs": [
        {
          "internalType": "uint256",
          "name": "",
          "type": "uint256"
        }
      ],
      "stateMutability": "view",
      "type": "function",
      "constant": true
    },
    {
      "inputs": [],
      "name": "_u_id",
      "outputs": [
        {
          "internalType": "uint256",
          "name": "",
          "type": "uint256"
        }
      ],
      "stateMutability": "view",
      "type": "function",
      "constant": true
    },
    {
      "inputs": [
        {
          "internalType": "uint256",
          "name": "_aid",
          "type": "uint256"
        },
        {
          "internalType": "string",
          "name": "_name",
          "type": "string"
        },
        {
          "internalType": "string",
          "name": "_location",
          "type": "string"
        },
        {
          "internalType": "uint256",
          "name": "_age",
          "type": "uint256"
        },
        {
          "internalType": "string",
          "name": "_gender",
          "type": "string"
        },
        {
          "internalType": "uint256",
          "name": "_contact",
          "type": "uint256"
        },
        {
          "internalType": "address",
          "name": "_add",
          "type": "address"
        }
      ],
      "name": "addUser",
      "outputs": [],
      "stateMutability": "nonpayable",
      "type": "function"
    },
    {
      "inputs": [
        {
          "internalType": "address",
          "name": "_add",
          "type": "address"
        }
      ],
      "name": "checkUser",
      "outputs": [
        {
          "internalType": "uint256",
          "name": "",
          "type": "uint256"
        }
      ],
      "stateMutability": "view",
      "type": "function",
      "constant": true
    },
    {
      "inputs": [
        {
          "internalType": "address",
          "name": "_addr",
          "type": "address"
        }
      ],
      "name": "showUser",
      "outputs": [
        {
          "internalType": "uint256",
          "name": "",
          "type": "uint256"
        },
        {
          "internalType": "string",
          "name": "",
          "type": "string"
        },
        {
          "internalType": "string",
          "name": "",
          "type": "string"
        },
        {
          "internalType": "uint256",
          "name": "",
          "type": "uint256"
        },
        {
          "internalType": "string",
          "name": "",
          "type": "string"
        },
        {
          "internalType": "uint256",
          "name": "",
          "type": "uint256"
        },
        {
          "internalType": "uint256",
          "name": "",
          "type": "uint256"
        }
      ],
      "stateMutability": "view",
      "type": "function",
      "constant": true
    },
    {
      "inputs": [
        {
          "internalType": "uint256",
          "name": "_cid",
          "type": "uint256"
        },
        {
          "internalType": "string",
          "name": "_cname",
          "type": "string"
        },
        {
          "internalType": "string",
          "name": "_clocation",
          "type": "string"
        },
        {
          "internalType": "address",
          "name": "_cadd",
          "type": "address"
        }
      ],
      "name": "addcom",
      "outputs": [],
      "stateMutability": "nonpayable",
      "type": "function"
    },
    {
      "inputs": [
        {
          "internalType": "address",
          "name": "_add",
          "type": "address"
        }
      ],
      "name": "checkCompany",
      "outputs": [
        {
          "internalType": "uint256",
          "name": "",
          "type": "uint256"
        }
      ],
      "stateMutability": "view",
      "type": "function",
      "constant": true
    },
    {
      "inputs": [
        {
          "internalType": "address",
          "name": "_cadd",
          "type": "address"
        }
      ],
      "name": "showcom",
      "outputs": [
        {
          "internalType": "uint256",
          "name": "",
          "type": "uint256"
        },
        {
          "internalType": "string",
          "name": "",
          "type": "string"
        },
        {
          "internalType": "string",
          "name": "",
          "type": "string"
        }
      ],
      "stateMutability": "view",
      "type": "function",
      "constant": true
    }
  ],
  "bytecode": "0x608060405260008055600060015534801561001957600080fd5b5061159c806100296000396000f3fe608060405234801561001057600080fd5b50600436106100885760003560e01c80636787db891161005b5780636787db891461012d5780636dd3f5fe146101495780636ff96c7c1461017b578063b77553b61461019957610088565b80631e9d48cf1461008d578063517fe4de146100bd5780635fe73f3f146100f35780636481345814610111575b600080fd5b6100a760048036038101906100a29190610d32565b6101c9565b6040516100b49190610d78565b60405180910390f35b6100d760048036038101906100d29190610d32565b61027a565b6040516100ea9796959493929190610e23565b60405180910390f35b6100fb610615565b6040516101089190610d78565b60405180910390f35b61012b60048036038101906101269190611008565b61061b565b005b610147600480360381019061014291906110a7565b6107c8565b005b610163600480360381019061015e9190610d32565b610a18565b6040516101729392919061119d565b60405180910390f35b610183610c09565b6040516101909190610d78565b60405180910390f35b6101b360048036038101906101ae9190610d32565b610c0f565b6040516101c09190610d78565b60405180910390f35b6000806000905060005b600480549050811015610270578373ffffffffffffffffffffffffffffffffffffffff166004828154811061020b5761020a6111e2565b5b906000526020600020906008020160060160009054906101000a900473ffffffffffffffffffffffffffffffffffffffff1673ffffffffffffffffffffffffffffffffffffffff160361025d57600191505b808061026890611240565b9150506101d3565b5080915050919050565b600060608060006060600080600360008973ffffffffffffffffffffffffffffffffffffffff1673ffffffffffffffffffffffffffffffffffffffff16815260200190815260200160002060000154600360008a73ffffffffffffffffffffffffffffffffffffffff1673ffffffffffffffffffffffffffffffffffffffff168152602001908152602001600020600101600360008b73ffffffffffffffffffffffffffffffffffffffff1673ffffffffffffffffffffffffffffffffffffffff168152602001908152602001600020600201600360008c73ffffffffffffffffffffffffffffffffffffffff1673ffffffffffffffffffffffffffffffffffffffff16815260200190815260200160002060030154600360008d73ffffffffffffffffffffffffffffffffffffffff1673ffffffffffffffffffffffffffffffffffffffff168152602001908152602001600020600401600360008e73ffffffffffffffffffffffffffffffffffffffff1673ffffffffffffffffffffffffffffffffffffffff16815260200190815260200160002060050154600360008f73ffffffffffffffffffffffffffffffffffffffff1673ffffffffffffffffffffffffffffffffffffffff16815260200190815260200160002060070154858054610464906112b7565b80601f0160208091040260200160405190810160405280929190818152602001828054610490906112b7565b80156104dd5780601f106104b2576101008083540402835291602001916104dd565b820191906000526020600020905b8154815290600101906020018083116104c057829003601f168201915b505050505095508480546104f0906112b7565b80601f016020809104026020016040519081016040528092919081815260200182805461051c906112b7565b80156105695780601f1061053e57610100808354040283529160200191610569565b820191906000526020600020905b81548152906001019060200180831161054c57829003601f168201915b5050505050945082805461057c906112b7565b80601f01602080910402602001604051908101604052809291908181526020018280546105a8906112b7565b80156105f55780601f106105ca576101008083540402835291602001916105f5565b820191906000526020600020905b8154815290600101906020018083116105d857829003601f168201915b505050505092509650965096509650965096509650919395979092949650565b60015481565b600060405180608001604052808681526020018581526020018481526020018373ffffffffffffffffffffffffffffffffffffffff16815250905060058190806001815401808255809150506001900390600052602060002090600402016000909190919091506000820151816000015560208201518160010190816106a19190611494565b5060408201518160020190816106b79190611494565b5060608201518160030160006101000a81548173ffffffffffffffffffffffffffffffffffffffff021916908373ffffffffffffffffffffffffffffffffffffffff160217905550505080600260008473ffffffffffffffffffffffffffffffffffffffff1673ffffffffffffffffffffffffffffffffffffffff1681526020019081526020016000206000820151816000015560208201518160010190816107609190611494565b5060408201518160020190816107769190611494565b5060608201518160030160006101000a81548173ffffffffffffffffffffffffffffffffffffffff021916908373ffffffffffffffffffffffffffffffffffffffff1602179055509050505050505050565b600160008154809291906107db90611240565b9190505560018190555060006040518061010001604052808981526020018881526020018781526020018681526020018581526020018481526020018373ffffffffffffffffffffffffffffffffffffffff168152602001600154815250905060048190806001815401808255809150506001900390600052602060002090600802016000909190919091506000820151816000015560208201518160010190816108869190611494565b50604082015181600201908161089c9190611494565b506060820151816003015560808201518160040190816108bc9190611494565b5060a0820151816005015560c08201518160060160006101000a81548173ffffffffffffffffffffffffffffffffffffffff021916908373ffffffffffffffffffffffffffffffffffffffff16021790555060e08201518160070155505080600360008473ffffffffffffffffffffffffffffffffffffffff1673ffffffffffffffffffffffffffffffffffffffff1681526020019081526020016000206000820151816000015560208201518160010190816109799190611494565b50604082015181600201908161098f9190611494565b506060820151816003015560808201518160040190816109af9190611494565b5060a0820151816005015560c08201518160060160006101000a81548173ffffffffffffffffffffffffffffffffffffffff021916908373ffffffffffffffffffffffffffffffffffffffff16021790555060e082015181600701559050505050505050505050565b6000606080600260008573ffffffffffffffffffffffffffffffffffffffff1673ffffffffffffffffffffffffffffffffffffffff16815260200190815260200160002060000154600260008673ffffffffffffffffffffffffffffffffffffffff1673ffffffffffffffffffffffffffffffffffffffff168152602001908152602001600020600101600260008773ffffffffffffffffffffffffffffffffffffffff1673ffffffffffffffffffffffffffffffffffffffff168152602001908152602001600020600201818054610af0906112b7565b80601f0160208091040260200160405190810160405280929190818152602001828054610b1c906112b7565b8015610b695780601f10610b3e57610100808354040283529160200191610b69565b820191906000526020600020905b815481529060010190602001808311610b4c57829003601f168201915b50505050509150808054610b7c906112b7565b80601f0160208091040260200160405190810160405280929190818152602001828054610ba8906112b7565b8015610bf55780601f10610bca57610100808354040283529160200191610bf5565b820191906000526020600020905b815481529060010190602001808311610bd857829003601f168201915b505050505090509250925092509193909250565b60005481565b6000806000905060005b600580549050811015610cb6578373ffffffffffffffffffffffffffffffffffffffff1660058281548110610c5157610c506111e2565b5b906000526020600020906004020160030160009054906101000a900473ffffffffffffffffffffffffffffffffffffffff1673ffffffffffffffffffffffffffffffffffffffff1603610ca357600191505b8080610cae90611240565b915050610c19565b5080915050919050565b6000604051905090565b600080fd5b600080fd5b600073ffffffffffffffffffffffffffffffffffffffff82169050919050565b6000610cff82610cd4565b9050919050565b610d0f81610cf4565b8114610d1a57600080fd5b50565b600081359050610d2c81610d06565b92915050565b600060208284031215610d4857610d47610cca565b5b6000610d5684828501610d1d565b91505092915050565b6000819050919050565b610d7281610d5f565b82525050565b6000602082019050610d8d6000830184610d69565b92915050565b600081519050919050565b600082825260208201905092915050565b60005b83811015610dcd578082015181840152602081019050610db2565b60008484015250505050565b6000601f19601f8301169050919050565b6000610df582610d93565b610dff8185610d9e565b9350610e0f818560208601610daf565b610e1881610dd9565b840191505092915050565b600060e082019050610e38600083018a610d69565b8181036020830152610e4a8189610dea565b90508181036040830152610e5e8188610dea565b9050610e6d6060830187610d69565b8181036080830152610e7f8186610dea565b9050610e8e60a0830185610d69565b610e9b60c0830184610d69565b98975050505050505050565b610eb081610d5f565b8114610ebb57600080fd5b50565b600081359050610ecd81610ea7565b92915050565b600080fd5b600080fd5b7f4e487b7100000000000000000000000000000000000000000000000000000000600052604160045260246000fd5b610f1582610dd9565b810181811067ffffffffffffffff82111715610f3457610f33610edd565b5b80604052505050565b6000610f47610cc0565b9050610f538282610f0c565b919050565b600067ffffffffffffffff821115610f7357610f72610edd565b5b610f7c82610dd9565b9050602081019050919050565b82818337600083830152505050565b6000610fab610fa684610f58565b610f3d565b905082815260208101848484011115610fc757610fc6610ed8565b5b610fd2848285610f89565b509392505050565b600082601f830112610fef57610fee610ed3565b5b8135610fff848260208601610f98565b91505092915050565b6000806000806080858703121561102257611021610cca565b5b600061103087828801610ebe565b945050602085013567ffffffffffffffff81111561105157611050610ccf565b5b61105d87828801610fda565b935050604085013567ffffffffffffffff81111561107e5761107d610ccf565b5b61108a87828801610fda565b925050606061109b87828801610d1d565b91505092959194509250565b600080600080600080600060e0888a0312156110c6576110c5610cca565b5b60006110d48a828b01610ebe565b975050602088013567ffffffffffffffff8111156110f5576110f4610ccf565b5b6111018a828b01610fda565b965050604088013567ffffffffffffffff81111561112257611121610ccf565b5b61112e8a828b01610fda565b955050606061113f8a828b01610ebe565b945050608088013567ffffffffffffffff8111156111605761115f610ccf565b5b61116c8a828b01610fda565b93505060a061117d8a828b01610ebe565b92505060c061118e8a828b01610d1d565b91505092959891949750929550565b60006060820190506111b26000830186610d69565b81810360208301526111c48185610dea565b905081810360408301526111d88184610dea565b9050949350505050565b7f4e487b7100000000000000000000000000000000000000000000000000000000600052603260045260246000fd5b7f4e487b7100000000000000000000000000000000000000000000000000000000600052601160045260246000fd5b600061124b82610d5f565b91507fffffffffffffffffffffffffffffffffffffffffffffffffffffffffffffffff820361127d5761127c611211565b5b600182019050919050565b7f4e487b7100000000000000000000000000000000000000000000000000000000600052602260045260246000fd5b600060028204905060018216806112cf57607f821691505b6020821081036112e2576112e1611288565b5b50919050565b60008190508160005260206000209050919050565b60006020601f8301049050919050565b600082821b905092915050565b60006008830261134a7fffffffffffffffffffffffffffffffffffffffffffffffffffffffffffffffff8261130d565b611354868361130d565b95508019841693508086168417925050509392505050565b6000819050919050565b600061139161138c61138784610d5f565b61136c565b610d5f565b9050919050565b6000819050919050565b6113ab83611376565b6113bf6113b782611398565b84845461131a565b825550505050565b600090565b6113d46113c7565b6113df8184846113a2565b505050565b5b81811015611403576113f86000826113cc565b6001810190506113e5565b5050565b601f82111561144857611419816112e8565b611422846112fd565b81016020851015611431578190505b61144561143d856112fd565b8301826113e4565b50505b505050565b600082821c905092915050565b600061146b6000198460080261144d565b1980831691505092915050565b6000611484838361145a565b9150826002028217905092915050565b61149d82610d93565b67ffffffffffffffff8111156114b6576114b5610edd565b5b6114c082546112b7565b6114cb828285611407565b600060209050601f8311600181146114fe57600084156114ec578287015190505b6114f68582611478565b86555061155e565b601f19841661150c866112e8565b60005b828110156115345784890151825560018201915060208501945060208101905061150f565b86831015611551578489015161154d601f89168261145a565b8355505b6001600288020188555050505b50505050505056fea2646970667358221220da4cec5f3a0d0e2c84b83c98557dc9fa9381ef2c4f2372f53e3a890bd6f169ec64736f6c63430008100033",
  "immutableReferences": {},
  "source": "// SPDX-License-Identifier: MIT\n\npragma solidity ^0.8;\n\ncontract UserRegister {\n\n\n    uint public _c_id =0;\n    uint public _u_id =0;\n    //uint public _t_id=0;\n\n    // structure for User\n    struct User {\n        uint Addhaarid;\n        string name;\n        string location;\n        uint age;\n        string gender;\n        uint contact;\n        address add;\n        uint id;\n    }\n    struct Company{\n        uint lice;\n        string name;\n        string blocation;\n        address cadd;\n    }\n    //mapping(uint=> Company) c1;\n    mapping(address => Company) c1;\n    mapping (address => User) u1;\n    // Creating array of student structure\n    User[] person;\n    Company[] company;\n    //mapping(uint => User) public studs;\n\n    // Function to add students into the student structure\n    function addUser(uint _aid,string memory _name, string memory _location, uint _age, string memory _gender, uint _contact, address _add ) public {\n        _u_id=_u_id++;\n        UserRegister.User memory x = User(_aid,_name, _location, _age, _gender,_contact, _add,_u_id);\n        person.push(x);\n        u1[_add] = x;\n    }\n\n    function checkUser(address _add) view public returns(uint) {\n        uint _find = 0;\n        for (uint _i = 0; _i < person.length; _i++) {\n            if (person[_i].add == _add) {\n                _find = 1;\n            }\n        }\n\n        return (_find);\n    }\n\n    function showUser(address _addr) public view returns(uint, string memory,string memory, uint,string memory,uint, uint ){\n        return(u1[_addr].Addhaarid,u1[_addr].name,u1[_addr].location,u1[_addr].age,u1[_addr].gender,u1[_addr].contact,u1[_addr].id);\n    }\n    \n     function addcom(uint _cid,string memory _cname, string memory _clocation, address _cadd) public {\n        UserRegister.Company memory c = Company(_cid,_cname, _clocation, _cadd);\n        company.push(c);\n        c1[_cadd] = c;\n    }\n\n    function checkCompany(address _add) view public returns(uint) {\n        uint _find = 0;\n        for (uint _i = 0; _i < company.length; _i++) {\n            if (company[_i].cadd == _add) {\n                _find = 1;\n            }\n        }\n\n        return (_find);\n    }\n    function showcom(address _cadd) public view returns(uint, string memory,string memory ){\n        return(c1[_cadd].lice,c1[_cadd].name,c1[_cadd].blocation);\n    }\n}",
  "sourcePath": "/home/sai/Documents/GitHub/Blockchain_Insurance/contracts/UserRegister.sol",
  "compiler": {
    "name": "solc",
    "version": "0.8.16+commit.07a7930e.Emscripten.clang"
  },
  "schemaVersion": "3.4.9",
  "updatedAt": "2022-09-08T19:03:28.078Z",
  "networkType": "ethereum",
  "devdoc": {
    "kind": "dev",
    "methods": {},
    "version": 1
  },
  "userdoc": {
    "kind": "user",
    "methods": {},
    "version": 1
  }
}